{
  "_format": "hh-sol-artifact-1",
  "contractName": "ArbitrationRegistry",
  "sourceName": "contracts/features/ArbitrationRegistry.sol",
  "abi": [
    {
      "inputs": [
        {
          "internalType": "address",
          "name": "_stakingManager",
          "type": "address"
        }
      ],
      "stateMutability": "nonpayable",
      "type": "constructor"
    },
    {
      "inputs": [],
      "name": "AccessControlBadConfirmation",
      "type": "error"
    },
    {
      "inputs": [
        {
          "internalType": "address",
          "name": "account",
          "type": "address"
        },
        {
          "internalType": "bytes32",
          "name": "neededRole",
          "type": "bytes32"
        }
      ],
      "name": "AccessControlUnauthorizedAccount",
      "type": "error"
    },
    {
      "inputs": [],
      "name": "AlreadyJuror",
      "type": "error"
    },
    {
      "inputs": [],
      "name": "AlreadyVoted",
      "type": "error"
    },
    {
      "inputs": [],
      "name": "DisputeExpired",
      "type": "error"
    },
    {
      "inputs": [],
      "name": "InvalidAddress",
      "type": "error"
    },
    {
      "inputs": [],
      "name": "InvalidDisputeStatus",
      "type": "error"
    },
    {
      "inputs": [],
      "name": "InvalidJurySize",
      "type": "error"
    },
    {
      "inputs": [],
      "name": "NotArbitrator",
      "type": "error"
    },
    {
      "inputs": [],
      "name": "NotAuthorized",
      "type": "error"
    },
    {
      "inputs": [],
      "name": "NotQualifiedArbitrator",
      "type": "error"
    },
    {
      "inputs": [],
      "name": "ReentrancyGuardReentrantCall",
      "type": "error"
    },
    {
      "inputs": [],
      "name": "VotingNotFinished",
      "type": "error"
    },
    {
      "anonymous": false,
      "inputs": [
        {
          "indexed": true,
          "internalType": "uint256",
          "name": "disputeId",
          "type": "uint256"
        },
        {
          "indexed": true,
          "internalType": "uint256",
          "name": "escrowId",
          "type": "uint256"
        },
        {
          "indexed": true,
          "internalType": "address",
          "name": "initiator",
          "type": "address"
        }
      ],
      "name": "DisputeCreated",
      "type": "event"
    },
    {
      "anonymous": false,
      "inputs": [
        {
          "indexed": true,
          "internalType": "uint256",
          "name": "escrowId",
          "type": "uint256"
        },
        {
          "indexed": true,
          "internalType": "address",
          "name": "winner",
          "type": "address"
        }
      ],
      "name": "DisputeResolved",
      "type": "event"
    },
    {
      "anonymous": false,
      "inputs": [
        {
          "indexed": true,
          "internalType": "uint256",
          "name": "disputeId",
          "type": "uint256"
        },
        {
          "indexed": false,
          "internalType": "enum DataTypes.DisputeStatus",
          "name": "status",
          "type": "uint8"
        }
      ],
      "name": "DisputeStatusChanged",
      "type": "event"
    },
    {
      "anonymous": false,
      "inputs": [
        {
          "indexed": true,
          "internalType": "uint256",
          "name": "disputeId",
          "type": "uint256"
        },
        {
          "indexed": true,
          "internalType": "address",
          "name": "juror",
          "type": "address"
        }
      ],
      "name": "JurorJoined",
      "type": "event"
    },
    {
      "anonymous": false,
      "inputs": [
        {
          "indexed": true,
          "internalType": "bytes32",
          "name": "role",
          "type": "bytes32"
        },
        {
          "indexed": true,
          "internalType": "bytes32",
          "name": "previousAdminRole",
          "type": "bytes32"
        },
        {
          "indexed": true,
          "internalType": "bytes32",
          "name": "newAdminRole",
          "type": "bytes32"
        }
      ],
      "name": "RoleAdminChanged",
      "type": "event"
    },
    {
      "anonymous": false,
      "inputs": [
        {
          "indexed": true,
          "internalType": "bytes32",
          "name": "role",
          "type": "bytes32"
        },
        {
          "indexed": true,
          "internalType": "address",
          "name": "account",
          "type": "address"
        },
        {
          "indexed": true,
          "internalType": "address",
          "name": "sender",
          "type": "address"
        }
      ],
      "name": "RoleGranted",
      "type": "event"
    },
    {
      "anonymous": false,
      "inputs": [
        {
          "indexed": true,
          "internalType": "bytes32",
          "name": "role",
          "type": "bytes32"
        },
        {
          "indexed": true,
          "internalType": "address",
          "name": "account",
          "type": "address"
        },
        {
          "indexed": true,
          "internalType": "address",
          "name": "sender",
          "type": "address"
        }
      ],
      "name": "RoleRevoked",
      "type": "event"
    },
    {
      "anonymous": false,
      "inputs": [
        {
          "indexed": true,
          "internalType": "uint256",
          "name": "disputeId",
          "type": "uint256"
        },
        {
          "indexed": true,
          "internalType": "address",
          "name": "juror",
          "type": "address"
        },
        {
          "indexed": false,
          "internalType": "bool",
          "name": "voteForBuyer",
          "type": "bool"
        }
      ],
      "name": "VoteCast",
      "type": "event"
    },
    {
      "inputs": [],
      "name": "ADMIN_ROLE",
      "outputs": [
        {
          "internalType": "bytes32",
          "name": "",
          "type": "bytes32"
        }
      ],
      "stateMutability": "view",
      "type": "function"
    },
    {
      "inputs": [],
      "name": "DEFAULT_ADMIN_ROLE",
      "outputs": [
        {
          "internalType": "bytes32",
          "name": "",
          "type": "bytes32"
        }
      ],
      "stateMutability": "view",
      "type": "function"
    },
    {
      "inputs": [],
      "name": "MARKETPLACE_ROLE",
      "outputs": [
        {
          "internalType": "bytes32",
          "name": "",
          "type": "bytes32"
        }
      ],
      "stateMutability": "view",
      "type": "function"
    },
    {
      "inputs": [
        {
          "internalType": "uint256",
          "name": "_disputeId",
          "type": "uint256"
        },
        {
          "internalType": "bool",
          "name": "_voteForBuyer",
          "type": "bool"
        }
      ],
      "name": "castVote",
      "outputs": [],
      "stateMutability": "nonpayable",
      "type": "function"
    },
    {
      "inputs": [
        {
          "internalType": "uint256",
          "name": "_escrowId",
          "type": "uint256"
        },
        {
          "internalType": "address",
          "name": "_initiator",
          "type": "address"
        },
        {
          "internalType": "address",
          "name": "_buyer",
          "type": "address"
        },
        {
          "internalType": "address",
          "name": "_seller",
          "type": "address"
        },
        {
          "internalType": "uint256",
          "name": "_amount",
          "type": "uint256"
        },
        {
          "internalType": "string",
          "name": "_reasonCid",
          "type": "string"
        }
      ],
      "name": "createDispute",
      "outputs": [
        {
          "internalType": "uint256",
          "name": "",
          "type": "uint256"
        }
      ],
      "stateMutability": "nonpayable",
      "type": "function"
    },
    {
      "inputs": [],
      "name": "disputeDuration",
      "outputs": [
        {
          "internalType": "uint256",
          "name": "",
          "type": "uint256"
        }
      ],
      "stateMutability": "view",
      "type": "function"
    },
    {
      "inputs": [
        {
          "internalType": "uint256",
          "name": "",
          "type": "uint256"
        }
      ],
      "name": "disputes",
      "outputs": [
        {
          "internalType": "uint256",
          "name": "id",
          "type": "uint256"
        },
        {
          "internalType": "uint256",
          "name": "escrowId",
          "type": "uint256"
        },
        {
          "internalType": "address",
          "name": "initiator",
          "type": "address"
        },
        {
          "internalType": "address",
          "name": "buyer",
          "type": "address"
        },
        {
          "internalType": "address",
          "name": "seller",
          "type": "address"
        },
        {
          "internalType": "uint256",
          "name": "amount",
          "type": "uint256"
        },
        {
          "internalType": "string",
          "name": "reasonCid",
          "type": "string"
        },
        {
          "internalType": "enum DataTypes.DisputeStatus",
          "name": "status",
          "type": "uint8"
        },
        {
          "internalType": "uint256",
          "name": "createdAt",
          "type": "uint256"
        },
        {
          "internalType": "uint256",
          "name": "deadline",
          "type": "uint256"
        },
        {
          "internalType": "uint256",
          "name": "votesForBuyer",
          "type": "uint256"
        },
        {
          "internalType": "uint256",
          "name": "votesForSeller",
          "type": "uint256"
        },
        {
          "internalType": "address",
          "name": "winner",
          "type": "address"
        }
      ],
      "stateMutability": "view",
      "type": "function"
    },
    {
      "inputs": [
        {
          "internalType": "uint256",
          "name": "_disputeId",
          "type": "uint256"
        }
      ],
      "name": "finalizeDispute",
      "outputs": [],
      "stateMutability": "nonpayable",
      "type": "function"
    },
    {
      "inputs": [
        {
          "internalType": "bytes32",
          "name": "role",
          "type": "bytes32"
        }
      ],
      "name": "getRoleAdmin",
      "outputs": [
        {
          "internalType": "bytes32",
          "name": "",
          "type": "bytes32"
        }
      ],
      "stateMutability": "view",
      "type": "function"
    },
    {
      "inputs": [
        {
          "internalType": "bytes32",
          "name": "role",
          "type": "bytes32"
        },
        {
          "internalType": "address",
          "name": "account",
          "type": "address"
        }
      ],
      "name": "grantRole",
      "outputs": [],
      "stateMutability": "nonpayable",
      "type": "function"
    },
    {
      "inputs": [
        {
          "internalType": "bytes32",
          "name": "role",
          "type": "bytes32"
        },
        {
          "internalType": "address",
          "name": "account",
          "type": "address"
        }
      ],
      "name": "hasRole",
      "outputs": [
        {
          "internalType": "bool",
          "name": "",
          "type": "bool"
        }
      ],
      "stateMutability": "view",
      "type": "function"
    },
    {
      "inputs": [
        {
          "internalType": "uint256",
          "name": "_disputeId",
          "type": "uint256"
        }
      ],
      "name": "joinAsJuror",
      "outputs": [],
      "stateMutability": "nonpayable",
      "type": "function"
    },
    {
      "inputs": [],
      "name": "jurySize",
      "outputs": [
        {
          "internalType": "uint256",
          "name": "",
          "type": "uint256"
        }
      ],
      "stateMutability": "view",
      "type": "function"
    },
    {
      "inputs": [],
      "name": "marketplace",
      "outputs": [
        {
          "internalType": "address",
          "name": "",
          "type": "address"
        }
      ],
      "stateMutability": "view",
      "type": "function"
    },
    {
      "inputs": [],
      "name": "nextDisputeId",
      "outputs": [
        {
          "internalType": "uint256",
          "name": "",
          "type": "uint256"
        }
      ],
      "stateMutability": "view",
      "type": "function"
    },
    {
      "inputs": [
        {
          "internalType": "bytes32",
          "name": "role",
          "type": "bytes32"
        },
        {
          "internalType": "address",
          "name": "callerConfirmation",
          "type": "address"
        }
      ],
      "name": "renounceRole",
      "outputs": [],
      "stateMutability": "nonpayable",
      "type": "function"
    },
    {
      "inputs": [
        {
          "internalType": "bytes32",
          "name": "role",
          "type": "bytes32"
        },
        {
          "internalType": "address",
          "name": "account",
          "type": "address"
        }
      ],
      "name": "revokeRole",
      "outputs": [],
      "stateMutability": "nonpayable",
      "type": "function"
    },
    {
      "inputs": [
        {
          "internalType": "uint256",
          "name": "_seconds",
          "type": "uint256"
        }
      ],
      "name": "setDisputeDuration",
      "outputs": [],
      "stateMutability": "nonpayable",
      "type": "function"
    },
    {
      "inputs": [
        {
          "internalType": "uint256",
          "name": "_size",
          "type": "uint256"
        }
      ],
      "name": "setJurySize",
      "outputs": [],
      "stateMutability": "nonpayable",
      "type": "function"
    },
    {
      "inputs": [
        {
          "internalType": "address",
          "name": "_marketplace",
          "type": "address"
        }
      ],
      "name": "setMarketplace",
      "outputs": [],
      "stateMutability": "nonpayable",
      "type": "function"
    },
    {
      "inputs": [],
      "name": "stakingManager",
      "outputs": [
        {
          "internalType": "contract IStakingManager",
          "name": "",
          "type": "address"
        }
      ],
      "stateMutability": "view",
      "type": "function"
    },
    {
      "inputs": [
        {
          "internalType": "bytes4",
          "name": "interfaceId",
          "type": "bytes4"
        }
      ],
      "name": "supportsInterface",
      "outputs": [
        {
          "internalType": "bool",
          "name": "",
          "type": "bool"
        }
      ],
      "stateMutability": "view",
      "type": "function"
    },
    {
      "inputs": [
        {
          "internalType": "uint256",
          "name": "",
          "type": "uint256"
        },
        {
          "internalType": "address",
          "name": "",
          "type": "address"
        }
      ],
      "name": "votes",
      "outputs": [
        {
          "internalType": "uint8",
          "name": "",
          "type": "uint8"
        }
      ],
      "stateMutability": "view",
      "type": "function"
    }
  ],
  "bytecode": "0x608060405234801561000f575f5ffd5b5060405161176338038061176383398101604081905261002e9161016a565b600180556001600160a01b0381166100595760405163e6c4247b60e01b815260040160405180910390fd5b600280546001600160a01b0319166001600160a01b03831617905560036004556203f480600555600160065561008f5f336100c1565b506100ba7fa49807205ce4d355092ef5a8a18f56e8913cf4a201fbe287825b095693c21775336100c1565b5050610197565b5f828152602081815260408083206001600160a01b038516845290915281205460ff16610161575f838152602081815260408083206001600160a01b03861684529091529020805460ff191660011790556101193390565b6001600160a01b0316826001600160a01b0316847f2f8788117e7eff1d82e926ec794901d17c78024a50270940304540a733656f0d60405160405180910390a4506001610164565b505f5b92915050565b5f6020828403121561017a575f5ffd5b81516001600160a01b0381168114610190575f5ffd5b9392505050565b6115bf806101a45f395ff3fe608060405234801561000f575f5ffd5b5060043610610148575f3560e01c806356989a83116100bf578063abc8c7af11610079578063abc8c7af146102d5578063b6b6cc13146102e8578063b8fad24e146102f1578063c3439f3f14610304578063d23254b41461032b578063d547741f1461036a575f5ffd5b806356989a831461026e5780635a0f15c91461028157806373ad6c2d1461029457806375b238fc146102a757806391d14854146102bb578063a217fddf146102ce575f5ffd5b806322828cc21161011057806322828cc2146101c6578063248a9ca3146101f15780632f2ff15d1461021357806336568abe14610226578063536c8c1514610239578063564a565d14610242575f5ffd5b806301ffc9a71461014c5780630db399341461017457806313a84c441461018b57806315373e3d146101a05780631b2f1b8f146101b3575b5f5ffd5b61015f61015a3660046110ef565b61037d565b60405190151581526020015b60405180910390f35b61017d60065481565b60405190815260200161016b565b61019e61019936600461111d565b6103b3565b005b61019e6101ae366004611141565b610623565b61017d6101c136600461118a565b610832565b6002546101d9906001600160a01b031681565b6040516001600160a01b03909116815260200161016b565b61017d6101ff36600461111d565b5f9081526020819052604090206001015490565b61019e61022136600461123c565b610a93565b61019e61023436600461123c565b610abd565b61017d60045481565b61025561025036600461111d565b610af5565b60405161016b9d9c9b9a999897969594939291906112c8565b61019e61027c36600461111d565b610bfb565b61019e61028f36600461111d565b610c15565b61019e6102a2366004611363565b610c32565b61017d5f51602061156a5f395f51905f5281565b61015f6102c936600461123c565b610cb5565b61017d5f81565b6003546101d9906001600160a01b031681565b61017d60055481565b61019e6102ff36600461111d565b610cdd565b61017d7f0ea61da3a8a09ad801432653699f8c1860b1ae9d2ea4a141fadfd63227717bc881565b61035861033936600461123c565b600860209081525f928352604080842090915290825290205460ff1681565b60405160ff909116815260200161016b565b61019e61037836600461123c565b610d2d565b5f6001600160e01b03198216637965db0b60e01b14806103ad57506301ffc9a760e01b6001600160e01b03198316145b92915050565b6103bb610d51565b5f81815260076020526040812090600782015460ff1660028111156103e2576103e2611294565b146104005760405163f3b76cbf60e01b815260040160405180910390fd5b8060090154421115610425576040516314de936f60e31b815260040160405180910390fd5b60038101546001600160a01b031633148061044c575060048101546001600160a01b031633145b1561046a5760405163ea8e4eb560e01b815260040160405180910390fd5b600254604051639f6bd2a960e01b81523360048201526001600160a01b0390911690639f6bd2a990602401602060405180830381865afa1580156104b0573d5f5f3e3d5ffd5b505050506040513d601f19601f820116820180604052508101906104d4919061137c565b6104f1576040516304611da760e41b815260040160405180910390fd5b5f5b600a82015481101561055857336001600160a01b031682600a01828154811061051e5761051e611397565b5f918252602090912001546001600160a01b0316036105505760405163149332e560e11b815260040160405180910390fd5b6001016104f3565b50600a810180546001810182555f918252602082200180546001600160a01b03191633908117909155604051909184917f27e8e9ad5a5542635bf9cd3da12767cc9a5138b032915966d6ccfb9bbb0a992d9190a3600454600a820154106106165760078101805460ff191660011790556005546105d590426113bf565b600982015560405182907f07d55143b13d8fefdb3a1f27aea953a5e54365f38a17d57a8ced97b3afaa6d7e9061060d906001906113d2565b60405180910390a25b5061062060018055565b50565b61062b610d51565b5f8281526007602052604090206001600782015460ff16600281111561065357610653611294565b146106715760405163f3b76cbf60e01b815260040160405180910390fd5b8060090154421115610696576040516314de936f60e31b815260040160405180910390fd5b5f805b600a8301548110156106ee57336001600160a01b031683600a0182815481106106c4576106c4611397565b5f918252602090912001546001600160a01b0316036106e657600191506106ee565b600101610699565b508061070d5760405163667f86ef60e01b815260040160405180910390fd5b5f84815260086020908152604080832033845290915290205460ff161561074757604051637c9a1cf960e01b815260040160405180910390fd5b821561078a575f8481526008602090815260408083203384529091528120805460ff19166001179055600b8301805491610780836113e0565b91905055506107c3565b5f8481526008602090815260408083203384529091528120805460ff19166002179055600c83018054916107bd836113e0565b91905055505b6040518315158152339085907fe71fcdac32df1877c1700e7bda2a03157e20993363a28fc35ac495cefc76e4d49060200160405180910390a3600a820154600c830154600b84015461081591906113bf565b036108235761082384610d7b565b505061082e60018055565b5050565b5f7f0ea61da3a8a09ad801432653699f8c1860b1ae9d2ea4a141fadfd63227717bc861085d81610f39565b600680545f918261086d836113e0565b9190505590506060604051806101c001604052808381526020018c81526020018b6001600160a01b031681526020018a6001600160a01b03168152602001896001600160a01b0316815260200188815260200187878080601f0160208091040260200160405190810160405280939291908181526020018383808284375f92018290525093855250506020909201915081526020014281526020016005544261091691906113bf565b815260208082018490525f6040808401829052606080850183905260809485018390528783526007845291819020855181559285015160018401558401516002830180546001600160a01b039283166001600160a01b03199182161790915591850151600384018054918316918416919091179055928401516004830180549190941691161790915560a0820151600582015560c082015160068201906109bd908261148f565b5060e082015160078201805460ff191660018360028111156109e1576109e1611294565b0217905550610100820151600882015561012082015160098201556101408201518051610a1891600a840191602090910190611078565b50610160820151600b820155610180820151600c8201556101a090910151600d90910180546001600160a01b0319166001600160a01b03928316179055604051908b16908c9084907f89b79bdd21d92f99bbf75358698d6a2b7a0a48fe9467a9ff8e5bac1ac638a3fc905f90a4509998505050505050505050565b5f82815260208190526040902060010154610aad81610f39565b610ab78383610f43565b50505050565b6001600160a01b0381163314610ae65760405163334bd91960e11b815260040160405180910390fd5b610af08282610fd2565b505050565b60076020525f90815260409020805460018201546002830154600384015460048501546005860154600687018054969795966001600160a01b039586169694861695909316939192610b469061140c565b80601f0160208091040260200160405190810160405280929190818152602001828054610b729061140c565b8015610bbd5780601f10610b9457610100808354040283529160200191610bbd565b820191905f5260205f20905b815481529060010190602001808311610ba057829003601f168201915b505050600784015460088501546009860154600b870154600c880154600d90980154969760ff9094169692955090935091906001600160a01b03168d565b610c03610d51565b610c0c81610d7b565b61062060018055565b5f51602061156a5f395f51905f52610c2c81610f39565b50600555565b5f51602061156a5f395f51905f52610c4981610f39565b6001600160a01b038216610c705760405163e6c4247b60e01b815260040160405180910390fd5b600380546001600160a01b0319166001600160a01b038416179055610af07f0ea61da3a8a09ad801432653699f8c1860b1ae9d2ea4a141fadfd63227717bc883610f43565b5f918252602082815260408084206001600160a01b0393909316845291905290205460ff1690565b5f51602061156a5f395f51905f52610cf481610f39565b811580610d095750610d0760028361154a565b155b15610d275760405163a20376cf60e01b815260040160405180910390fd5b50600455565b5f82815260208190526040902060010154610d4781610f39565b610ab78383610fd2565b600260015403610d7457604051633ee5aeb560e01b815260040160405180910390fd5b6002600155565b5f8181526007602052604090206001600782015460ff166002811115610da357610da3611294565b14610dc15760405163f3b76cbf60e01b815260040160405180910390fd5b6009810154600a820154600c830154600b8401544293909311925f9291610de7916113bf565b14905081158015610df6575080155b15610e14576040516368cd2a8560e01b815260040160405180910390fd5b60078301805460ff19166002179055600c830154600b8401545f911015610e49575060038301546001600160a01b0316610e7d565b83600b015484600c01541115610e6d575060048301546001600160a01b0316610e7d565b5060038301546001600160a01b03165b600d840180546001600160a01b0319166001600160a01b038381169182179092556003546001870154604051630e33599d60e01b81526004810191909152602481019290925290911690630e33599d906044015f604051808303815f87803b158015610ee7575f5ffd5b505af1158015610ef9573d5f5f3e3d5ffd5b50506040516001600160a01b03841692508791507ff77ceb5e091d2da041bc760667f9d5fe7a756949eaf29250ad0e60ca6f4c27d9905f90a35050505050565b610620813361103b565b5f610f4e8383610cb5565b610fcb575f838152602081815260408083206001600160a01b03861684529091529020805460ff19166001179055610f833390565b6001600160a01b0316826001600160a01b0316847f2f8788117e7eff1d82e926ec794901d17c78024a50270940304540a733656f0d60405160405180910390a45060016103ad565b505f6103ad565b5f610fdd8383610cb5565b15610fcb575f838152602081815260408083206001600160a01b0386168085529252808320805460ff1916905551339286917ff6391f5c32d9c69d2a47ea670b442974b53935d1edc7fd64eb21e047a839171b9190a45060016103ad565b6110458282610cb5565b61082e5760405163e2517d3f60e01b81526001600160a01b03821660048201526024810183905260440160405180910390fd5b828054828255905f5260205f209081019282156110cb579160200282015b828111156110cb57825182546001600160a01b0319166001600160a01b03909116178255602090920191600190910190611096565b506110d79291506110db565b5090565b5b808211156110d7575f81556001016110dc565b5f602082840312156110ff575f5ffd5b81356001600160e01b031981168114611116575f5ffd5b9392505050565b5f6020828403121561112d575f5ffd5b5035919050565b8015158114610620575f5ffd5b5f5f60408385031215611152575f5ffd5b82359150602083013561116481611134565b809150509250929050565b80356001600160a01b0381168114611185575f5ffd5b919050565b5f5f5f5f5f5f5f60c0888a0312156111a0575f5ffd5b873596506111b06020890161116f565b95506111be6040890161116f565b94506111cc6060890161116f565b93506080880135925060a088013567ffffffffffffffff8111156111ee575f5ffd5b8801601f81018a136111fe575f5ffd5b803567ffffffffffffffff811115611214575f5ffd5b8a6020828401011115611225575f5ffd5b602082019350809250505092959891949750929550565b5f5f6040838503121561124d575f5ffd5b8235915061125d6020840161116f565b90509250929050565b5f81518084528060208401602086015e5f602082860101526020601f19601f83011685010191505092915050565b634e487b7160e01b5f52602160045260245ffd5b600381106112c457634e487b7160e01b5f52602160045260245ffd5b9052565b8d8152602081018d90526001600160a01b038c811660408301528b811660608301528a16608082015260a081018990526101a060c082018190525f906113109083018a611266565b905061131f60e08301896112a8565b866101008301528561012083015284610140830152836101608301526113516101808301846001600160a01b03169052565b9e9d5050505050505050505050505050565b5f60208284031215611373575f5ffd5b6111168261116f565b5f6020828403121561138c575f5ffd5b815161111681611134565b634e487b7160e01b5f52603260045260245ffd5b634e487b7160e01b5f52601160045260245ffd5b808201808211156103ad576103ad6113ab565b602081016103ad82846112a8565b5f600182016113f1576113f16113ab565b5060010190565b634e487b7160e01b5f52604160045260245ffd5b600181811c9082168061142057607f821691505b60208210810361143e57634e487b7160e01b5f52602260045260245ffd5b50919050565b601f821115610af057805f5260205f20601f840160051c810160208510156114695750805b601f840160051c820191505b81811015611488575f8155600101611475565b5050505050565b815167ffffffffffffffff8111156114a9576114a96113f8565b6114bd816114b7845461140c565b84611444565b6020601f8211600181146114ef575f83156114d85750848201515b5f19600385901b1c1916600184901b178455611488565b5f84815260208120601f198516915b8281101561151e57878501518255602094850194600190920191016114fe565b508482101561153b57868401515f19600387901b60f8161c191681555b50505050600190811b01905550565b5f8261156457634e487b7160e01b5f52601260045260245ffd5b50069056fea49807205ce4d355092ef5a8a18f56e8913cf4a201fbe287825b095693c21775a264697066735822122062e5918ef61cbedd70a5b2cc3ad36e17b8fee12c1e526f1ee18acea15aa0edc064736f6c634300081b0033",
  "linkReferences": {},
  "deployedLinkReferences": {}
}