{
  "_format": "hh-sol-artifact-1",
  "contractName": "DeMarketToken",
  "sourceName": "contracts/tokens/DeMarketToken.sol",
  "abi": [
    {
      "inputs": [
        {
          "internalType": "address",
          "name": "defaultAdmin",
          "type": "address"
        }
      ],
      "stateMutability": "nonpayable",
      "type": "constructor"
    },
    {
      "inputs": [],
      "name": "AccessControlBadConfirmation",
      "type": "error"
    },
    {
      "inputs": [
        {
          "internalType": "address",
          "name": "account",
          "type": "address"
        },
        {
          "internalType": "bytes32",
          "name": "neededRole",
          "type": "bytes32"
        }
      ],
      "name": "AccessControlUnauthorizedAccount",
      "type": "error"
    },
    {
      "inputs": [],
      "name": "CheckpointUnorderedInsertion",
      "type": "error"
    },
    {
      "inputs": [],
      "name": "ECDSAInvalidSignature",
      "type": "error"
    },
    {
      "inputs": [
        {
          "internalType": "uint256",
          "name": "length",
          "type": "uint256"
        }
      ],
      "name": "ECDSAInvalidSignatureLength",
      "type": "error"
    },
    {
      "inputs": [
        {
          "internalType": "bytes32",
          "name": "s",
          "type": "bytes32"
        }
      ],
      "name": "ECDSAInvalidSignatureS",
      "type": "error"
    },
    {
      "inputs": [
        {
          "internalType": "uint256",
          "name": "increasedSupply",
          "type": "uint256"
        },
        {
          "internalType": "uint256",
          "name": "cap",
          "type": "uint256"
        }
      ],
      "name": "ERC20ExceededSafeSupply",
      "type": "error"
    },
    {
      "inputs": [
        {
          "internalType": "address",
          "name": "spender",
          "type": "address"
        },
        {
          "internalType": "uint256",
          "name": "allowance",
          "type": "uint256"
        },
        {
          "internalType": "uint256",
          "name": "needed",
          "type": "uint256"
        }
      ],
      "name": "ERC20InsufficientAllowance",
      "type": "error"
    },
    {
      "inputs": [
        {
          "internalType": "address",
          "name": "sender",
          "type": "address"
        },
        {
          "internalType": "uint256",
          "name": "balance",
          "type": "uint256"
        },
        {
          "internalType": "uint256",
          "name": "needed",
          "type": "uint256"
        }
      ],
      "name": "ERC20InsufficientBalance",
      "type": "error"
    },
    {
      "inputs": [
        {
          "internalType": "address",
          "name": "approver",
          "type": "address"
        }
      ],
      "name": "ERC20InvalidApprover",
      "type": "error"
    },
    {
      "inputs": [
        {
          "internalType": "address",
          "name": "receiver",
          "type": "address"
        }
      ],
      "name": "ERC20InvalidReceiver",
      "type": "error"
    },
    {
      "inputs": [
        {
          "internalType": "address",
          "name": "sender",
          "type": "address"
        }
      ],
      "name": "ERC20InvalidSender",
      "type": "error"
    },
    {
      "inputs": [
        {
          "internalType": "address",
          "name": "spender",
          "type": "address"
        }
      ],
      "name": "ERC20InvalidSpender",
      "type": "error"
    },
    {
      "inputs": [
        {
          "internalType": "uint256",
          "name": "deadline",
          "type": "uint256"
        }
      ],
      "name": "ERC2612ExpiredSignature",
      "type": "error"
    },
    {
      "inputs": [
        {
          "internalType": "address",
          "name": "signer",
          "type": "address"
        },
        {
          "internalType": "address",
          "name": "owner",
          "type": "address"
        }
      ],
      "name": "ERC2612InvalidSigner",
      "type": "error"
    },
    {
      "inputs": [
        {
          "internalType": "uint256",
          "name": "timepoint",
          "type": "uint256"
        },
        {
          "internalType": "uint48",
          "name": "clock",
          "type": "uint48"
        }
      ],
      "name": "ERC5805FutureLookup",
      "type": "error"
    },
    {
      "inputs": [],
      "name": "ERC6372InconsistentClock",
      "type": "error"
    },
    {
      "inputs": [
        {
          "internalType": "address",
          "name": "account",
          "type": "address"
        },
        {
          "internalType": "uint256",
          "name": "currentNonce",
          "type": "uint256"
        }
      ],
      "name": "InvalidAccountNonce",
      "type": "error"
    },
    {
      "inputs": [],
      "name": "InvalidShortString",
      "type": "error"
    },
    {
      "inputs": [
        {
          "internalType": "uint8",
          "name": "bits",
          "type": "uint8"
        },
        {
          "internalType": "uint256",
          "name": "value",
          "type": "uint256"
        }
      ],
      "name": "SafeCastOverflowedUintDowncast",
      "type": "error"
    },
    {
      "inputs": [
        {
          "internalType": "string",
          "name": "str",
          "type": "string"
        }
      ],
      "name": "StringTooLong",
      "type": "error"
    },
    {
      "inputs": [
        {
          "internalType": "uint256",
          "name": "expiry",
          "type": "uint256"
        }
      ],
      "name": "VotesExpiredSignature",
      "type": "error"
    },
    {
      "anonymous": false,
      "inputs": [
        {
          "indexed": true,
          "internalType": "address",
          "name": "owner",
          "type": "address"
        },
        {
          "indexed": true,
          "internalType": "address",
          "name": "spender",
          "type": "address"
        },
        {
          "indexed": false,
          "internalType": "uint256",
          "name": "value",
          "type": "uint256"
        }
      ],
      "name": "Approval",
      "type": "event"
    },
    {
      "anonymous": false,
      "inputs": [
        {
          "indexed": true,
          "internalType": "address",
          "name": "delegator",
          "type": "address"
        },
        {
          "indexed": true,
          "internalType": "address",
          "name": "fromDelegate",
          "type": "address"
        },
        {
          "indexed": true,
          "internalType": "address",
          "name": "toDelegate",
          "type": "address"
        }
      ],
      "name": "DelegateChanged",
      "type": "event"
    },
    {
      "anonymous": false,
      "inputs": [
        {
          "indexed": true,
          "internalType": "address",
          "name": "delegate",
          "type": "address"
        },
        {
          "indexed": false,
          "internalType": "uint256",
          "name": "previousVotes",
          "type": "uint256"
        },
        {
          "indexed": false,
          "internalType": "uint256",
          "name": "newVotes",
          "type": "uint256"
        }
      ],
      "name": "DelegateVotesChanged",
      "type": "event"
    },
    {
      "anonymous": false,
      "inputs": [],
      "name": "EIP712DomainChanged",
      "type": "event"
    },
    {
      "anonymous": false,
      "inputs": [
        {
          "indexed": true,
          "internalType": "bytes32",
          "name": "role",
          "type": "bytes32"
        },
        {
          "indexed": true,
          "internalType": "bytes32",
          "name": "previousAdminRole",
          "type": "bytes32"
        },
        {
          "indexed": true,
          "internalType": "bytes32",
          "name": "newAdminRole",
          "type": "bytes32"
        }
      ],
      "name": "RoleAdminChanged",
      "type": "event"
    },
    {
      "anonymous": false,
      "inputs": [
        {
          "indexed": true,
          "internalType": "bytes32",
          "name": "role",
          "type": "bytes32"
        },
        {
          "indexed": true,
          "internalType": "address",
          "name": "account",
          "type": "address"
        },
        {
          "indexed": true,
          "internalType": "address",
          "name": "sender",
          "type": "address"
        }
      ],
      "name": "RoleGranted",
      "type": "event"
    },
    {
      "anonymous": false,
      "inputs": [
        {
          "indexed": true,
          "internalType": "bytes32",
          "name": "role",
          "type": "bytes32"
        },
        {
          "indexed": true,
          "internalType": "address",
          "name": "account",
          "type": "address"
        },
        {
          "indexed": true,
          "internalType": "address",
          "name": "sender",
          "type": "address"
        }
      ],
      "name": "RoleRevoked",
      "type": "event"
    },
    {
      "anonymous": false,
      "inputs": [
        {
          "indexed": true,
          "internalType": "address",
          "name": "from",
          "type": "address"
        },
        {
          "indexed": true,
          "internalType": "address",
          "name": "to",
          "type": "address"
        },
        {
          "indexed": false,
          "internalType": "uint256",
          "name": "value",
          "type": "uint256"
        }
      ],
      "name": "Transfer",
      "type": "event"
    },
    {
      "inputs": [],
      "name": "CLOCK_MODE",
      "outputs": [
        {
          "internalType": "string",
          "name": "",
          "type": "string"
        }
      ],
      "stateMutability": "view",
      "type": "function"
    },
    {
      "inputs": [],
      "name": "DEFAULT_ADMIN_ROLE",
      "outputs": [
        {
          "internalType": "bytes32",
          "name": "",
          "type": "bytes32"
        }
      ],
      "stateMutability": "view",
      "type": "function"
    },
    {
      "inputs": [],
      "name": "DOMAIN_SEPARATOR",
      "outputs": [
        {
          "internalType": "bytes32",
          "name": "",
          "type": "bytes32"
        }
      ],
      "stateMutability": "view",
      "type": "function"
    },
    {
      "inputs": [],
      "name": "MINTER_ROLE",
      "outputs": [
        {
          "internalType": "bytes32",
          "name": "",
          "type": "bytes32"
        }
      ],
      "stateMutability": "view",
      "type": "function"
    },
    {
      "inputs": [
        {
          "internalType": "address",
          "name": "owner",
          "type": "address"
        },
        {
          "internalType": "address",
          "name": "spender",
          "type": "address"
        }
      ],
      "name": "allowance",
      "outputs": [
        {
          "internalType": "uint256",
          "name": "",
          "type": "uint256"
        }
      ],
      "stateMutability": "view",
      "type": "function"
    },
    {
      "inputs": [
        {
          "internalType": "address",
          "name": "spender",
          "type": "address"
        },
        {
          "internalType": "uint256",
          "name": "value",
          "type": "uint256"
        }
      ],
      "name": "approve",
      "outputs": [
        {
          "internalType": "bool",
          "name": "",
          "type": "bool"
        }
      ],
      "stateMutability": "nonpayable",
      "type": "function"
    },
    {
      "inputs": [
        {
          "internalType": "address",
          "name": "account",
          "type": "address"
        }
      ],
      "name": "balanceOf",
      "outputs": [
        {
          "internalType": "uint256",
          "name": "",
          "type": "uint256"
        }
      ],
      "stateMutability": "view",
      "type": "function"
    },
    {
      "inputs": [
        {
          "internalType": "uint256",
          "name": "value",
          "type": "uint256"
        }
      ],
      "name": "burn",
      "outputs": [],
      "stateMutability": "nonpayable",
      "type": "function"
    },
    {
      "inputs": [
        {
          "internalType": "address",
          "name": "account",
          "type": "address"
        },
        {
          "internalType": "uint256",
          "name": "value",
          "type": "uint256"
        }
      ],
      "name": "burnFrom",
      "outputs": [],
      "stateMutability": "nonpayable",
      "type": "function"
    },
    {
      "inputs": [
        {
          "internalType": "address",
          "name": "account",
          "type": "address"
        },
        {
          "internalType": "uint32",
          "name": "pos",
          "type": "uint32"
        }
      ],
      "name": "checkpoints",
      "outputs": [
        {
          "components": [
            {
              "internalType": "uint48",
              "name": "_key",
              "type": "uint48"
            },
            {
              "internalType": "uint208",
              "name": "_value",
              "type": "uint208"
            }
          ],
          "internalType": "struct Checkpoints.Checkpoint208",
          "name": "",
          "type": "tuple"
        }
      ],
      "stateMutability": "view",
      "type": "function"
    },
    {
      "inputs": [],
      "name": "clock",
      "outputs": [
        {
          "internalType": "uint48",
          "name": "",
          "type": "uint48"
        }
      ],
      "stateMutability": "view",
      "type": "function"
    },
    {
      "inputs": [],
      "name": "decimals",
      "outputs": [
        {
          "internalType": "uint8",
          "name": "",
          "type": "uint8"
        }
      ],
      "stateMutability": "view",
      "type": "function"
    },
    {
      "inputs": [
        {
          "internalType": "address",
          "name": "delegatee",
          "type": "address"
        }
      ],
      "name": "delegate",
      "outputs": [],
      "stateMutability": "nonpayable",
      "type": "function"
    },
    {
      "inputs": [
        {
          "internalType": "address",
          "name": "delegatee",
          "type": "address"
        },
        {
          "internalType": "uint256",
          "name": "nonce",
          "type": "uint256"
        },
        {
          "internalType": "uint256",
          "name": "expiry",
          "type": "uint256"
        },
        {
          "internalType": "uint8",
          "name": "v",
          "type": "uint8"
        },
        {
          "internalType": "bytes32",
          "name": "r",
          "type": "bytes32"
        },
        {
          "internalType": "bytes32",
          "name": "s",
          "type": "bytes32"
        }
      ],
      "name": "delegateBySig",
      "outputs": [],
      "stateMutability": "nonpayable",
      "type": "function"
    },
    {
      "inputs": [
        {
          "internalType": "address",
          "name": "account",
          "type": "address"
        }
      ],
      "name": "delegates",
      "outputs": [
        {
          "internalType": "address",
          "name": "",
          "type": "address"
        }
      ],
      "stateMutability": "view",
      "type": "function"
    },
    {
      "inputs": [],
      "name": "eip712Domain",
      "outputs": [
        {
          "internalType": "bytes1",
          "name": "fields",
          "type": "bytes1"
        },
        {
          "internalType": "string",
          "name": "name",
          "type": "string"
        },
        {
          "internalType": "string",
          "name": "version",
          "type": "string"
        },
        {
          "internalType": "uint256",
          "name": "chainId",
          "type": "uint256"
        },
        {
          "internalType": "address",
          "name": "verifyingContract",
          "type": "address"
        },
        {
          "internalType": "bytes32",
          "name": "salt",
          "type": "bytes32"
        },
        {
          "internalType": "uint256[]",
          "name": "extensions",
          "type": "uint256[]"
        }
      ],
      "stateMutability": "view",
      "type": "function"
    },
    {
      "inputs": [
        {
          "internalType": "uint256",
          "name": "timepoint",
          "type": "uint256"
        }
      ],
      "name": "getPastTotalSupply",
      "outputs": [
        {
          "internalType": "uint256",
          "name": "",
          "type": "uint256"
        }
      ],
      "stateMutability": "view",
      "type": "function"
    },
    {
      "inputs": [
        {
          "internalType": "address",
          "name": "account",
          "type": "address"
        },
        {
          "internalType": "uint256",
          "name": "timepoint",
          "type": "uint256"
        }
      ],
      "name": "getPastVotes",
      "outputs": [
        {
          "internalType": "uint256",
          "name": "",
          "type": "uint256"
        }
      ],
      "stateMutability": "view",
      "type": "function"
    },
    {
      "inputs": [
        {
          "internalType": "bytes32",
          "name": "role",
          "type": "bytes32"
        }
      ],
      "name": "getRoleAdmin",
      "outputs": [
        {
          "internalType": "bytes32",
          "name": "",
          "type": "bytes32"
        }
      ],
      "stateMutability": "view",
      "type": "function"
    },
    {
      "inputs": [
        {
          "internalType": "address",
          "name": "account",
          "type": "address"
        }
      ],
      "name": "getVotes",
      "outputs": [
        {
          "internalType": "uint256",
          "name": "",
          "type": "uint256"
        }
      ],
      "stateMutability": "view",
      "type": "function"
    },
    {
      "inputs": [
        {
          "internalType": "bytes32",
          "name": "role",
          "type": "bytes32"
        },
        {
          "internalType": "address",
          "name": "account",
          "type": "address"
        }
      ],
      "name": "grantRole",
      "outputs": [],
      "stateMutability": "nonpayable",
      "type": "function"
    },
    {
      "inputs": [
        {
          "internalType": "bytes32",
          "name": "role",
          "type": "bytes32"
        },
        {
          "internalType": "address",
          "name": "account",
          "type": "address"
        }
      ],
      "name": "hasRole",
      "outputs": [
        {
          "internalType": "bool",
          "name": "",
          "type": "bool"
        }
      ],
      "stateMutability": "view",
      "type": "function"
    },
    {
      "inputs": [
        {
          "internalType": "address",
          "name": "to",
          "type": "address"
        },
        {
          "internalType": "uint256",
          "name": "amount",
          "type": "uint256"
        }
      ],
      "name": "mint",
      "outputs": [],
      "stateMutability": "nonpayable",
      "type": "function"
    },
    {
      "inputs": [],
      "name": "name",
      "outputs": [
        {
          "internalType": "string",
          "name": "",
          "type": "string"
        }
      ],
      "stateMutability": "view",
      "type": "function"
    },
    {
      "inputs": [
        {
          "internalType": "address",
          "name": "owner",
          "type": "address"
        }
      ],
      "name": "nonces",
      "outputs": [
        {
          "internalType": "uint256",
          "name": "",
          "type": "uint256"
        }
      ],
      "stateMutability": "view",
      "type": "function"
    },
    {
      "inputs": [
        {
          "internalType": "address",
          "name": "account",
          "type": "address"
        }
      ],
      "name": "numCheckpoints",
      "outputs": [
        {
          "internalType": "uint32",
          "name": "",
          "type": "uint32"
        }
      ],
      "stateMutability": "view",
      "type": "function"
    },
    {
      "inputs": [
        {
          "internalType": "address",
          "name": "owner",
          "type": "address"
        },
        {
          "internalType": "address",
          "name": "spender",
          "type": "address"
        },
        {
          "internalType": "uint256",
          "name": "value",
          "type": "uint256"
        },
        {
          "internalType": "uint256",
          "name": "deadline",
          "type": "uint256"
        },
        {
          "internalType": "uint8",
          "name": "v",
          "type": "uint8"
        },
        {
          "internalType": "bytes32",
          "name": "r",
          "type": "bytes32"
        },
        {
          "internalType": "bytes32",
          "name": "s",
          "type": "bytes32"
        }
      ],
      "name": "permit",
      "outputs": [],
      "stateMutability": "nonpayable",
      "type": "function"
    },
    {
      "inputs": [
        {
          "internalType": "bytes32",
          "name": "role",
          "type": "bytes32"
        },
        {
          "internalType": "address",
          "name": "callerConfirmation",
          "type": "address"
        }
      ],
      "name": "renounceRole",
      "outputs": [],
      "stateMutability": "nonpayable",
      "type": "function"
    },
    {
      "inputs": [
        {
          "internalType": "bytes32",
          "name": "role",
          "type": "bytes32"
        },
        {
          "internalType": "address",
          "name": "account",
          "type": "address"
        }
      ],
      "name": "revokeRole",
      "outputs": [],
      "stateMutability": "nonpayable",
      "type": "function"
    },
    {
      "inputs": [
        {
          "internalType": "bytes4",
          "name": "interfaceId",
          "type": "bytes4"
        }
      ],
      "name": "supportsInterface",
      "outputs": [
        {
          "internalType": "bool",
          "name": "",
          "type": "bool"
        }
      ],
      "stateMutability": "view",
      "type": "function"
    },
    {
      "inputs": [],
      "name": "symbol",
      "outputs": [
        {
          "internalType": "string",
          "name": "",
          "type": "string"
        }
      ],
      "stateMutability": "view",
      "type": "function"
    },
    {
      "inputs": [],
      "name": "totalSupply",
      "outputs": [
        {
          "internalType": "uint256",
          "name": "",
          "type": "uint256"
        }
      ],
      "stateMutability": "view",
      "type": "function"
    },
    {
      "inputs": [
        {
          "internalType": "address",
          "name": "to",
          "type": "address"
        },
        {
          "internalType": "uint256",
          "name": "value",
          "type": "uint256"
        }
      ],
      "name": "transfer",
      "outputs": [
        {
          "internalType": "bool",
          "name": "",
          "type": "bool"
        }
      ],
      "stateMutability": "nonpayable",
      "type": "function"
    },
    {
      "inputs": [
        {
          "internalType": "address",
          "name": "from",
          "type": "address"
        },
        {
          "internalType": "address",
          "name": "to",
          "type": "address"
        },
        {
          "internalType": "uint256",
          "name": "value",
          "type": "uint256"
        }
      ],
      "name": "transferFrom",
      "outputs": [
        {
          "internalType": "bool",
          "name": "",
          "type": "bool"
        }
      ],
      "stateMutability": "nonpayable",
      "type": "function"
    }
  ],
  "bytecode": "0x610160604052348015610010575f5ffd5b50604051612e76380380612e7683398101604081905261002f91610932565b6040518060400160405280600e81526020016d2232a6b0b935b2ba102a37b5b2b760911b81525080604051806040016040528060018152602001603160f81b8152506040518060400160405280600e81526020016d2232a6b0b935b2ba102a37b5b2b760911b8152506040518060400160405280600381526020016211135560ea1b81525081600390816100c391906109ef565b5060046100d082826109ef565b506100e0915083905060066101e4565b610120526100ef8160076101e4565b61014052815160208084019190912060e052815190820120610100524660a05261017b60e05161010051604080517f8b73c3c69bb8fe3d512ecc4cf759cc79239f7b179b0ffacaa9a75d522b39400f60208201529081019290925260608201524660808201523060a08201525f9060c00160405160208183030381529060405280519060200120905090565b60805250503060c0525061018f5f82610216565b506101ba7f9f2df0fed2c77648de5860a4cc508cd0818c85b8b8a1ab4ceeef8d981c8956a682610216565b506101de816101cb6012600a610b98565b6101d9906305f5e100610ba6565b6102c1565b50610c79565b5f6020835110156101ff576101f8836102fe565b9050610210565b8161020a84826109ef565b5060ff90505b92915050565b5f8281526005602090815260408083206001600160a01b038516845290915281205460ff166102ba575f8381526005602090815260408083206001600160a01b03861684529091529020805460ff191660011790556102723390565b6001600160a01b0316826001600160a01b0316847f2f8788117e7eff1d82e926ec794901d17c78024a50270940304540a733656f0d60405160405180910390a4506001610210565b505f610210565b6001600160a01b0382166102ef5760405163ec442f0560e01b81525f60048201526024015b60405180910390fd5b6102fa5f838361033b565b5050565b5f5f829050601f81511115610328578260405163305a27a960e01b81526004016102e69190610bbd565b805161033382610bf2565b179392505050565b61034683838361034b565b505050565b6103568383836103b1565b6001600160a01b0383166103a6575f61036e60025490565b90506001600160d01b03808211156103a357604051630e58ae9360e11b815260048101839052602481018290526044016102e6565b50505b6103468383836104d7565b6001600160a01b0383166103db578060025f8282546103d09190610c15565b9091555061044b9050565b6001600160a01b0383165f908152602081905260409020548181101561042d5760405163391434e360e21b81526001600160a01b038516600482015260248101829052604481018390526064016102e6565b6001600160a01b0384165f9081526020819052604090209082900390555b6001600160a01b03821661046757600280548290039055610485565b6001600160a01b0382165f9081526020819052604090208054820190555b816001600160a01b0316836001600160a01b03167fddf252ad1be2c89b69c2b068fc378daa952ba7f163c4a11628f55a4df523b3ef836040516104ca91815260200190565b60405180910390a3505050565b6001600160a01b03831661050557610502600b610aff61055f60201b176104fd84610571565b6105a8565b50505b6001600160a01b03821661052e5761052b600b610b0a6105dd60201b176104fd84610571565b50505b6001600160a01b038381165f90815260096020526040808220548584168352912054610346929182169116836105e8565b5f61056a8284610c28565b9392505050565b5f6001600160d01b038211156105a4576040516306dfcc6560e41b815260d06004820152602481018390526044016102e6565b5090565b5f806105d06105b5610738565b6105c86105c188610746565b868860201c565b87919061078d565b915091505b935093915050565b5f61056a8284610c47565b816001600160a01b0316836001600160a01b03161415801561060957505f81115b15610346576001600160a01b038316156106a1576001600160a01b0383165f908152600a602090815260408220829161064f91906105dd901b610b0a176104fd86610571565b6001600160d01b031691506001600160d01b03169150846001600160a01b03165f516020612e565f395f51905f528383604051610696929190918252602082015260400190565b60405180910390a250505b6001600160a01b03821615610346576001600160a01b0382165f908152600a60209081526040822082916106e2919061055f901b610aff176104fd86610571565b6001600160d01b031691506001600160d01b03169150836001600160a01b03165f516020612e565f395f51905f528383604051610729929190918252602082015260400190565b60405180910390a25050505050565b5f61074161079a565b905090565b80545f9080156107855761076c8361075f600184610c66565b5f91825260209091200190565b54660100000000000090046001600160d01b031661056a565b5f9392505050565b5f806105d08585856107a4565b5f61074143610900565b82545f90819080156108a3575f6107c08761075f600185610c66565b805490915065ffffffffffff80821691660100000000000090046001600160d01b031690881682111561080657604051632520601d60e01b815260040160405180910390fd5b8765ffffffffffff168265ffffffffffff160361084257825465ffffffffffff1666010000000000006001600160d01b03891602178355610895565b6040805180820190915265ffffffffffff808a1682526001600160d01b03808a1660208085019182528d54600181018f555f8f815291909120945191519092166601000000000000029216919091179101555b94508593506105d592505050565b50506040805180820190915265ffffffffffff80851682526001600160d01b0380851660208085019182528854600181018a555f8a81529182209551925190931666010000000000000291909316179201919091559050816105d5565b5f65ffffffffffff8211156105a4576040516306dfcc6560e41b815260306004820152602481018390526044016102e6565b5f60208284031215610942575f5ffd5b81516001600160a01b038116811461056a575f5ffd5b634e487b7160e01b5f52604160045260245ffd5b600181811c9082168061098057607f821691505b60208210810361099e57634e487b7160e01b5f52602260045260245ffd5b50919050565b601f82111561034657805f5260205f20601f840160051c810160208510156109c95750805b601f840160051c820191505b818110156109e8575f81556001016109d5565b5050505050565b81516001600160401b03811115610a0857610a08610958565b610a1c81610a16845461096c565b846109a4565b6020601f821160018114610a4e575f8315610a375750848201515b5f19600385901b1c1916600184901b1784556109e8565b5f84815260208120601f198516915b82811015610a7d5787850151825560209485019460019092019101610a5d565b5084821015610a9a57868401515f19600387901b60f8161c191681555b50505050600190811b01905550565b634e487b7160e01b5f52601160045260245ffd5b6001815b60018411156105d557808504811115610adc57610adc610aa9565b6001841615610aea57908102905b60019390931c928002610ac1565b5f82610b0657506001610210565b81610b1257505f610210565b8160018114610b285760028114610b3257610b4e565b6001915050610210565b60ff841115610b4357610b43610aa9565b50506001821b610210565b5060208310610133831016604e8410600b8410161715610b71575081810a610210565b610b7d5f198484610abd565b805f1904821115610b9057610b90610aa9565b029392505050565b5f61056a60ff841683610af8565b808202811582820484141761021057610210610aa9565b602081525f82518060208401528060208501604085015e5f604082850101526040601f19601f83011684010191505092915050565b8051602080830151919081101561099e575f1960209190910360031b1b16919050565b8082018082111561021057610210610aa9565b6001600160d01b03818116838216019081111561021057610210610aa9565b6001600160d01b03828116828216039081111561021057610210610aa9565b8181038181111561021057610210610aa9565b60805160a05160c05160e05161010051610120516101405161218c610cca5f395f61107701525f61104a01525f610d6901525f610d4101525f610c9c01525f610cc601525f610cf0015261218c5ff3fe608060405234801561000f575f5ffd5b50600436106101fd575f3560e01c806370a08231116101145780639ab24eb0116100a9578063d505accf11610079578063d505accf1461048c578063d53913931461049f578063d547741f146104c6578063dd62ed3e146104d9578063f1127ed814610511575f5ffd5b80639ab24eb01461044c578063a217fddf1461045f578063a9059cbb14610466578063c3cda52014610479575f5ffd5b80638e539e8c116100e45780638e539e8c146103ff57806391d148541461041257806391ddadf41461042557806395d89b4114610444575f5ffd5b806370a082311461039657806379cc6790146103be5780637ecebe00146103d157806384b0196e146103e4575f5ffd5b80633644e5151161019557806342966c681161016557806342966c68146102fd5780634bf5d7e914610310578063587cde1e146103185780635c19a95c1461035b5780636fcfff451461036e575f5ffd5b80633644e515146102bc57806336568abe146102c45780633a46b1a8146102d757806340c10f19146102ea575f5ffd5b806323b872dd116101d057806323b872dd14610263578063248a9ca3146102765780632f2ff15d14610298578063313ce567146102ad575f5ffd5b806301ffc9a71461020157806306fdde0314610229578063095ea7b31461023e57806318160ddd14610251575b5f5ffd5b61021461020f366004611d48565b610550565b60405190151581526020015b60405180910390f35b610231610586565b6040516102209190611d9d565b61021461024c366004611dca565b610616565b6002545b604051908152602001610220565b610214610271366004611df2565b61062d565b610255610284366004611e2c565b5f9081526005602052604090206001015490565b6102ab6102a6366004611e43565b610650565b005b60405160128152602001610220565b61025561067a565b6102ab6102d2366004611e43565b610688565b6102556102e5366004611dca565b6106c0565b6102ab6102f8366004611dca565b6106fa565b6102ab61030b366004611e2c565b61072e565b61023161073b565b610343610326366004611e6d565b6001600160a01b039081165f908152600960205260409020541690565b6040516001600160a01b039091168152602001610220565b6102ab610369366004611e6d565b6107b3565b61038161037c366004611e6d565b6107c2565b60405163ffffffff9091168152602001610220565b6102556103a4366004611e6d565b6001600160a01b03165f9081526020819052604090205490565b6102ab6103cc366004611dca565b6107cc565b6102556103df366004611e6d565b6107e1565b6103ec6107eb565b6040516102209796959493929190611e86565b61025561040d366004611e2c565b61082d565b610214610420366004611e43565b610851565b61042d61087b565b60405165ffffffffffff9091168152602001610220565b610231610884565b61025561045a366004611e6d565b610893565b6102555f81565b610214610474366004611dca565b6108b3565b6102ab610487366004611f2c565b6108c0565b6102ab61049a366004611f80565b610981565b6102557f9f2df0fed2c77648de5860a4cc508cd0818c85b8b8a1ab4ceeef8d981c8956a681565b6102ab6104d4366004611e43565b610ab7565b6102556104e7366004611fe6565b6001600160a01b039182165f90815260016020908152604080832093909416825291909152205490565b61052461051f36600461200e565b610adb565b60408051825165ffffffffffff1681526020928301516001600160d01b03169281019290925201610220565b5f6001600160e01b03198216637965db0b60e01b148061058057506301ffc9a760e01b6001600160e01b03198316145b92915050565b6060600380546105959061204b565b80601f01602080910402602001604051908101604052809291908181526020018280546105c19061204b565b801561060c5780601f106105e35761010080835404028352916020019161060c565b820191905f5260205f20905b8154815290600101906020018083116105ef57829003601f168201915b5050505050905090565b5f33610623818585610b15565b5060019392505050565b5f3361063a858285610b22565b610645858585610b98565b506001949350505050565b5f8281526005602052604090206001015461066a81610bf5565b6106748383610bff565b50505050565b5f610683610c90565b905090565b6001600160a01b03811633146106b15760405163334bd91960e11b815260040160405180910390fd5b6106bb8282610db9565b505050565b5f6106ea6106cd83610e24565b6001600160a01b0385165f908152600a6020526040902090610e72565b6001600160d01b03169392505050565b7f9f2df0fed2c77648de5860a4cc508cd0818c85b8b8a1ab4ceeef8d981c8956a661072481610bf5565b6106bb8383610f22565b6107383382610f56565b50565b6060610745610f8a565b65ffffffffffff1661075561087b565b65ffffffffffff161461077b576040516301bfc1c560e61b815260040160405180910390fd5b5060408051808201909152601d81527f6d6f64653d626c6f636b6e756d6265722666726f6d3d64656661756c74000000602082015290565b336107be8183610f94565b5050565b5f61058082611005565b6107d7823383610b22565b6107be8282610f56565b5f61058082611026565b5f6060805f5f5f60606107fc611043565b610804611070565b604080515f80825260208201909252600f60f81b9b939a50919850469750309650945092509050565b5f61084261083a83610e24565b600b90610e72565b6001600160d01b031692915050565b5f9182526005602090815260408084206001600160a01b0393909316845291905290205460ff1690565b5f610683610f8a565b6060600480546105959061204b565b6001600160a01b0381165f908152600a602052604081206108429061109d565b5f33610623818585610b98565b834211156108e957604051632341d78760e11b8152600481018590526024015b60405180910390fd5b604080517fe48329057bfd03d55e49b547132e39cffd9c1820ad7b9d4c5307691425d15adf60208201526001600160a01b0388169181019190915260608101869052608081018590525f906109629061095a9060a001604051602081830303815290604052805190602001206110d4565b858585611100565b905061096e818761112c565b6109788188610f94565b50505050505050565b834211156109a55760405163313c898160e11b8152600481018590526024016108e0565b5f7f6e71edae12b1b97f4d1f60370fef10105fa2faae0126114a169c64845d6126c98888886109f08c6001600160a01b03165f90815260086020526040902080546001810190915590565b6040805160208101969096526001600160a01b0394851690860152929091166060840152608083015260a082015260c0810186905260e0016040516020818303038152906040528051906020012090505f610a4a826110d4565b90505f610a5982878787611100565b9050896001600160a01b0316816001600160a01b031614610aa0576040516325c0072360e11b81526001600160a01b0380831660048301528b1660248201526044016108e0565b610aab8a8a8a610b15565b50505050505050505050565b5f82815260056020526040902060010154610ad181610bf5565b6106748383610db9565b604080518082019091525f8082526020820152610af8838361117e565b9392505050565b5f610af88284612097565b5f610af882846120b6565b6106bb83838360016111b2565b6001600160a01b038381165f908152600160209081526040808320938616835292905220545f198110156106745781811015610b8a57604051637dc7a0d960e11b81526001600160a01b038416600482015260248101829052604481018390526064016108e0565b61067484848484035f6111b2565b6001600160a01b038316610bc157604051634b637e8f60e11b81525f60048201526024016108e0565b6001600160a01b038216610bea5760405163ec442f0560e01b81525f60048201526024016108e0565b6106bb838383611284565b610738813361128f565b5f610c0a8383610851565b610c89575f8381526005602090815260408083206001600160a01b03861684529091529020805460ff19166001179055610c413390565b6001600160a01b0316826001600160a01b0316847f2f8788117e7eff1d82e926ec794901d17c78024a50270940304540a733656f0d60405160405180910390a4506001610580565b505f610580565b5f306001600160a01b037f000000000000000000000000000000000000000000000000000000000000000016148015610ce857507f000000000000000000000000000000000000000000000000000000000000000046145b15610d1257507f000000000000000000000000000000000000000000000000000000000000000090565b610683604080517f8b73c3c69bb8fe3d512ecc4cf759cc79239f7b179b0ffacaa9a75d522b39400f60208201527f0000000000000000000000000000000000000000000000000000000000000000918101919091527f000000000000000000000000000000000000000000000000000000000000000060608201524660808201523060a08201525f9060c00160405160208183030381529060405280519060200120905090565b5f610dc48383610851565b15610c89575f8381526005602090815260408083206001600160a01b0386168085529252808320805460ff1916905551339286917ff6391f5c32d9c69d2a47ea670b442974b53935d1edc7fd64eb21e047a839171b9190a4506001610580565b5f5f610e2e61087b565b90508065ffffffffffff168310610e6957604051637669fc0f60e11b81526004810184905265ffffffffffff821660248201526044016108e0565b610af8836112c8565b81545f9081816005811115610ece575f610e8b846112fe565b610e9590856120d5565b5f8881526020902090915081015465ffffffffffff9081169087161015610ebe57809150610ecc565b610ec98160016120e8565b92505b505b5f610edb87878585611456565b90508015610f1557610eff87610ef26001846120d5565b5f91825260209091200190565b54600160301b90046001600160d01b0316610f17565b5f5b979650505050505050565b6001600160a01b038216610f4b5760405163ec442f0560e01b81525f60048201526024016108e0565b6107be5f8383611284565b6001600160a01b038216610f7f57604051634b637e8f60e11b81525f60048201526024016108e0565b6107be825f83611284565b5f610683436112c8565b6001600160a01b038281165f8181526009602052604080822080548686166001600160a01b0319821681179092559151919094169392849290917f3134e8a2e6d97e929a7e54011ea5485d7d196dd5f0ba4d4ef95803e8e3fc257f9190a46106bb8183611000866114b5565b6114d2565b6001600160a01b0381165f908152600a60205260408120546105809061163b565b6001600160a01b0381165f90815260086020526040812054610580565b60606106837f0000000000000000000000000000000000000000000000000000000000000000600661166b565b60606106837f0000000000000000000000000000000000000000000000000000000000000000600761166b565b80545f9080156110cc576110b683610ef26001846120d5565b54600160301b90046001600160d01b0316610af8565b5f9392505050565b5f6105806110e0610c90565b8360405161190160f01b8152600281019290925260228201526042902090565b5f5f5f5f61111088888888611714565b92509250925061112082826117dc565b50909695505050505050565b6001600160a01b0382165f9081526008602052604090208054600181019091558181146106bb576040516301d4b62360e61b81526001600160a01b0384166004820152602481018290526044016108e0565b604080518082019091525f80825260208201526001600160a01b0383165f908152600a60205260409020610af89083611894565b6001600160a01b0384166111db5760405163e602df0560e01b81525f60048201526024016108e0565b6001600160a01b03831661120457604051634a1406b160e11b81525f60048201526024016108e0565b6001600160a01b038085165f908152600160209081526040808320938716835292905220829055801561067457826001600160a01b0316846001600160a01b03167f8c5be1e5ebec7d5bd14f71427d1e84f3dd0314c0f7b2291e5b200ac8c7c3b9258460405161127691815260200190565b60405180910390a350505050565b6106bb838383611901565b6112998282610851565b6107be5760405163e2517d3f60e01b81526001600160a01b0382166004820152602481018390526044016108e0565b5f65ffffffffffff8211156112fa576040516306dfcc6560e41b815260306004820152602481018390526044016108e0565b5090565b5f6001821161130b575090565b816001600160801b82106113245760809190911c9060401b5b68010000000000000000821061133f5760409190911c9060201b5b64010000000082106113565760209190911c9060101b5b62010000821061136b5760109190911c9060081b5b610100821061137f5760089190911c9060041b5b601082106113925760049190911c9060021b5b6004821061139e5760011b5b600302600190811c908185816113b6576113b66120fb565b048201901c905060018185816113ce576113ce6120fb565b048201901c905060018185816113e6576113e66120fb565b048201901c905060018185816113fe576113fe6120fb565b048201901c90506001818581611416576114166120fb565b048201901c9050600181858161142e5761142e6120fb565b048201901c905061144d818581611447576114476120fb565b04821190565b90039392505050565b5f5b818310156114ad575f61146b8484611967565b5f8781526020902090915065ffffffffffff86169082015465ffffffffffff161115611499578092506114a7565b6114a48160016120e8565b93505b50611458565b509392505050565b6001600160a01b0381165f90815260208190526040812054610580565b816001600160a01b0316836001600160a01b0316141580156114f357505f81115b156106bb576001600160a01b0383161561159a576001600160a01b0383165f908152600a60205260408120819061153590610b0a61153086611981565b6119b4565b6001600160d01b031691506001600160d01b03169150846001600160a01b03167fdec2bacdd2f05b59de34da9b523dff8be42e5e38e818c82fdb0bae774387a724838360405161158f929190918252602082015260400190565b60405180910390a250505b6001600160a01b038216156106bb576001600160a01b0382165f908152600a6020526040812081906115d290610aff61153086611981565b6001600160d01b031691506001600160d01b03169150836001600160a01b03167fdec2bacdd2f05b59de34da9b523dff8be42e5e38e818c82fdb0bae774387a724838360405161162c929190918252602082015260400190565b60405180910390a25050505050565b5f63ffffffff8211156112fa576040516306dfcc6560e41b815260206004820152602481018390526044016108e0565b606060ff83146116855761167e836119ec565b9050610580565b8180546116919061204b565b80601f01602080910402602001604051908101604052809291908181526020018280546116bd9061204b565b80156117085780601f106116df57610100808354040283529160200191611708565b820191905f5260205f20905b8154815290600101906020018083116116eb57829003601f168201915b50505050509050610580565b5f80807f7fffffffffffffffffffffffffffffff5d576e7357a4501ddfe92f46681b20a084111561174d57505f915060039050826117d2565b604080515f808252602082018084528a905260ff891692820192909252606081018790526080810186905260019060a0016020604051602081039080840390855afa15801561179e573d5f5f3e3d5ffd5b5050604051601f1901519150506001600160a01b0381166117c957505f9250600191508290506117d2565b92505f91508190505b9450945094915050565b5f8260038111156117ef576117ef61210f565b036117f8575050565b600182600381111561180c5761180c61210f565b0361182a5760405163f645eedf60e01b815260040160405180910390fd5b600282600381111561183e5761183e61210f565b0361185f5760405163fce698f760e01b8152600481018290526024016108e0565b60038260038111156118735761187361210f565b036107be576040516335e2f38360e21b8152600481018290526024016108e0565b604080518082019091525f8082526020820152825f018263ffffffff16815481106118c1576118c1612123565b5f9182526020918290206040805180820190915291015465ffffffffffff81168252600160301b90046001600160d01b0316918101919091529392505050565b61190c838383611a29565b6001600160a01b03831661195c575f61192460025490565b90506001600160d01b038082111561195957604051630e58ae9360e11b815260048101839052602481018290526044016108e0565b50505b6106bb838383611b4f565b5f6119756002848418612137565b610af8908484166120e8565b5f6001600160d01b038211156112fa576040516306dfcc6560e41b815260d06004820152602481018390526044016108e0565b5f5f6119df6119c161087b565b6119d76119cd8861109d565b868863ffffffff16565b879190611bc4565b915091505b935093915050565b60605f6119f883611bd1565b6040805160208082528183019092529192505f91906020820181803683375050509182525060208101929092525090565b6001600160a01b038316611a53578060025f828254611a4891906120e8565b90915550611ac39050565b6001600160a01b0383165f9081526020819052604090205481811015611aa55760405163391434e360e21b81526001600160a01b038516600482015260248101829052604481018390526064016108e0565b6001600160a01b0384165f9081526020819052604090209082900390555b6001600160a01b038216611adf57600280548290039055611afd565b6001600160a01b0382165f9081526020819052604090208054820190555b816001600160a01b0316836001600160a01b03167fddf252ad1be2c89b69c2b068fc378daa952ba7f163c4a11628f55a4df523b3ef83604051611b4291815260200190565b60405180910390a3505050565b6001600160a01b038316611b7157611b6e600b610aff61153084611981565b50505b6001600160a01b038216611b9357611b90600b610b0a61153084611981565b50505b6001600160a01b038381165f908152600960205260408082205485841683529120546106bb929182169116836114d2565b5f806119df858585611bf8565b5f60ff8216601f81111561058057604051632cd44ac360e21b815260040160405180910390fd5b82545f9081908015611cee575f611c1487610ef26001856120d5565b805490915065ffffffffffff80821691600160301b90046001600160d01b0316908816821115611c5757604051632520601d60e01b815260040160405180910390fd5b8765ffffffffffff168265ffffffffffff1603611c9057825465ffffffffffff16600160301b6001600160d01b03891602178355611ce0565b6040805180820190915265ffffffffffff808a1682526001600160d01b03808a1660208085019182528d54600181018f555f8f81529190912094519151909216600160301b029216919091179101555b94508593506119e492505050565b50506040805180820190915265ffffffffffff80851682526001600160d01b0380851660208085019182528854600181018a555f8a815291822095519251909316600160301b0291909316179201919091559050816119e4565b5f60208284031215611d58575f5ffd5b81356001600160e01b031981168114610af8575f5ffd5b5f81518084528060208401602086015e5f602082860101526020601f19601f83011685010191505092915050565b602081525f610af86020830184611d6f565b80356001600160a01b0381168114611dc5575f5ffd5b919050565b5f5f60408385031215611ddb575f5ffd5b611de483611daf565b946020939093013593505050565b5f5f5f60608486031215611e04575f5ffd5b611e0d84611daf565b9250611e1b60208501611daf565b929592945050506040919091013590565b5f60208284031215611e3c575f5ffd5b5035919050565b5f5f60408385031215611e54575f5ffd5b82359150611e6460208401611daf565b90509250929050565b5f60208284031215611e7d575f5ffd5b610af882611daf565b60ff60f81b8816815260e060208201525f611ea460e0830189611d6f565b8281036040840152611eb68189611d6f565b606084018890526001600160a01b038716608085015260a0840186905283810360c0850152845180825260208087019350909101905f5b81811015611f0b578351835260209384019390920191600101611eed565b50909b9a5050505050505050505050565b803560ff81168114611dc5575f5ffd5b5f5f5f5f5f5f60c08789031215611f41575f5ffd5b611f4a87611daf565b95506020870135945060408701359350611f6660608801611f1c565b9598949750929560808101359460a0909101359350915050565b5f5f5f5f5f5f5f60e0888a031215611f96575f5ffd5b611f9f88611daf565b9650611fad60208901611daf565b95506040880135945060608801359350611fc960808901611f1c565b9699959850939692959460a0840135945060c09093013592915050565b5f5f60408385031215611ff7575f5ffd5b61200083611daf565b9150611e6460208401611daf565b5f5f6040838503121561201f575f5ffd5b61202883611daf565b9150602083013563ffffffff81168114612040575f5ffd5b809150509250929050565b600181811c9082168061205f57607f821691505b60208210810361207d57634e487b7160e01b5f52602260045260245ffd5b50919050565b634e487b7160e01b5f52601160045260245ffd5b6001600160d01b03818116838216019081111561058057610580612083565b6001600160d01b03828116828216039081111561058057610580612083565b8181038181111561058057610580612083565b8082018082111561058057610580612083565b634e487b7160e01b5f52601260045260245ffd5b634e487b7160e01b5f52602160045260245ffd5b634e487b7160e01b5f52603260045260245ffd5b5f8261215157634e487b7160e01b5f52601260045260245ffd5b50049056fea2646970667358221220ed49ffd2e266818c2b856a63bc82572b6de52f00be86e5e605f04076b88e97dc64736f6c634300081b0033dec2bacdd2f05b59de34da9b523dff8be42e5e38e818c82fdb0bae774387a724",
  "linkReferences": {},
  "deployedLinkReferences": {}
}