{
  "_format": "hh-sol-artifact-1",
  "contractName": "DeMarketSoulbound",
  "sourceName": "contracts/tokens/DeMarketSoulbound.sol",
  "abi": [
    {
      "inputs": [
        {
          "internalType": "string",
          "name": "_baseUri",
          "type": "string"
        }
      ],
      "stateMutability": "nonpayable",
      "type": "constructor"
    },
    {
      "inputs": [],
      "name": "AccessControlBadConfirmation",
      "type": "error"
    },
    {
      "inputs": [
        {
          "internalType": "address",
          "name": "account",
          "type": "address"
        },
        {
          "internalType": "bytes32",
          "name": "neededRole",
          "type": "bytes32"
        }
      ],
      "name": "AccessControlUnauthorizedAccount",
      "type": "error"
    },
    {
      "inputs": [
        {
          "internalType": "address",
          "name": "sender",
          "type": "address"
        },
        {
          "internalType": "uint256",
          "name": "balance",
          "type": "uint256"
        },
        {
          "internalType": "uint256",
          "name": "needed",
          "type": "uint256"
        },
        {
          "internalType": "uint256",
          "name": "tokenId",
          "type": "uint256"
        }
      ],
      "name": "ERC1155InsufficientBalance",
      "type": "error"
    },
    {
      "inputs": [
        {
          "internalType": "address",
          "name": "approver",
          "type": "address"
        }
      ],
      "name": "ERC1155InvalidApprover",
      "type": "error"
    },
    {
      "inputs": [
        {
          "internalType": "uint256",
          "name": "idsLength",
          "type": "uint256"
        },
        {
          "internalType": "uint256",
          "name": "valuesLength",
          "type": "uint256"
        }
      ],
      "name": "ERC1155InvalidArrayLength",
      "type": "error"
    },
    {
      "inputs": [
        {
          "internalType": "address",
          "name": "operator",
          "type": "address"
        }
      ],
      "name": "ERC1155InvalidOperator",
      "type": "error"
    },
    {
      "inputs": [
        {
          "internalType": "address",
          "name": "receiver",
          "type": "address"
        }
      ],
      "name": "ERC1155InvalidReceiver",
      "type": "error"
    },
    {
      "inputs": [
        {
          "internalType": "address",
          "name": "sender",
          "type": "address"
        }
      ],
      "name": "ERC1155InvalidSender",
      "type": "error"
    },
    {
      "inputs": [
        {
          "internalType": "address",
          "name": "operator",
          "type": "address"
        },
        {
          "internalType": "address",
          "name": "owner",
          "type": "address"
        }
      ],
      "name": "ERC1155MissingApprovalForAll",
      "type": "error"
    },
    {
      "inputs": [],
      "name": "SoulboundTransferFailed",
      "type": "error"
    },
    {
      "anonymous": false,
      "inputs": [
        {
          "indexed": true,
          "internalType": "address",
          "name": "account",
          "type": "address"
        },
        {
          "indexed": true,
          "internalType": "address",
          "name": "operator",
          "type": "address"
        },
        {
          "indexed": false,
          "internalType": "bool",
          "name": "approved",
          "type": "bool"
        }
      ],
      "name": "ApprovalForAll",
      "type": "event"
    },
    {
      "anonymous": false,
      "inputs": [
        {
          "indexed": true,
          "internalType": "bytes32",
          "name": "role",
          "type": "bytes32"
        },
        {
          "indexed": true,
          "internalType": "bytes32",
          "name": "previousAdminRole",
          "type": "bytes32"
        },
        {
          "indexed": true,
          "internalType": "bytes32",
          "name": "newAdminRole",
          "type": "bytes32"
        }
      ],
      "name": "RoleAdminChanged",
      "type": "event"
    },
    {
      "anonymous": false,
      "inputs": [
        {
          "indexed": true,
          "internalType": "bytes32",
          "name": "role",
          "type": "bytes32"
        },
        {
          "indexed": true,
          "internalType": "address",
          "name": "account",
          "type": "address"
        },
        {
          "indexed": true,
          "internalType": "address",
          "name": "sender",
          "type": "address"
        }
      ],
      "name": "RoleGranted",
      "type": "event"
    },
    {
      "anonymous": false,
      "inputs": [
        {
          "indexed": true,
          "internalType": "bytes32",
          "name": "role",
          "type": "bytes32"
        },
        {
          "indexed": true,
          "internalType": "address",
          "name": "account",
          "type": "address"
        },
        {
          "indexed": true,
          "internalType": "address",
          "name": "sender",
          "type": "address"
        }
      ],
      "name": "RoleRevoked",
      "type": "event"
    },
    {
      "anonymous": false,
      "inputs": [
        {
          "indexed": true,
          "internalType": "address",
          "name": "operator",
          "type": "address"
        },
        {
          "indexed": true,
          "internalType": "address",
          "name": "from",
          "type": "address"
        },
        {
          "indexed": true,
          "internalType": "address",
          "name": "to",
          "type": "address"
        },
        {
          "indexed": false,
          "internalType": "uint256[]",
          "name": "ids",
          "type": "uint256[]"
        },
        {
          "indexed": false,
          "internalType": "uint256[]",
          "name": "values",
          "type": "uint256[]"
        }
      ],
      "name": "TransferBatch",
      "type": "event"
    },
    {
      "anonymous": false,
      "inputs": [
        {
          "indexed": true,
          "internalType": "address",
          "name": "operator",
          "type": "address"
        },
        {
          "indexed": true,
          "internalType": "address",
          "name": "from",
          "type": "address"
        },
        {
          "indexed": true,
          "internalType": "address",
          "name": "to",
          "type": "address"
        },
        {
          "indexed": false,
          "internalType": "uint256",
          "name": "id",
          "type": "uint256"
        },
        {
          "indexed": false,
          "internalType": "uint256",
          "name": "value",
          "type": "uint256"
        }
      ],
      "name": "TransferSingle",
      "type": "event"
    },
    {
      "anonymous": false,
      "inputs": [
        {
          "indexed": false,
          "internalType": "string",
          "name": "value",
          "type": "string"
        },
        {
          "indexed": true,
          "internalType": "uint256",
          "name": "id",
          "type": "uint256"
        }
      ],
      "name": "URI",
      "type": "event"
    },
    {
      "inputs": [],
      "name": "ADMIN_ROLE",
      "outputs": [
        {
          "internalType": "bytes32",
          "name": "",
          "type": "bytes32"
        }
      ],
      "stateMutability": "view",
      "type": "function"
    },
    {
      "inputs": [],
      "name": "DEFAULT_ADMIN_ROLE",
      "outputs": [
        {
          "internalType": "bytes32",
          "name": "",
          "type": "bytes32"
        }
      ],
      "stateMutability": "view",
      "type": "function"
    },
    {
      "inputs": [],
      "name": "MINTER_ROLE",
      "outputs": [
        {
          "internalType": "bytes32",
          "name": "",
          "type": "bytes32"
        }
      ],
      "stateMutability": "view",
      "type": "function"
    },
    {
      "inputs": [
        {
          "internalType": "address",
          "name": "account",
          "type": "address"
        },
        {
          "internalType": "uint256",
          "name": "id",
          "type": "uint256"
        }
      ],
      "name": "balanceOf",
      "outputs": [
        {
          "internalType": "uint256",
          "name": "",
          "type": "uint256"
        }
      ],
      "stateMutability": "view",
      "type": "function"
    },
    {
      "inputs": [
        {
          "internalType": "address[]",
          "name": "accounts",
          "type": "address[]"
        },
        {
          "internalType": "uint256[]",
          "name": "ids",
          "type": "uint256[]"
        }
      ],
      "name": "balanceOfBatch",
      "outputs": [
        {
          "internalType": "uint256[]",
          "name": "",
          "type": "uint256[]"
        }
      ],
      "stateMutability": "view",
      "type": "function"
    },
    {
      "inputs": [
        {
          "internalType": "uint256",
          "name": "id",
          "type": "uint256"
        }
      ],
      "name": "exists",
      "outputs": [
        {
          "internalType": "bool",
          "name": "",
          "type": "bool"
        }
      ],
      "stateMutability": "view",
      "type": "function"
    },
    {
      "inputs": [
        {
          "internalType": "bytes32",
          "name": "role",
          "type": "bytes32"
        }
      ],
      "name": "getRoleAdmin",
      "outputs": [
        {
          "internalType": "bytes32",
          "name": "",
          "type": "bytes32"
        }
      ],
      "stateMutability": "view",
      "type": "function"
    },
    {
      "inputs": [
        {
          "internalType": "bytes32",
          "name": "role",
          "type": "bytes32"
        },
        {
          "internalType": "address",
          "name": "account",
          "type": "address"
        }
      ],
      "name": "grantRole",
      "outputs": [],
      "stateMutability": "nonpayable",
      "type": "function"
    },
    {
      "inputs": [
        {
          "internalType": "bytes32",
          "name": "role",
          "type": "bytes32"
        },
        {
          "internalType": "address",
          "name": "account",
          "type": "address"
        }
      ],
      "name": "hasRole",
      "outputs": [
        {
          "internalType": "bool",
          "name": "",
          "type": "bool"
        }
      ],
      "stateMutability": "view",
      "type": "function"
    },
    {
      "inputs": [
        {
          "internalType": "address",
          "name": "account",
          "type": "address"
        },
        {
          "internalType": "address",
          "name": "operator",
          "type": "address"
        }
      ],
      "name": "isApprovedForAll",
      "outputs": [
        {
          "internalType": "bool",
          "name": "",
          "type": "bool"
        }
      ],
      "stateMutability": "view",
      "type": "function"
    },
    {
      "inputs": [
        {
          "internalType": "address",
          "name": "_to",
          "type": "address"
        },
        {
          "internalType": "uint256",
          "name": "_id",
          "type": "uint256"
        },
        {
          "internalType": "uint256",
          "name": "_amount",
          "type": "uint256"
        },
        {
          "internalType": "bytes",
          "name": "_data",
          "type": "bytes"
        }
      ],
      "name": "mint",
      "outputs": [],
      "stateMutability": "nonpayable",
      "type": "function"
    },
    {
      "inputs": [
        {
          "internalType": "address",
          "name": "_to",
          "type": "address"
        },
        {
          "internalType": "uint256[]",
          "name": "_ids",
          "type": "uint256[]"
        },
        {
          "internalType": "uint256[]",
          "name": "_amounts",
          "type": "uint256[]"
        },
        {
          "internalType": "bytes",
          "name": "_data",
          "type": "bytes"
        }
      ],
      "name": "mintBatch",
      "outputs": [],
      "stateMutability": "nonpayable",
      "type": "function"
    },
    {
      "inputs": [],
      "name": "name",
      "outputs": [
        {
          "internalType": "string",
          "name": "",
          "type": "string"
        }
      ],
      "stateMutability": "view",
      "type": "function"
    },
    {
      "inputs": [
        {
          "internalType": "bytes32",
          "name": "role",
          "type": "bytes32"
        },
        {
          "internalType": "address",
          "name": "callerConfirmation",
          "type": "address"
        }
      ],
      "name": "renounceRole",
      "outputs": [],
      "stateMutability": "nonpayable",
      "type": "function"
    },
    {
      "inputs": [
        {
          "internalType": "address",
          "name": "_from",
          "type": "address"
        },
        {
          "internalType": "uint256",
          "name": "_id",
          "type": "uint256"
        },
        {
          "internalType": "uint256",
          "name": "_amount",
          "type": "uint256"
        }
      ],
      "name": "revokeBadge",
      "outputs": [],
      "stateMutability": "nonpayable",
      "type": "function"
    },
    {
      "inputs": [
        {
          "internalType": "bytes32",
          "name": "role",
          "type": "bytes32"
        },
        {
          "internalType": "address",
          "name": "account",
          "type": "address"
        }
      ],
      "name": "revokeRole",
      "outputs": [],
      "stateMutability": "nonpayable",
      "type": "function"
    },
    {
      "inputs": [
        {
          "internalType": "address",
          "name": "from",
          "type": "address"
        },
        {
          "internalType": "address",
          "name": "to",
          "type": "address"
        },
        {
          "internalType": "uint256[]",
          "name": "ids",
          "type": "uint256[]"
        },
        {
          "internalType": "uint256[]",
          "name": "values",
          "type": "uint256[]"
        },
        {
          "internalType": "bytes",
          "name": "data",
          "type": "bytes"
        }
      ],
      "name": "safeBatchTransferFrom",
      "outputs": [],
      "stateMutability": "nonpayable",
      "type": "function"
    },
    {
      "inputs": [
        {
          "internalType": "address",
          "name": "from",
          "type": "address"
        },
        {
          "internalType": "address",
          "name": "to",
          "type": "address"
        },
        {
          "internalType": "uint256",
          "name": "id",
          "type": "uint256"
        },
        {
          "internalType": "uint256",
          "name": "value",
          "type": "uint256"
        },
        {
          "internalType": "bytes",
          "name": "data",
          "type": "bytes"
        }
      ],
      "name": "safeTransferFrom",
      "outputs": [],
      "stateMutability": "nonpayable",
      "type": "function"
    },
    {
      "inputs": [
        {
          "internalType": "address",
          "name": "operator",
          "type": "address"
        },
        {
          "internalType": "bool",
          "name": "approved",
          "type": "bool"
        }
      ],
      "name": "setApprovalForAll",
      "outputs": [],
      "stateMutability": "nonpayable",
      "type": "function"
    },
    {
      "inputs": [
        {
          "internalType": "string",
          "name": "newuri",
          "type": "string"
        }
      ],
      "name": "setURI",
      "outputs": [],
      "stateMutability": "nonpayable",
      "type": "function"
    },
    {
      "inputs": [
        {
          "internalType": "bytes4",
          "name": "interfaceId",
          "type": "bytes4"
        }
      ],
      "name": "supportsInterface",
      "outputs": [
        {
          "internalType": "bool",
          "name": "",
          "type": "bool"
        }
      ],
      "stateMutability": "view",
      "type": "function"
    },
    {
      "inputs": [],
      "name": "symbol",
      "outputs": [
        {
          "internalType": "string",
          "name": "",
          "type": "string"
        }
      ],
      "stateMutability": "view",
      "type": "function"
    },
    {
      "inputs": [],
      "name": "totalSupply",
      "outputs": [
        {
          "internalType": "uint256",
          "name": "",
          "type": "uint256"
        }
      ],
      "stateMutability": "view",
      "type": "function"
    },
    {
      "inputs": [
        {
          "internalType": "uint256",
          "name": "id",
          "type": "uint256"
        }
      ],
      "name": "totalSupply",
      "outputs": [
        {
          "internalType": "uint256",
          "name": "",
          "type": "uint256"
        }
      ],
      "stateMutability": "view",
      "type": "function"
    },
    {
      "inputs": [
        {
          "internalType": "uint256",
          "name": "_id",
          "type": "uint256"
        }
      ],
      "name": "uri",
      "outputs": [
        {
          "internalType": "string",
          "name": "",
          "type": "string"
        }
      ],
      "stateMutability": "view",
      "type": "function"
    }
  ],
  "bytecode": "0x60c0604052601a60809081527f44654d61726b65742052657075746174696f6e2042616467657300000000000060a05260069061003c9082610258565b50604080518082019091526005815264111354d09560da1b60208201526007906100669082610258565b50348015610072575f5ffd5b5060405161207f38038061207f83398101604081905261009191610312565b8061009b81610103565b506100a65f33610113565b506100d17fa49807205ce4d355092ef5a8a18f56e8913cf4a201fbe287825b095693c2177533610113565b506100fc7f9f2df0fed2c77648de5860a4cc508cd0818c85b8b8a1ab4ceeef8d981c8956a633610113565b50506103c2565b600261010f8282610258565b5050565b5f8281526003602090815260408083206001600160a01b038516845290915281205460ff166101b7575f8381526003602090815260408083206001600160a01b03861684529091529020805460ff1916600117905561016f3390565b6001600160a01b0316826001600160a01b0316847f2f8788117e7eff1d82e926ec794901d17c78024a50270940304540a733656f0d60405160405180910390a45060016101ba565b505f5b92915050565b634e487b7160e01b5f52604160045260245ffd5b600181811c908216806101e857607f821691505b60208210810361020657634e487b7160e01b5f52602260045260245ffd5b50919050565b601f82111561025357805f5260205f20601f840160051c810160208510156102315750805b601f840160051c820191505b81811015610250575f815560010161023d565b50505b505050565b81516001600160401b03811115610271576102716101c0565b6102858161027f84546101d4565b8461020c565b6020601f8211600181146102b7575f83156102a05750848201515b5f19600385901b1c1916600184901b178455610250565b5f84815260208120601f198516915b828110156102e657878501518255602094850194600190920191016102c6565b508482101561030357868401515f19600387901b60f8161c191681555b50505050600190811b01905550565b5f60208284031215610322575f5ffd5b81516001600160401b03811115610337575f5ffd5b8201601f81018413610347575f5ffd5b80516001600160401b03811115610360576103606101c0565b604051601f8201601f19908116603f011681016001600160401b038111828210171561038e5761038e6101c0565b6040528181528282016020018610156103a5575f5ffd5b8160208401602083015e5f91810160200191909152949350505050565b611cb0806103cf5f395ff3fe608060405234801561000f575f5ffd5b506004361061016c575f3560e01c80634f558e79116100d9578063a22cb46511610093578063d53913931161006e578063d53913931461034e578063d547741f14610375578063e985e9c514610388578063f242432a1461039b575f5ffd5b8063a22cb46514610309578063bd85b0391461031c578063ca82c3ae1461033b575f5ffd5b80634f558e791461028c578063731133e9146102ad57806375b238fc146102c057806391d14854146102e757806395d89b41146102fa578063a217fddf14610302575f5ffd5b80631f7fdffa1161012a5780631f7fdffa146101fe578063248a9ca3146102115780632eb2c2d6146102335780632f2ff15d1461024657806336568abe146102595780634e1273f41461026c575f5ffd5b8062fdd58e1461017057806301ffc9a71461019657806302fe5305146101b957806306fdde03146101ce5780630e89341c146101e357806318160ddd146101f6575b5f5ffd5b61018361017e3660046113f8565b6103ae565b6040519081526020015b60405180910390f35b6101a96101a4366004611435565b6103d5565b604051901515815260200161018d565b6101cc6101c73660046114f3565b6103df565b005b6101d6610416565b60405161018d919061156d565b6101d66101f136600461157f565b6104a2565b600554610183565b6101cc61020c366004611640565b6104e2565b61018361021f36600461157f565b5f9081526003602052604090206001015490565b6101cc6102413660046116dc565b61051f565b6101cc610254366004611788565b61058b565b6101cc610267366004611788565b6105b5565b61027f61027a3660046117b2565b6105ed565b60405161018d91906118ad565b6101a961029a36600461157f565b5f90815260046020526040902054151590565b6101cc6102bb3660046118bf565b6106b7565b6101837fa49807205ce4d355092ef5a8a18f56e8913cf4a201fbe287825b095693c2177581565b6101a96102f5366004611788565b6106ed565b6101d6610717565b6101835f81565b6101cc610317366004611903565b610724565b61018361032a36600461157f565b5f9081526004602052604090205490565b6101cc61034936600461193c565b61072f565b6101837f9f2df0fed2c77648de5860a4cc508cd0818c85b8b8a1ab4ceeef8d981c8956a681565b6101cc610383366004611788565b610764565b6101a961039636600461196c565b610788565b6101cc6103a9366004611994565b6107b5565b5f818152602081815260408083206001600160a01b03861684529091529020545b92915050565b5f6103cf82610814565b7fa49807205ce4d355092ef5a8a18f56e8913cf4a201fbe287825b095693c2177561040981610838565b61041282610845565b5050565b60068054610423906119e7565b80601f016020809104026020016040519081016040528092919081815260200182805461044f906119e7565b801561049a5780601f106104715761010080835404028352916020019161049a565b820191905f5260205f20905b81548152906001019060200180831161047d57829003601f168201915b505050505081565b60605f6104ae83610851565b9050806104ba846108e3565b6040516020016104cb929190611a36565b604051602081830303815290604052915050919050565b7f9f2df0fed2c77648de5860a4cc508cd0818c85b8b8a1ab4ceeef8d981c8956a661050c81610838565b61051885858585610972565b5050505050565b336001600160a01b0386168114801590610540575061053e8682610788565b155b156105765760405163711bec9160e11b81526001600160a01b038083166004830152871660248201526044015b60405180910390fd5b61058386868686866109a8565b505050505050565b5f828152600360205260409020600101546105a581610838565b6105af8383610a06565b50505050565b6001600160a01b03811633146105de5760405163334bd91960e11b815260040160405180910390fd5b6105e88282610a97565b505050565b6060815183511461061e5781518351604051635b05999160e01b81526004810192909252602482015260440161056d565b5f83516001600160401b0381111561063857610638611457565b604051908082528060200260200182016040528015610661578160200160208202803683370190505b5090505f5b84518110156106af5760208082028601015161068a906020808402870101516103ae565b82828151811061069c5761069c611a60565b6020908102919091010152600101610666565b509392505050565b7f9f2df0fed2c77648de5860a4cc508cd0818c85b8b8a1ab4ceeef8d981c8956a66106e181610838565b61051885858585610b02565b5f9182526003602090815260408084206001600160a01b0393909316845291905290205460ff1690565b60078054610423906119e7565b610412338383610b5d565b7fa49807205ce4d355092ef5a8a18f56e8913cf4a201fbe287825b095693c2177561075981610838565b6105af848484610bf1565b5f8281526003602052604090206001015461077e81610838565b6105af8383610a97565b6001600160a01b039182165f90815260016020908152604080832093909416825291909152205460ff1690565b336001600160a01b03861681148015906107d657506107d48682610788565b155b156108075760405163711bec9160e11b81526001600160a01b0380831660048301528716602482015260440161056d565b6105838686868686610c57565b5f6001600160e01b03198216637965db0b60e01b14806103cf57506103cf82610ce3565b6108428133610d32565b50565b60026104128282611ab8565b606060028054610860906119e7565b80601f016020809104026020016040519081016040528092919081815260200182805461088c906119e7565b80156108d75780601f106108ae576101008083540402835291602001916108d7565b820191905f5260205f20905b8154815290600101906020018083116108ba57829003601f168201915b50505050509050919050565b60605f6108ef83610d6b565b60010190505f816001600160401b0381111561090d5761090d611457565b6040519080825280601f01601f191660200182016040528015610937576020820181803683370190505b5090508181016020015b5f19016f181899199a1a9b1b9c1cb0b131b232b360811b600a86061a8153600a850494508461094157509392505050565b6001600160a01b03841661099b57604051632bfa23e760e11b81525f600482015260240161056d565b6105af5f85858585610e42565b6001600160a01b0384166109d157604051632bfa23e760e11b81525f600482015260240161056d565b6001600160a01b0385166109f957604051626a0d4560e21b81525f600482015260240161056d565b6105188585858585610e42565b5f610a1183836106ed565b610a90575f8381526003602090815260408083206001600160a01b03861684529091529020805460ff19166001179055610a483390565b6001600160a01b0316826001600160a01b0316847f2f8788117e7eff1d82e926ec794901d17c78024a50270940304540a733656f0d60405160405180910390a45060016103cf565b505f6103cf565b5f610aa283836106ed565b15610a90575f8381526003602090815260408083206001600160a01b0386168085529252808320805460ff1916905551339286917ff6391f5c32d9c69d2a47ea670b442974b53935d1edc7fd64eb21e047a839171b9190a45060016103cf565b6001600160a01b038416610b2b57604051632bfa23e760e11b81525f600482015260240161056d565b604080516001808252602082018690528183019081526060820185905260808201909252906105835f87848487610e42565b6001600160a01b038216610b855760405162ced3e160e81b81525f600482015260240161056d565b6001600160a01b038381165f81815260016020908152604080832094871680845294825291829020805460ff191686151590811790915591519182527f17307eab39ab6107e8899845ad3d59bd9653f200f220920489ca2b5937696c31910160405180910390a3505050565b6001600160a01b038316610c1957604051626a0d4560e21b81525f600482015260240161056d565b604080516001808252602082018590528183019081526060820184905260a082019092525f6080820181815291929161051891879185908590610e42565b6001600160a01b038416610c8057604051632bfa23e760e11b81525f600482015260240161056d565b6001600160a01b038516610ca857604051626a0d4560e21b81525f600482015260240161056d565b60408051600180825260208201869052818301908152606082018590526080820190925290610cda8787848487610e42565b50505050505050565b5f6001600160e01b03198216636cdb3d1360e11b1480610d1357506001600160e01b031982166303a24d0760e21b145b806103cf57506301ffc9a760e01b6001600160e01b03198316146103cf565b610d3c82826106ed565b6104125760405163e2517d3f60e01b81526001600160a01b03821660048201526024810183905260440161056d565b5f8072184f03e93ff9f4daa797ed6e38ed64bf6a1f0160401b8310610da95772184f03e93ff9f4daa797ed6e38ed64bf6a1f0160401b830492506040015b6d04ee2d6d415b85acef81000000008310610dd5576d04ee2d6d415b85acef8100000000830492506020015b662386f26fc100008310610df357662386f26fc10000830492506010015b6305f5e1008310610e0b576305f5e100830492506008015b6127108310610e1f57612710830492506004015b60648310610e31576064830492506002015b600a83106103cf5760010192915050565b610e4e85858585610e95565b6001600160a01b038416156105185782513390600103610e875760208481015190840151610e80838989858589610edf565b5050610583565b610583818787878787611000565b6001600160a01b03841615801590610eb557506001600160a01b03831615155b15610ed357604051631726f5d960e01b815260040160405180910390fd5b6105af848484846110e7565b6001600160a01b0384163b156105835760405163f23a6e6160e01b81526001600160a01b0385169063f23a6e6190610f239089908990889088908890600401611b72565b6020604051808303815f875af1925050508015610f5d575060408051601f3d908101601f19168201909252610f5a91810190611bb6565b60015b610fc4573d808015610f8a576040519150601f19603f3d011682016040523d82523d5f602084013e610f8f565b606091505b5080515f03610fbc57604051632bfa23e760e11b81526001600160a01b038616600482015260240161056d565b805160208201fd5b6001600160e01b0319811663f23a6e6160e01b14610cda57604051632bfa23e760e11b81526001600160a01b038616600482015260240161056d565b6001600160a01b0384163b156105835760405163bc197c8160e01b81526001600160a01b0385169063bc197c81906110449089908990889088908890600401611bd1565b6020604051808303815f875af192505050801561107e575060408051601f3d908101601f1916820190925261107b91810190611bb6565b60015b6110ab573d808015610f8a576040519150601f19603f3d011682016040523d82523d5f602084013e610f8f565b6001600160e01b0319811663bc197c8160e01b14610cda57604051632bfa23e760e11b81526001600160a01b038616600482015260240161056d565b6110f3848484846111ce565b6001600160a01b038416611170575f805b83518110156111575760208181028481018201519086018201515f90815260049092526040822080549192839261113c908490611c2e565b9091555061114c90508184611c2e565b925050600101611104565b508060055f8282546111699190611c2e565b9091555050505b6001600160a01b0383166105af575f805b83518110156111bd5760208181028481018201519086018201515f90815260049092526040909120805482900390559190910190600101611181565b506005805491909103905550505050565b80518251146111fd5781518151604051635b05999160e01b81526004810192909252602482015260440161056d565b335f5b83518110156112ff576020818102858101820151908501909101516001600160a01b038816156112b1575f828152602081815260408083206001600160a01b038c1684529091529020548181101561128b576040516303dee4c560e01b81526001600160a01b038a16600482015260248101829052604481018390526064810184905260840161056d565b5f838152602081815260408083206001600160a01b038d16845290915290209082900390555b6001600160a01b038716156112f5575f828152602081815260408083206001600160a01b038b168452909152812080548392906112ef908490611c2e565b90915550505b5050600101611200565b50825160010361137f5760208301515f906020840151909150856001600160a01b0316876001600160a01b0316846001600160a01b03167fc3d58168c5ae7397731d063d5bbf3d657854427343f4c083240f7aacaa2d0f628585604051611370929190918252602082015260400190565b60405180910390a45050610518565b836001600160a01b0316856001600160a01b0316826001600160a01b03167f4a39dc06d4c0dbc64b70af90fd698a233a518aa5d07e595d983b8c0526c8f7fb86866040516113ce929190611c4d565b60405180910390a45050505050565b80356001600160a01b03811681146113f3575f5ffd5b919050565b5f5f60408385031215611409575f5ffd5b611412836113dd565b946020939093013593505050565b6001600160e01b031981168114610842575f5ffd5b5f60208284031215611445575f5ffd5b813561145081611420565b9392505050565b634e487b7160e01b5f52604160045260245ffd5b604051601f8201601f191681016001600160401b038111828210171561149357611493611457565b604052919050565b5f5f6001600160401b038411156114b4576114b4611457565b50601f8301601f19166020016114c98161146b565b9150508281528383830111156114dd575f5ffd5b828260208301375f602084830101529392505050565b5f60208284031215611503575f5ffd5b81356001600160401b03811115611518575f5ffd5b8201601f81018413611528575f5ffd5b6115378482356020840161149b565b949350505050565b5f81518084528060208401602086015e5f602082860101526020601f19601f83011685010191505092915050565b602081525f611450602083018461153f565b5f6020828403121561158f575f5ffd5b5035919050565b5f6001600160401b038211156115ae576115ae611457565b5060051b60200190565b5f82601f8301126115c7575f5ffd5b81356115da6115d582611596565b61146b565b8082825260208201915060208360051b8601019250858311156115fb575f5ffd5b602085015b83811015611618578035835260209283019201611600565b5095945050505050565b5f82601f830112611631575f5ffd5b6114508383356020850161149b565b5f5f5f5f60808587031215611653575f5ffd5b61165c856113dd565b935060208501356001600160401b03811115611676575f5ffd5b611682878288016115b8565b93505060408501356001600160401b0381111561169d575f5ffd5b6116a9878288016115b8565b92505060608501356001600160401b038111156116c4575f5ffd5b6116d087828801611622565b91505092959194509250565b5f5f5f5f5f60a086880312156116f0575f5ffd5b6116f9866113dd565b9450611707602087016113dd565b935060408601356001600160401b03811115611721575f5ffd5b61172d888289016115b8565b93505060608601356001600160401b03811115611748575f5ffd5b611754888289016115b8565b92505060808601356001600160401b0381111561176f575f5ffd5b61177b88828901611622565b9150509295509295909350565b5f5f60408385031215611799575f5ffd5b823591506117a9602084016113dd565b90509250929050565b5f5f604083850312156117c3575f5ffd5b82356001600160401b038111156117d8575f5ffd5b8301601f810185136117e8575f5ffd5b80356117f66115d582611596565b8082825260208201915060208360051b850101925087831115611817575f5ffd5b6020840193505b828410156118405761182f846113dd565b82526020938401939091019061181e565b945050505060208301356001600160401b0381111561185d575f5ffd5b611869858286016115b8565b9150509250929050565b5f8151808452602084019350602083015f5b828110156118a3578151865260209586019590910190600101611885565b5093949350505050565b602081525f6114506020830184611873565b5f5f5f5f608085870312156118d2575f5ffd5b6118db856113dd565b9350602085013592506040850135915060608501356001600160401b038111156116c4575f5ffd5b5f5f60408385031215611914575f5ffd5b61191d836113dd565b915060208301358015158114611931575f5ffd5b809150509250929050565b5f5f5f6060848603121561194e575f5ffd5b611957846113dd565b95602085013595506040909401359392505050565b5f5f6040838503121561197d575f5ffd5b611986836113dd565b91506117a9602084016113dd565b5f5f5f5f5f60a086880312156119a8575f5ffd5b6119b1866113dd565b94506119bf602087016113dd565b9350604086013592506060860135915060808601356001600160401b0381111561176f575f5ffd5b600181811c908216806119fb57607f821691505b602082108103611a1957634e487b7160e01b5f52602260045260245ffd5b50919050565b5f81518060208401855e5f93019283525090919050565b5f611a4a611a448386611a1f565b84611a1f565b64173539b7b760d91b8152600501949350505050565b634e487b7160e01b5f52603260045260245ffd5b601f8211156105e857805f5260205f20601f840160051c81016020851015611a995750805b601f840160051c820191505b81811015610518575f8155600101611aa5565b81516001600160401b03811115611ad157611ad1611457565b611ae581611adf84546119e7565b84611a74565b6020601f821160018114611b17575f8315611b005750848201515b5f19600385901b1c1916600184901b178455610518565b5f84815260208120601f198516915b82811015611b465787850151825560209485019460019092019101611b26565b5084821015611b6357868401515f19600387901b60f8161c191681555b50505050600190811b01905550565b6001600160a01b03868116825285166020820152604081018490526060810183905260a0608082018190525f90611bab9083018461153f565b979650505050505050565b5f60208284031215611bc6575f5ffd5b815161145081611420565b6001600160a01b0386811682528516602082015260a0604082018190525f90611bfc90830186611873565b8281036060840152611c0e8186611873565b90508281036080840152611c22818561153f565b98975050505050505050565b808201808211156103cf57634e487b7160e01b5f52601160045260245ffd5b604081525f611c5f6040830185611873565b8281036020840152611c718185611873565b9594505050505056fea26469706673582212203cea38a95de1016385855a007b54c81ca855493afb1a60aa36457b129213991264736f6c634300081b0033",
  "linkReferences": {},
  "deployedLinkReferences": {}
}