{
  "_format": "hh-sol-artifact-1",
  "contractName": "DeMarketDAO",
  "sourceName": "contracts/dao/DeMarketDAO.sol",
  "abi": [
    {
      "inputs": [
        {
          "internalType": "contract IVotes",
          "name": "_token",
          "type": "address"
        },
        {
          "internalType": "contract TimelockController",
          "name": "_timelock",
          "type": "address"
        }
      ],
      "stateMutability": "nonpayable",
      "type": "constructor"
    },
    {
      "inputs": [],
      "name": "FailedCall",
      "type": "error"
    },
    {
      "inputs": [
        {
          "internalType": "address",
          "name": "voter",
          "type": "address"
        }
      ],
      "name": "GovernorAlreadyCastVote",
      "type": "error"
    },
    {
      "inputs": [
        {
          "internalType": "uint256",
          "name": "proposalId",
          "type": "uint256"
        }
      ],
      "name": "GovernorAlreadyQueuedProposal",
      "type": "error"
    },
    {
      "inputs": [],
      "name": "GovernorDisabledDeposit",
      "type": "error"
    },
    {
      "inputs": [
        {
          "internalType": "address",
          "name": "proposer",
          "type": "address"
        },
        {
          "internalType": "uint256",
          "name": "votes",
          "type": "uint256"
        },
        {
          "internalType": "uint256",
          "name": "threshold",
          "type": "uint256"
        }
      ],
      "name": "GovernorInsufficientProposerVotes",
      "type": "error"
    },
    {
      "inputs": [
        {
          "internalType": "uint256",
          "name": "targets",
          "type": "uint256"
        },
        {
          "internalType": "uint256",
          "name": "calldatas",
          "type": "uint256"
        },
        {
          "internalType": "uint256",
          "name": "values",
          "type": "uint256"
        }
      ],
      "name": "GovernorInvalidProposalLength",
      "type": "error"
    },
    {
      "inputs": [
        {
          "internalType": "address",
          "name": "voter",
          "type": "address"
        }
      ],
      "name": "GovernorInvalidSignature",
      "type": "error"
    },
    {
      "inputs": [],
      "name": "GovernorInvalidVoteParams",
      "type": "error"
    },
    {
      "inputs": [],
      "name": "GovernorInvalidVoteType",
      "type": "error"
    },
    {
      "inputs": [
        {
          "internalType": "uint256",
          "name": "votingPeriod",
          "type": "uint256"
        }
      ],
      "name": "GovernorInvalidVotingPeriod",
      "type": "error"
    },
    {
      "inputs": [
        {
          "internalType": "uint256",
          "name": "proposalId",
          "type": "uint256"
        }
      ],
      "name": "GovernorNonexistentProposal",
      "type": "error"
    },
    {
      "inputs": [
        {
          "internalType": "uint256",
          "name": "proposalId",
          "type": "uint256"
        }
      ],
      "name": "GovernorNotQueuedProposal",
      "type": "error"
    },
    {
      "inputs": [
        {
          "internalType": "address",
          "name": "account",
          "type": "address"
        }
      ],
      "name": "GovernorOnlyExecutor",
      "type": "error"
    },
    {
      "inputs": [],
      "name": "GovernorQueueNotImplemented",
      "type": "error"
    },
    {
      "inputs": [
        {
          "internalType": "address",
          "name": "proposer",
          "type": "address"
        }
      ],
      "name": "GovernorRestrictedProposer",
      "type": "error"
    },
    {
      "inputs": [
        {
          "internalType": "uint256",
          "name": "proposalId",
          "type": "uint256"
        },
        {
          "internalType": "address",
          "name": "account",
          "type": "address"
        }
      ],
      "name": "GovernorUnableToCancel",
      "type": "error"
    },
    {
      "inputs": [
        {
          "internalType": "uint256",
          "name": "proposalId",
          "type": "uint256"
        },
        {
          "internalType": "enum IGovernor.ProposalState",
          "name": "current",
          "type": "uint8"
        },
        {
          "internalType": "bytes32",
          "name": "expectedStates",
          "type": "bytes32"
        }
      ],
      "name": "GovernorUnexpectedProposalState",
      "type": "error"
    },
    {
      "inputs": [
        {
          "internalType": "address",
          "name": "account",
          "type": "address"
        },
        {
          "internalType": "uint256",
          "name": "currentNonce",
          "type": "uint256"
        }
      ],
      "name": "InvalidAccountNonce",
      "type": "error"
    },
    {
      "inputs": [],
      "name": "InvalidShortString",
      "type": "error"
    },
    {
      "inputs": [
        {
          "internalType": "uint8",
          "name": "bits",
          "type": "uint8"
        },
        {
          "internalType": "uint256",
          "name": "value",
          "type": "uint256"
        }
      ],
      "name": "SafeCastOverflowedUintDowncast",
      "type": "error"
    },
    {
      "inputs": [
        {
          "internalType": "string",
          "name": "str",
          "type": "string"
        }
      ],
      "name": "StringTooLong",
      "type": "error"
    },
    {
      "anonymous": false,
      "inputs": [],
      "name": "EIP712DomainChanged",
      "type": "event"
    },
    {
      "anonymous": false,
      "inputs": [
        {
          "indexed": false,
          "internalType": "uint256",
          "name": "proposalId",
          "type": "uint256"
        }
      ],
      "name": "ProposalCanceled",
      "type": "event"
    },
    {
      "anonymous": false,
      "inputs": [
        {
          "indexed": false,
          "internalType": "uint256",
          "name": "proposalId",
          "type": "uint256"
        },
        {
          "indexed": false,
          "internalType": "address",
          "name": "proposer",
          "type": "address"
        },
        {
          "indexed": false,
          "internalType": "address[]",
          "name": "targets",
          "type": "address[]"
        },
        {
          "indexed": false,
          "internalType": "uint256[]",
          "name": "values",
          "type": "uint256[]"
        },
        {
          "indexed": false,
          "internalType": "string[]",
          "name": "signatures",
          "type": "string[]"
        },
        {
          "indexed": false,
          "internalType": "bytes[]",
          "name": "calldatas",
          "type": "bytes[]"
        },
        {
          "indexed": false,
          "internalType": "uint256",
          "name": "voteStart",
          "type": "uint256"
        },
        {
          "indexed": false,
          "internalType": "uint256",
          "name": "voteEnd",
          "type": "uint256"
        },
        {
          "indexed": false,
          "internalType": "string",
          "name": "description",
          "type": "string"
        }
      ],
      "name": "ProposalCreated",
      "type": "event"
    },
    {
      "anonymous": false,
      "inputs": [
        {
          "indexed": false,
          "internalType": "uint256",
          "name": "proposalId",
          "type": "uint256"
        }
      ],
      "name": "ProposalExecuted",
      "type": "event"
    },
    {
      "anonymous": false,
      "inputs": [
        {
          "indexed": false,
          "internalType": "uint256",
          "name": "proposalId",
          "type": "uint256"
        },
        {
          "indexed": false,
          "internalType": "uint256",
          "name": "etaSeconds",
          "type": "uint256"
        }
      ],
      "name": "ProposalQueued",
      "type": "event"
    },
    {
      "anonymous": false,
      "inputs": [
        {
          "indexed": false,
          "internalType": "uint256",
          "name": "oldProposalThreshold",
          "type": "uint256"
        },
        {
          "indexed": false,
          "internalType": "uint256",
          "name": "newProposalThreshold",
          "type": "uint256"
        }
      ],
      "name": "ProposalThresholdSet",
      "type": "event"
    },
    {
      "anonymous": false,
      "inputs": [
        {
          "indexed": false,
          "internalType": "address",
          "name": "oldTimelock",
          "type": "address"
        },
        {
          "indexed": false,
          "internalType": "address",
          "name": "newTimelock",
          "type": "address"
        }
      ],
      "name": "TimelockChange",
      "type": "event"
    },
    {
      "anonymous": false,
      "inputs": [
        {
          "indexed": true,
          "internalType": "address",
          "name": "voter",
          "type": "address"
        },
        {
          "indexed": false,
          "internalType": "uint256",
          "name": "proposalId",
          "type": "uint256"
        },
        {
          "indexed": false,
          "internalType": "uint8",
          "name": "support",
          "type": "uint8"
        },
        {
          "indexed": false,
          "internalType": "uint256",
          "name": "weight",
          "type": "uint256"
        },
        {
          "indexed": false,
          "internalType": "string",
          "name": "reason",
          "type": "string"
        }
      ],
      "name": "VoteCast",
      "type": "event"
    },
    {
      "anonymous": false,
      "inputs": [
        {
          "indexed": true,
          "internalType": "address",
          "name": "voter",
          "type": "address"
        },
        {
          "indexed": false,
          "internalType": "uint256",
          "name": "proposalId",
          "type": "uint256"
        },
        {
          "indexed": false,
          "internalType": "uint8",
          "name": "support",
          "type": "uint8"
        },
        {
          "indexed": false,
          "internalType": "uint256",
          "name": "weight",
          "type": "uint256"
        },
        {
          "indexed": false,
          "internalType": "string",
          "name": "reason",
          "type": "string"
        },
        {
          "indexed": false,
          "internalType": "bytes",
          "name": "params",
          "type": "bytes"
        }
      ],
      "name": "VoteCastWithParams",
      "type": "event"
    },
    {
      "anonymous": false,
      "inputs": [
        {
          "indexed": false,
          "internalType": "uint256",
          "name": "oldVotingDelay",
          "type": "uint256"
        },
        {
          "indexed": false,
          "internalType": "uint256",
          "name": "newVotingDelay",
          "type": "uint256"
        }
      ],
      "name": "VotingDelaySet",
      "type": "event"
    },
    {
      "anonymous": false,
      "inputs": [
        {
          "indexed": false,
          "internalType": "uint256",
          "name": "oldVotingPeriod",
          "type": "uint256"
        },
        {
          "indexed": false,
          "internalType": "uint256",
          "name": "newVotingPeriod",
          "type": "uint256"
        }
      ],
      "name": "VotingPeriodSet",
      "type": "event"
    },
    {
      "inputs": [],
      "name": "BALLOT_TYPEHASH",
      "outputs": [
        {
          "internalType": "bytes32",
          "name": "",
          "type": "bytes32"
        }
      ],
      "stateMutability": "view",
      "type": "function"
    },
    {
      "inputs": [],
      "name": "CLOCK_MODE",
      "outputs": [
        {
          "internalType": "string",
          "name": "",
          "type": "string"
        }
      ],
      "stateMutability": "view",
      "type": "function"
    },
    {
      "inputs": [],
      "name": "COUNTING_MODE",
      "outputs": [
        {
          "internalType": "string",
          "name": "",
          "type": "string"
        }
      ],
      "stateMutability": "pure",
      "type": "function"
    },
    {
      "inputs": [],
      "name": "EXTENDED_BALLOT_TYPEHASH",
      "outputs": [
        {
          "internalType": "bytes32",
          "name": "",
          "type": "bytes32"
        }
      ],
      "stateMutability": "view",
      "type": "function"
    },
    {
      "inputs": [
        {
          "internalType": "address[]",
          "name": "targets",
          "type": "address[]"
        },
        {
          "internalType": "uint256[]",
          "name": "values",
          "type": "uint256[]"
        },
        {
          "internalType": "bytes[]",
          "name": "calldatas",
          "type": "bytes[]"
        },
        {
          "internalType": "bytes32",
          "name": "descriptionHash",
          "type": "bytes32"
        }
      ],
      "name": "cancel",
      "outputs": [
        {
          "internalType": "uint256",
          "name": "",
          "type": "uint256"
        }
      ],
      "stateMutability": "nonpayable",
      "type": "function"
    },
    {
      "inputs": [
        {
          "internalType": "uint256",
          "name": "proposalId",
          "type": "uint256"
        },
        {
          "internalType": "uint8",
          "name": "support",
          "type": "uint8"
        }
      ],
      "name": "castVote",
      "outputs": [
        {
          "internalType": "uint256",
          "name": "",
          "type": "uint256"
        }
      ],
      "stateMutability": "nonpayable",
      "type": "function"
    },
    {
      "inputs": [
        {
          "internalType": "uint256",
          "name": "proposalId",
          "type": "uint256"
        },
        {
          "internalType": "uint8",
          "name": "support",
          "type": "uint8"
        },
        {
          "internalType": "address",
          "name": "voter",
          "type": "address"
        },
        {
          "internalType": "bytes",
          "name": "signature",
          "type": "bytes"
        }
      ],
      "name": "castVoteBySig",
      "outputs": [
        {
          "internalType": "uint256",
          "name": "",
          "type": "uint256"
        }
      ],
      "stateMutability": "nonpayable",
      "type": "function"
    },
    {
      "inputs": [
        {
          "internalType": "uint256",
          "name": "proposalId",
          "type": "uint256"
        },
        {
          "internalType": "uint8",
          "name": "support",
          "type": "uint8"
        },
        {
          "internalType": "string",
          "name": "reason",
          "type": "string"
        }
      ],
      "name": "castVoteWithReason",
      "outputs": [
        {
          "internalType": "uint256",
          "name": "",
          "type": "uint256"
        }
      ],
      "stateMutability": "nonpayable",
      "type": "function"
    },
    {
      "inputs": [
        {
          "internalType": "uint256",
          "name": "proposalId",
          "type": "uint256"
        },
        {
          "internalType": "uint8",
          "name": "support",
          "type": "uint8"
        },
        {
          "internalType": "string",
          "name": "reason",
          "type": "string"
        },
        {
          "internalType": "bytes",
          "name": "params",
          "type": "bytes"
        }
      ],
      "name": "castVoteWithReasonAndParams",
      "outputs": [
        {
          "internalType": "uint256",
          "name": "",
          "type": "uint256"
        }
      ],
      "stateMutability": "nonpayable",
      "type": "function"
    },
    {
      "inputs": [
        {
          "internalType": "uint256",
          "name": "proposalId",
          "type": "uint256"
        },
        {
          "internalType": "uint8",
          "name": "support",
          "type": "uint8"
        },
        {
          "internalType": "address",
          "name": "voter",
          "type": "address"
        },
        {
          "internalType": "string",
          "name": "reason",
          "type": "string"
        },
        {
          "internalType": "bytes",
          "name": "params",
          "type": "bytes"
        },
        {
          "internalType": "bytes",
          "name": "signature",
          "type": "bytes"
        }
      ],
      "name": "castVoteWithReasonAndParamsBySig",
      "outputs": [
        {
          "internalType": "uint256",
          "name": "",
          "type": "uint256"
        }
      ],
      "stateMutability": "nonpayable",
      "type": "function"
    },
    {
      "inputs": [],
      "name": "clock",
      "outputs": [
        {
          "internalType": "uint48",
          "name": "",
          "type": "uint48"
        }
      ],
      "stateMutability": "view",
      "type": "function"
    },
    {
      "inputs": [],
      "name": "eip712Domain",
      "outputs": [
        {
          "internalType": "bytes1",
          "name": "fields",
          "type": "bytes1"
        },
        {
          "internalType": "string",
          "name": "name",
          "type": "string"
        },
        {
          "internalType": "string",
          "name": "version",
          "type": "string"
        },
        {
          "internalType": "uint256",
          "name": "chainId",
          "type": "uint256"
        },
        {
          "internalType": "address",
          "name": "verifyingContract",
          "type": "address"
        },
        {
          "internalType": "bytes32",
          "name": "salt",
          "type": "bytes32"
        },
        {
          "internalType": "uint256[]",
          "name": "extensions",
          "type": "uint256[]"
        }
      ],
      "stateMutability": "view",
      "type": "function"
    },
    {
      "inputs": [
        {
          "internalType": "address[]",
          "name": "targets",
          "type": "address[]"
        },
        {
          "internalType": "uint256[]",
          "name": "values",
          "type": "uint256[]"
        },
        {
          "internalType": "bytes[]",
          "name": "calldatas",
          "type": "bytes[]"
        },
        {
          "internalType": "bytes32",
          "name": "descriptionHash",
          "type": "bytes32"
        }
      ],
      "name": "execute",
      "outputs": [
        {
          "internalType": "uint256",
          "name": "",
          "type": "uint256"
        }
      ],
      "stateMutability": "payable",
      "type": "function"
    },
    {
      "inputs": [
        {
          "internalType": "address[]",
          "name": "targets",
          "type": "address[]"
        },
        {
          "internalType": "uint256[]",
          "name": "values",
          "type": "uint256[]"
        },
        {
          "internalType": "bytes[]",
          "name": "calldatas",
          "type": "bytes[]"
        },
        {
          "internalType": "bytes32",
          "name": "descriptionHash",
          "type": "bytes32"
        }
      ],
      "name": "getProposalId",
      "outputs": [
        {
          "internalType": "uint256",
          "name": "",
          "type": "uint256"
        }
      ],
      "stateMutability": "view",
      "type": "function"
    },
    {
      "inputs": [
        {
          "internalType": "address",
          "name": "account",
          "type": "address"
        },
        {
          "internalType": "uint256",
          "name": "timepoint",
          "type": "uint256"
        }
      ],
      "name": "getVotes",
      "outputs": [
        {
          "internalType": "uint256",
          "name": "",
          "type": "uint256"
        }
      ],
      "stateMutability": "view",
      "type": "function"
    },
    {
      "inputs": [
        {
          "internalType": "address",
          "name": "account",
          "type": "address"
        },
        {
          "internalType": "uint256",
          "name": "timepoint",
          "type": "uint256"
        },
        {
          "internalType": "bytes",
          "name": "params",
          "type": "bytes"
        }
      ],
      "name": "getVotesWithParams",
      "outputs": [
        {
          "internalType": "uint256",
          "name": "",
          "type": "uint256"
        }
      ],
      "stateMutability": "view",
      "type": "function"
    },
    {
      "inputs": [
        {
          "internalType": "uint256",
          "name": "proposalId",
          "type": "uint256"
        },
        {
          "internalType": "address",
          "name": "account",
          "type": "address"
        }
      ],
      "name": "hasVoted",
      "outputs": [
        {
          "internalType": "bool",
          "name": "",
          "type": "bool"
        }
      ],
      "stateMutability": "view",
      "type": "function"
    },
    {
      "inputs": [
        {
          "internalType": "address[]",
          "name": "targets",
          "type": "address[]"
        },
        {
          "internalType": "uint256[]",
          "name": "values",
          "type": "uint256[]"
        },
        {
          "internalType": "bytes[]",
          "name": "calldatas",
          "type": "bytes[]"
        },
        {
          "internalType": "bytes32",
          "name": "descriptionHash",
          "type": "bytes32"
        }
      ],
      "name": "hashProposal",
      "outputs": [
        {
          "internalType": "uint256",
          "name": "",
          "type": "uint256"
        }
      ],
      "stateMutability": "pure",
      "type": "function"
    },
    {
      "inputs": [],
      "name": "name",
      "outputs": [
        {
          "internalType": "string",
          "name": "",
          "type": "string"
        }
      ],
      "stateMutability": "view",
      "type": "function"
    },
    {
      "inputs": [
        {
          "internalType": "address",
          "name": "owner",
          "type": "address"
        }
      ],
      "name": "nonces",
      "outputs": [
        {
          "internalType": "uint256",
          "name": "",
          "type": "uint256"
        }
      ],
      "stateMutability": "view",
      "type": "function"
    },
    {
      "inputs": [
        {
          "internalType": "address",
          "name": "",
          "type": "address"
        },
        {
          "internalType": "address",
          "name": "",
          "type": "address"
        },
        {
          "internalType": "uint256[]",
          "name": "",
          "type": "uint256[]"
        },
        {
          "internalType": "uint256[]",
          "name": "",
          "type": "uint256[]"
        },
        {
          "internalType": "bytes",
          "name": "",
          "type": "bytes"
        }
      ],
      "name": "onERC1155BatchReceived",
      "outputs": [
        {
          "internalType": "bytes4",
          "name": "",
          "type": "bytes4"
        }
      ],
      "stateMutability": "nonpayable",
      "type": "function"
    },
    {
      "inputs": [
        {
          "internalType": "address",
          "name": "",
          "type": "address"
        },
        {
          "internalType": "address",
          "name": "",
          "type": "address"
        },
        {
          "internalType": "uint256",
          "name": "",
          "type": "uint256"
        },
        {
          "internalType": "uint256",
          "name": "",
          "type": "uint256"
        },
        {
          "internalType": "bytes",
          "name": "",
          "type": "bytes"
        }
      ],
      "name": "onERC1155Received",
      "outputs": [
        {
          "internalType": "bytes4",
          "name": "",
          "type": "bytes4"
        }
      ],
      "stateMutability": "nonpayable",
      "type": "function"
    },
    {
      "inputs": [
        {
          "internalType": "address",
          "name": "",
          "type": "address"
        },
        {
          "internalType": "address",
          "name": "",
          "type": "address"
        },
        {
          "internalType": "uint256",
          "name": "",
          "type": "uint256"
        },
        {
          "internalType": "bytes",
          "name": "",
          "type": "bytes"
        }
      ],
      "name": "onERC721Received",
      "outputs": [
        {
          "internalType": "bytes4",
          "name": "",
          "type": "bytes4"
        }
      ],
      "stateMutability": "nonpayable",
      "type": "function"
    },
    {
      "inputs": [
        {
          "internalType": "uint256",
          "name": "proposalId",
          "type": "uint256"
        }
      ],
      "name": "proposalDeadline",
      "outputs": [
        {
          "internalType": "uint256",
          "name": "",
          "type": "uint256"
        }
      ],
      "stateMutability": "view",
      "type": "function"
    },
    {
      "inputs": [
        {
          "internalType": "uint256",
          "name": "proposalId",
          "type": "uint256"
        }
      ],
      "name": "proposalEta",
      "outputs": [
        {
          "internalType": "uint256",
          "name": "",
          "type": "uint256"
        }
      ],
      "stateMutability": "view",
      "type": "function"
    },
    {
      "inputs": [
        {
          "internalType": "uint256",
          "name": "proposalId",
          "type": "uint256"
        }
      ],
      "name": "proposalNeedsQueuing",
      "outputs": [
        {
          "internalType": "bool",
          "name": "",
          "type": "bool"
        }
      ],
      "stateMutability": "view",
      "type": "function"
    },
    {
      "inputs": [
        {
          "internalType": "uint256",
          "name": "proposalId",
          "type": "uint256"
        }
      ],
      "name": "proposalProposer",
      "outputs": [
        {
          "internalType": "address",
          "name": "",
          "type": "address"
        }
      ],
      "stateMutability": "view",
      "type": "function"
    },
    {
      "inputs": [
        {
          "internalType": "uint256",
          "name": "proposalId",
          "type": "uint256"
        }
      ],
      "name": "proposalSnapshot",
      "outputs": [
        {
          "internalType": "uint256",
          "name": "",
          "type": "uint256"
        }
      ],
      "stateMutability": "view",
      "type": "function"
    },
    {
      "inputs": [],
      "name": "proposalThreshold",
      "outputs": [
        {
          "internalType": "uint256",
          "name": "",
          "type": "uint256"
        }
      ],
      "stateMutability": "view",
      "type": "function"
    },
    {
      "inputs": [
        {
          "internalType": "uint256",
          "name": "proposalId",
          "type": "uint256"
        }
      ],
      "name": "proposalVotes",
      "outputs": [
        {
          "internalType": "uint256",
          "name": "againstVotes",
          "type": "uint256"
        },
        {
          "internalType": "uint256",
          "name": "forVotes",
          "type": "uint256"
        },
        {
          "internalType": "uint256",
          "name": "abstainVotes",
          "type": "uint256"
        }
      ],
      "stateMutability": "view",
      "type": "function"
    },
    {
      "inputs": [
        {
          "internalType": "address[]",
          "name": "targets",
          "type": "address[]"
        },
        {
          "internalType": "uint256[]",
          "name": "values",
          "type": "uint256[]"
        },
        {
          "internalType": "bytes[]",
          "name": "calldatas",
          "type": "bytes[]"
        },
        {
          "internalType": "string",
          "name": "description",
          "type": "string"
        }
      ],
      "name": "propose",
      "outputs": [
        {
          "internalType": "uint256",
          "name": "",
          "type": "uint256"
        }
      ],
      "stateMutability": "nonpayable",
      "type": "function"
    },
    {
      "inputs": [
        {
          "internalType": "address[]",
          "name": "targets",
          "type": "address[]"
        },
        {
          "internalType": "uint256[]",
          "name": "values",
          "type": "uint256[]"
        },
        {
          "internalType": "bytes[]",
          "name": "calldatas",
          "type": "bytes[]"
        },
        {
          "internalType": "bytes32",
          "name": "descriptionHash",
          "type": "bytes32"
        }
      ],
      "name": "queue",
      "outputs": [
        {
          "internalType": "uint256",
          "name": "",
          "type": "uint256"
        }
      ],
      "stateMutability": "nonpayable",
      "type": "function"
    },
    {
      "inputs": [
        {
          "internalType": "uint256",
          "name": "",
          "type": "uint256"
        }
      ],
      "name": "quorum",
      "outputs": [
        {
          "internalType": "uint256",
          "name": "",
          "type": "uint256"
        }
      ],
      "stateMutability": "pure",
      "type": "function"
    },
    {
      "inputs": [
        {
          "internalType": "address",
          "name": "target",
          "type": "address"
        },
        {
          "internalType": "uint256",
          "name": "value",
          "type": "uint256"
        },
        {
          "internalType": "bytes",
          "name": "data",
          "type": "bytes"
        }
      ],
      "name": "relay",
      "outputs": [],
      "stateMutability": "payable",
      "type": "function"
    },
    {
      "inputs": [
        {
          "internalType": "uint256",
          "name": "newProposalThreshold",
          "type": "uint256"
        }
      ],
      "name": "setProposalThreshold",
      "outputs": [],
      "stateMutability": "nonpayable",
      "type": "function"
    },
    {
      "inputs": [
        {
          "internalType": "uint48",
          "name": "newVotingDelay",
          "type": "uint48"
        }
      ],
      "name": "setVotingDelay",
      "outputs": [],
      "stateMutability": "nonpayable",
      "type": "function"
    },
    {
      "inputs": [
        {
          "internalType": "uint32",
          "name": "newVotingPeriod",
          "type": "uint32"
        }
      ],
      "name": "setVotingPeriod",
      "outputs": [],
      "stateMutability": "nonpayable",
      "type": "function"
    },
    {
      "inputs": [
        {
          "internalType": "uint256",
          "name": "proposalId",
          "type": "uint256"
        }
      ],
      "name": "state",
      "outputs": [
        {
          "internalType": "enum IGovernor.ProposalState",
          "name": "",
          "type": "uint8"
        }
      ],
      "stateMutability": "view",
      "type": "function"
    },
    {
      "inputs": [
        {
          "internalType": "bytes4",
          "name": "interfaceId",
          "type": "bytes4"
        }
      ],
      "name": "supportsInterface",
      "outputs": [
        {
          "internalType": "bool",
          "name": "",
          "type": "bool"
        }
      ],
      "stateMutability": "view",
      "type": "function"
    },
    {
      "inputs": [],
      "name": "timelock",
      "outputs": [
        {
          "internalType": "address",
          "name": "",
          "type": "address"
        }
      ],
      "stateMutability": "view",
      "type": "function"
    },
    {
      "inputs": [],
      "name": "token",
      "outputs": [
        {
          "internalType": "contract IERC5805",
          "name": "",
          "type": "address"
        }
      ],
      "stateMutability": "view",
      "type": "function"
    },
    {
      "inputs": [
        {
          "internalType": "contract TimelockController",
          "name": "newTimelock",
          "type": "address"
        }
      ],
      "name": "updateTimelock",
      "outputs": [],
      "stateMutability": "nonpayable",
      "type": "function"
    },
    {
      "inputs": [],
      "name": "version",
      "outputs": [
        {
          "internalType": "string",
          "name": "",
          "type": "string"
        }
      ],
      "stateMutability": "view",
      "type": "function"
    },
    {
      "inputs": [],
      "name": "votingDelay",
      "outputs": [
        {
          "internalType": "uint256",
          "name": "",
          "type": "uint256"
        }
      ],
      "stateMutability": "view",
      "type": "function"
    },
    {
      "inputs": [],
      "name": "votingPeriod",
      "outputs": [
        {
          "internalType": "uint256",
          "name": "",
          "type": "uint256"
        }
      ],
      "stateMutability": "view",
      "type": "function"
    },
    {
      "stateMutability": "payable",
      "type": "receive"
    }
  ],
  "bytecode": "0x610180604052348015610010575f5ffd5b506040516141ca3803806141ca83398101604081905261002f916103c5565b80826201518062093a8069152d02c7e14af68000006040518060400160405280600b81526020016a44654d61726b657444414f60a81b8152508061007761017060201b60201c565b610081825f61018b565b6101205261009081600161018b565b61014052815160208084019190912060e052815190820120610100524660a05261011c60e05161010051604080517f8b73c3c69bb8fe3d512ecc4cf759cc79239f7b179b0ffacaa9a75d522b39400f60208201529081019290925260608201524660808201523060a08201525f9060c00160405160208183030381529060405280519060200120905090565b60805250503060c05260036101318282610495565b5061013d9050836101bd565b61014682610223565b61014f816102c7565b5050506001600160a01b03166101605261016881610308565b5050506105a7565b6040805180820190915260018152603160f81b602082015290565b5f6020835110156101a65761019f83610371565b90506101b7565b816101b18482610495565b5060ff90505b92915050565b6008546040805165ffffffffffff928316815291831660208301527fc565b045403dc03c2eea82b81a0465edad9e2e7fc4d97e11421c209da93d7a93910160405180910390a16008805465ffffffffffff191665ffffffffffff92909216919091179055565b8063ffffffff165f036102505760405163f1cfbf0560e01b81525f60048201526024015b60405180910390fd5b6008546040805163ffffffff66010000000000009093048316815291831660208301527f7e3f7f0708a84de9203036abaa450dccc85ad5ff52f78c170f3edb55cf5e8828910160405180910390a16008805463ffffffff90921666010000000000000263ffffffff60301b19909216919091179055565b60075460408051918252602082018390527fccb45da8d5717e6c4544694297c4ba5cf151d455c9bb0ed4fc7a38411bc05461910160405180910390a1600755565b600a54604080516001600160a01b03928316815291831660208301527f08f74ea46ef7894f65eabfb5e6e695de773a000b47c529ab559178069b226401910160405180910390a1600a80546001600160a01b0319166001600160a01b0392909216919091179055565b5f5f829050601f8151111561039b578260405163305a27a960e01b8152600401610247919061054f565b80516103a682610584565b179392505050565b6001600160a01b03811681146103c2575f5ffd5b50565b5f5f604083850312156103d6575f5ffd5b82516103e1816103ae565b60208401519092506103f2816103ae565b809150509250929050565b634e487b7160e01b5f52604160045260245ffd5b600181811c9082168061042557607f821691505b60208210810361044357634e487b7160e01b5f52602260045260245ffd5b50919050565b601f82111561049057805f5260205f20601f840160051c8101602085101561046e5750805b601f840160051c820191505b8181101561048d575f815560010161047a565b50505b505050565b81516001600160401b038111156104ae576104ae6103fd565b6104c2816104bc8454610411565b84610449565b6020601f8211600181146104f4575f83156104dd5750848201515b5f19600385901b1c1916600184901b17845561048d565b5f84815260208120601f198516915b828110156105235787850151825560209485019460019092019101610503565b508482101561054057868401515f19600387901b60f8161c191681555b50505050600190811b01905550565b602081525f82518060208401528060208501604085015e5f604082850101526040601f19601f83011684010191505092915050565b80516020808301519190811015610443575f1960209190910360031b1b16919050565b60805160a05160c05160e05161010051610120516101405161016051613bb36106175f395f818161094d01528181610d8f0152818161112e0152611c6401525f611ba801525f611b7c01525f6127f701525f6127cf01525f61272a01525f61275401525f61277e0152613bb35ff3fe60806040526004361061026d575f3560e01c80637ecebe001161014a578063c01f9e37116100be578063e540d01d11610078578063e540d01d14610899578063eb9019d4146108b8578063ece40cc1146108d7578063f23a6e61146108f6578063f8ce560a14610915578063fc0c546a1461093f575f5ffd5b8063c01f9e37146107b3578063c28bc2fa146107d2578063c59057e4146107e5578063d33219b414610804578063dd4e2ba514610821578063deaaa7cc14610866575f5ffd5b8063a890c9101161010f578063a890c910146106ed578063a8f8a6681461070c578063a9a952941461072b578063ab58fb8e1461074a578063b58131b014610780578063bc197c8114610794575f5ffd5b80637ecebe001461062957806384b0196e1461065d5780638ff262e31461068457806391ddadf4146106a35780639a802a6d146106ce575f5ffd5b806343859632116101e157806356781388116101a6578063567813881461056f5780635b8d0e0d1461058e5780635f398a14146105ad57806379051887146105cc5780637b3c71d3146105eb5780637d5e81e21461060a575f5ffd5b80634385963214610478578063452115d6146104c05780634bf5d7e9146104df578063544ffc9c146104f357806354fd4d5014610546575f5ffd5b8063160cbed711610232578063160cbed7146103ac5780632656227d146103cb5780632d63f693146103de5780632fe3e261146103fd5780633932abb1146104305780633e4f49e61461044c575f5ffd5b806301ffc9a7146102a857806302a251a3146102dc57806306fdde0314610307578063143489d014610328578063150b7a0214610374575f5ffd5b366102a4573061027b610971565b6001600160a01b0316146102a257604051637485328f60e11b815260040160405180910390fd5b005b5f5ffd5b3480156102b3575f5ffd5b506102c76102c2366004612bcb565b610989565b60405190151581526020015b60405180910390f35b3480156102e7575f5ffd5b50600854600160301b900463ffffffff165b6040519081526020016102d3565b348015610312575f5ffd5b5061031b6109f5565b6040516102d39190612c20565b348015610333575f5ffd5b5061035c610342366004612c32565b5f908152600460205260409020546001600160a01b031690565b6040516001600160a01b0390911681526020016102d3565b34801561037f575f5ffd5b5061039361038e366004612d20565b610a85565b6040516001600160e01b031990911681526020016102d3565b3480156103b7575f5ffd5b506102f96103c6366004612ee6565b610ac7565b6102f96103d9366004612ee6565b610b93565b3480156103e9575f5ffd5b506102f96103f8366004612c32565b610cfb565b348015610408575f5ffd5b506102f97f3e83946653575f9a39005e1545185629e92736b7528ab20ca3816f315424a81181565b34801561043b575f5ffd5b5060085465ffffffffffff166102f9565b348015610457575f5ffd5b5061046b610466366004612c32565b610d1b565b6040516102d39190612fad565b348015610483575f5ffd5b506102c7610492366004612fbb565b5f8281526009602090815260408083206001600160a01b038516845260030190915290205460ff1692915050565b3480156104cb575f5ffd5b506102f96104da366004612ee6565b610d25565b3480156104ea575f5ffd5b5061031b610d8b565b3480156104fe575f5ffd5b5061052b61050d366004612c32565b5f908152600960205260409020805460018201546002909201549092565b604080519384526020840192909252908201526060016102d3565b348015610551575f5ffd5b506040805180820190915260018152603160f81b602082015261031b565b34801561057a575f5ffd5b506102f9610589366004612ff9565b610e4b565b348015610599575f5ffd5b506102f96105a8366004613067565b610e72565b3480156105b8575f5ffd5b506102f96105c7366004613123565b610f2f565b3480156105d7575f5ffd5b506102a26105e63660046131b7565b610f77565b3480156105f6575f5ffd5b506102f96106053660046131d2565b610f8b565b348015610615575f5ffd5b506102f9610624366004613227565b610fdb565b348015610634575f5ffd5b506102f96106433660046132e3565b6001600160a01b03165f9081526002602052604090205490565b348015610668575f5ffd5b50610671611091565b6040516102d39796959493929190613338565b34801561068f575f5ffd5b506102f961069e3660046133a7565b6110d3565b3480156106ae575f5ffd5b506106b761112b565b60405165ffffffffffff90911681526020016102d3565b3480156106d9575f5ffd5b506102f96106e83660046133f4565b6111b2565b3480156106f8575f5ffd5b506102a26107073660046132e3565b6111c8565b348015610717575f5ffd5b506102f9610726366004612ee6565b6111d9565b348015610736575f5ffd5b506102c7610745366004612c32565b6111e6565b348015610755575f5ffd5b506102f9610764366004612c32565b5f9081526004602052604090206001015465ffffffffffff1690565b34801561078b575f5ffd5b506102f96111ee565b34801561079f575f5ffd5b506103936107ae366004613448565b6111f8565b3480156107be575f5ffd5b506102f96107cd366004612c32565b61123b565b6102a26107e03660046134df565b61127d565b3480156107f0575f5ffd5b506102f96107ff366004612ee6565b6112f9565b34801561080f575f5ffd5b50600a546001600160a01b031661035c565b34801561082c575f5ffd5b506040805180820190915260208082527f737570706f72743d627261766f2671756f72756d3d666f722c6162737461696e9082015261031b565b348015610871575f5ffd5b506102f97ff2aad550cf55f045cb27e9c559f9889fdfb6e6cdaa032301d6ea397784ae51d781565b3480156108a4575f5ffd5b506102a26108b336600461351e565b611332565b3480156108c3575f5ffd5b506102f96108d2366004613541565b611343565b3480156108e2575f5ffd5b506102a26108f1366004612c32565b611362565b348015610901575f5ffd5b5061039361091036600461356b565b611373565b348015610920575f5ffd5b506102f961092f366004612c32565b506a034f086f3b33b68400000090565b34801561094a575f5ffd5b507f000000000000000000000000000000000000000000000000000000000000000061035c565b5f610984600a546001600160a01b031690565b905090565b5f6001600160e01b031982166366defe7760e11b14806109b957506001600160e01b031982166332a2ad4360e11b145b806109d457506001600160e01b03198216630271189760e51b145b806109ef57506301ffc9a760e01b6001600160e01b03198316145b92915050565b606060038054610a04906135c2565b80601f0160208091040260200160405190810160405280929190818152602001828054610a30906135c2565b8015610a7b5780601f10610a5257610100808354040283529160200191610a7b565b820191905f5260205f20905b815481529060010190602001808311610a5e57829003601f168201915b5050505050905090565b5f30610a8f610971565b6001600160a01b031614610ab657604051637485328f60e11b815260040160405180910390fd5b50630a85bd0160e11b949350505050565b5f5f610ad5868686866111d9565b9050610aea81610ae560046113b6565b6113d8565b505f610af98288888888611415565b905065ffffffffffff811615610b70575f82815260046020908152604091829020600101805465ffffffffffff191665ffffffffffff85169081179091558251858152918201527f9a2e42fd6722813d69113e7d0079d3d940171428df7373df9c7f7617cfda2892910160405180910390a1610b89565b604051634844252360e11b815260040160405180910390fd5b5095945050505050565b5f5f610ba1868686866111d9565b9050610bc181610bb160056113b6565b610bbb60046113b6565b176113d8565b505f818152600460205260409020805460ff60f01b1916600160f01b17905530610be9610971565b6001600160a01b031614610c72575f5b8651811015610c7057306001600160a01b0316878281518110610c1e57610c1e6135fa565b60200260200101516001600160a01b031603610c6857610c68858281518110610c4957610c496135fa565b602002602001015180519060200120600561142390919063ffffffff16565b600101610bf9565b505b610c7f8187878787611484565b30610c88610971565b6001600160a01b031614158015610cb457506005546001600160801b03808216600160801b9092041614155b15610cbe575f6005555b6040518181527f712ae1383f79ac853f8d882153778e0260ef8f03b504e2866e0593e04d2b291f906020015b60405180910390a195945050505050565b5f90815260046020526040902054600160a01b900465ffffffffffff1690565b5f6109ef82611498565b5f5f610d33868686866111d9565b905033610d4082826115d1565b610d7457604051638fe5d8a960e01b8152600481018390526001600160a01b03821660248201526044015b60405180910390fd5b610d8087878787611616565b979650505050505050565b60607f00000000000000000000000000000000000000000000000000000000000000006001600160a01b0316634bf5d7e96040518163ffffffff1660e01b81526004015f60405180830381865afa925050508015610e0a57506040513d5f823e601f3d908101601f19168201604052610e07919081019061360e565b60015b610e46575060408051808201909152601d81527f6d6f64653d626c6f636b6e756d6265722666726f6d3d64656661756c74000000602082015290565b919050565b5f80339050610e6a84828560405180602001604052805f815250611623565b949350505050565b5f610eb888888888888080601f0160208091040260200160405190810160405280939291908181526020018383808284375f920191909152508a92508991506116449050565b610ee0576040516394ab6c0760e01b81526001600160a01b0387166004820152602401610d6b565b610f2388878988888080601f0160208091040260200160405190810160405280939291908181526020018383808284375f920191909152508a9250611711915050565b98975050505050505050565b5f80339050610d8087828888888080601f0160208091040260200160405190810160405280939291908181526020018383808284375f920191909152508a9250611711915050565b610f7f6117ef565b610f8881611868565b50565b5f80339050610fd186828787878080601f0160208091040260200160405190810160405280939291908181526020018383808284375f9201919091525061162392505050565b9695505050505050565b5f33610fe781846118ce565b61100f5760405163d9b3955760e01b81526001600160a01b0382166004820152602401610d6b565b5f6110186111ee565b90508015611084575f61104683600161102f61112b565b6110399190613696565b65ffffffffffff16611343565b90508181101561108257604051636121770b60e11b81526001600160a01b03841660048201526024810182905260448101839052606401610d6b565b505b610d808787878786611952565b5f6060805f5f5f60606110a2611b75565b6110aa611ba1565b604080515f80825260208201909252600f60f81b9b939a50919850469750309650945092509050565b5f6110e085858585611bce565b611108576040516394ab6c0760e01b81526001600160a01b0384166004820152602401610d6b565b61112285848660405180602001604052805f815250611623565b95945050505050565b5f7f00000000000000000000000000000000000000000000000000000000000000006001600160a01b03166391ddadf46040518163ffffffff1660e01b8152600401602060405180830381865afa9250505080156111a6575060408051601f3d908101601f191682019092526111a3918101906136b4565b60015b610e4657610984611c57565b5f6111be848484611c61565b90505b9392505050565b6111d06117ef565b610f8881611cf4565b5f611122858585856112f9565b5f60016109ef565b5f61098460075490565b5f30611202610971565b6001600160a01b03161461122957604051637485328f60e11b815260040160405180910390fd5b5063bc197c8160e01b95945050505050565b5f8181526004602052604081205461126f90600160d01b810463ffffffff1690600160a01b900465ffffffffffff166136cf565b65ffffffffffff1692915050565b6112856117ef565b5f5f856001600160a01b03168585856040516112a29291906136ed565b5f6040518083038185875af1925050503d805f81146112dc576040519150601f19603f3d011682016040523d82523d5f602084013e6112e1565b606091505b50915091506112f08282611d5d565b50505050505050565b5f84848484604051602001611311949392919061378f565b60408051601f19818403018152919052805160209091012095945050505050565b61133a6117ef565b610f8881611d79565b5f6111c1838361135d60408051602081019091525f815290565b611c61565b61136a6117ef565b610f8881611e15565b5f3061137d610971565b6001600160a01b0316146113a457604051637485328f60e11b815260040160405180910390fd5b5063f23a6e6160e01b95945050505050565b5f8160078111156113c9576113c9612f79565b600160ff919091161b92915050565b5f5f6113e384610d1b565b90505f836113f0836113b6565b16036111c1578381846040516331b75e4d60e01b8152600401610d6b939291906137d9565b5f610fd18686868686611e56565b81546001600160801b03600160801b82048116918116600183019091160361144f5761144f6041611fe7565b6001600160801b038082165f90815260018086016020526040909120939093558354919092018216600160801b029116179055565b6114918585858585611ff8565b5050505050565b5f5f6114a383612088565b905060058160078111156114b9576114b9612f79565b146114c45792915050565b5f838152600b60205260409081902054600a549151632c258a9f60e11b81526004810182905290916001600160a01b03169063584b153e90602401602060405180830381865afa15801561151a573d5f5f3e3d5ffd5b505050506040513d601f19601f8201168201806040525081019061153e91906137fb565b1561154d575060059392505050565b600a54604051632ab0f52960e01b8152600481018390526001600160a01b0390911690632ab0f52990602401602060405180830381865afa158015611594573d5f5f3e3d5ffd5b505050506040513d601f19601f820116820180604052508101906115b891906137fb565b156115c7575060079392505050565b5060029392505050565b5f806115dc84610d1b565b60078111156115ed576115ed612f79565b1480156111c15750505f91825260046020526040909120546001600160a01b0391821691161490565b5f611122858585856121b9565b5f6111228585858561163f60408051602081019091525f815290565b611711565b5f610d808561170b7f3e83946653575f9a39005e1545185629e92736b7528ab20ca3816f315424a8118a8a8a6116968c6001600160a01b03165f90815260026020526040902080546001810190915590565b8b516020808e01919091208c518d8301206040516116f098979695949301968752602087019590955260ff9390931660408601526001600160a01b03919091166060850152608084015260a083015260c082015260e00190565b60405160208183030381529060405280519060200120612250565b8461227c565b5f61172086610ae560016113b6565b505f6117358661172f89610cfb565b85611c61565b90505f61174588888885886122ec565b905083515f0361179b57866001600160a01b03167fb8e138887d0aa13bab447e82de9d5c1777041ecd21ca36ba824ff1e6c07ddda48988848960405161178e949392919061381a565b60405180910390a2610d80565b866001600160a01b03167fe2babfbac5889a709b63bb7f598b324e08bc5a4fb9ec647fb3cbc9ec07eb871289888489896040516117dc959493929190613841565b60405180910390a2979650505050505050565b336117f8610971565b6001600160a01b031614611821576040516347096e4760e01b8152336004820152602401610d6b565b3061182a610971565b6001600160a01b031614611866575f80366040516118499291906136ed565b604051809103902090505b8061185f60056123e8565b0361185457505b565b6008546040805165ffffffffffff928316815291831660208301527fc565b045403dc03c2eea82b81a0465edad9e2e7fc4d97e11421c209da93d7a93910160405180910390a16008805465ffffffffffff191665ffffffffffff92909216919091179055565b80515f9060348110156118e55760019150506109ef565b60131981840101516001600160b01b03198116692370726f706f7365723d60b01b14611916576001925050506109ef565b5f5f61192686602a860386612455565b91509150811580610d805750866001600160a01b0316816001600160a01b031614979650505050505050565b5f61196686868686805190602001206111d9565b90508451865114158061197b57508351865114155b8061198557508551155b156119ba57855184518651604051630447b05d60e41b8152600481019390935260248301919091526044820152606401610d6b565b5f81815260046020526040902054600160a01b900465ffffffffffff1615611a0357806119e682610d1b565b6040516331b75e4d60e01b8152610d6b9291905f906004016137d9565b5f611a1560085465ffffffffffff1690565b611a1d61112b565b65ffffffffffff16611a2f919061387a565b90505f611a4960085463ffffffff600160301b9091041690565b5f84815260046020526040902080546001600160a01b0319166001600160a01b038716178155909150611a7b83612502565b815465ffffffffffff91909116600160a01b0265ffffffffffff60a01b19909116178155611aa882612538565b815463ffffffff91909116600160d01b0263ffffffff60d01b1990911617815588517f7d84a6263ae0d98d3329bd7b46bb4e8d6f98cd35a7adb45c274c8b7fd5ebd5e090859087908c908c906001600160401b03811115611b0b57611b0b612c5d565b604051908082528060200260200182016040528015611b3e57816020015b6060815260200190600190039081611b295790505b508c89611b4b8a8261387a565b8e604051611b619998979695949392919061388d565b60405180910390a150505095945050505050565b60606109847f00000000000000000000000000000000000000000000000000000000000000005f612568565b60606109847f00000000000000000000000000000000000000000000000000000000000000006001612568565b5f6111228361170b7ff2aad550cf55f045cb27e9c559f9889fdfb6e6cdaa032301d6ea397784ae51d7888888611c208a6001600160a01b03165f90815260026020526040902080546001810190915590565b60408051602081019690965285019390935260ff90911660608401526001600160a01b0316608083015260a082015260c0016116f0565b5f61098443612502565b5f7f0000000000000000000000000000000000000000000000000000000000000000604051630748d63560e31b81526001600160a01b038681166004830152602482018690529190911690633a46b1a890604401602060405180830381865afa158015611cd0573d5f5f3e3d5ffd5b505050506040513d601f19601f820116820180604052508101906111be9190613968565b600a54604080516001600160a01b03928316815291831660208301527f08f74ea46ef7894f65eabfb5e6e695de773a000b47c529ab559178069b226401910160405180910390a1600a80546001600160a01b0319166001600160a01b0392909216919091179055565b606082611d7257611d6d82612611565b6109ef565b50806109ef565b8063ffffffff165f03611da15760405163f1cfbf0560e01b81525f6004820152602401610d6b565b6008546040805163ffffffff600160301b9093048316815291831660208301527f7e3f7f0708a84de9203036abaa450dccc85ad5ff52f78c170f3edb55cf5e8828910160405180910390a16008805463ffffffff909216600160301b0269ffffffff00000000000019909216919091179055565b60075460408051918252602082018390527fccb45da8d5717e6c4544694297c4ba5cf151d455c9bb0ed4fc7a38411bc05461910160405180910390a1600755565b5f5f600a5f9054906101000a90046001600160a01b03166001600160a01b031663f27a0c926040518163ffffffff1660e01b8152600401602060405180830381865afa158015611ea8573d5f5f3e3d5ffd5b505050506040513d601f19601f82011682018060405250810190611ecc9190613968565b90505f3060601b6bffffffffffffffffffffffff19168418600a5460405163b1c5f42760e01b81529192506001600160a01b03169063b1c5f42790611f1d908a908a908a905f90889060040161397f565b602060405180830381865afa158015611f38573d5f5f3e3d5ffd5b505050506040513d601f19601f82011682018060405250810190611f5c9190613968565b5f898152600b602052604080822092909255600a5491516308f2a0bb60e41b81526001600160a01b0390921691638f2a0bb091611fa6918b918b918b919088908a906004016139cc565b5f604051808303815f87803b158015611fbd575f5ffd5b505af1158015611fcf573d5f5f3e3d5ffd5b50505050610f238242611fe2919061387a565b612502565b634e487b715f52806020526024601cfd5b600a546001600160a01b031663e38335e5348686865f3060601b6bffffffffffffffffffffffff191688186040518763ffffffff1660e01b815260040161204395949392919061397f565b5f604051808303818588803b15801561205a575f5ffd5b505af115801561206c573d5f5f3e3d5ffd5b5050505f9687525050600b602052505060408320929092555050565b5f818152600460205260408120805460ff600160f01b8204811691600160f81b90041681156120bc57506007949350505050565b80156120cd57506002949350505050565b5f6120d786610cfb565b9050805f036120fc57604051636ad0607560e01b815260048101879052602401610d6b565b5f61210561112b565b65ffffffffffff16905080821061212257505f9695505050505050565b5f61212c8861123b565b905081811061214357506001979650505050505050565b61214c88612639565b158061216b57505f888152600960205260409020805460019091015411155b1561217e57506003979650505050505050565b5f8881526004602052604090206001015465ffffffffffff165f036121ab57506004979650505050505050565b506005979650505050505050565b5f5f6121c78686868661266f565b5f818152600b60205260409020549091508015610b8957600a5460405163c4d252f560e01b8152600481018390526001600160a01b039091169063c4d252f5906024015f604051808303815f87803b158015612221575f5ffd5b505af1158015612233573d5f5f3e3d5ffd5b5050505f838152600b602052604081205550509050949350505050565b5f6109ef61225c61271e565b8360405161190160f01b8152600281019290925260228201526042902090565b5f836001600160a01b03163b5f036122da575f5f61229a8585612847565b5090925090505f8160038111156122b3576122b3612f79565b1480156122d15750856001600160a01b0316826001600160a01b0316145b925050506111c1565b6122e5848484612890565b90506111c1565b5f8581526009602090815260408083206001600160a01b03881684526003810190925282205460ff161561233e576040516371c6af4960e01b81526001600160a01b0387166004820152602401610d6b565b6001600160a01b0386165f9081526003820160205260409020805460ff1916600117905560ff85166123875783815f015f82825461237c919061387a565b909155506123dd9050565b5f1960ff8616016123a55783816001015f82825461237c919061387a565b60011960ff8616016123c45783816002015f82825461237c919061387a565b6040516303599be160e11b815260040160405180910390fd5b509195945050505050565b80545f906001600160801b0380821691600160801b9004168103612410576124106031611fe7565b6001600160801b038181165f908152600185810160205260408220805492905585546fffffffffffffffffffffffffffffffff19169301909116919091179092555090565b5f5f845183118061246557508284115b1561247457505f9050806124fa565b5f61248085600161387a565b841180156124a8575061060f60f31b61249c8787016020015190565b6001600160f01b031916145b90505f6124b88215156002613a23565b6124c390602861387a565b9050806124d08787613a3a565b036124f1575f5f6124e2898989612966565b90965094506124fa9350505050565b5f5f9350935050505b935093915050565b5f65ffffffffffff821115612534576040516306dfcc6560e41b81526030600482015260248101839052604401610d6b565b5090565b5f63ffffffff821115612534576040516306dfcc6560e41b81526020600482015260248101839052604401610d6b565b606060ff83146125825761257b83612a27565b90506109ef565b81805461258e906135c2565b80601f01602080910402602001604051908101604052809291908181526020018280546125ba906135c2565b80156126055780601f106125dc57610100808354040283529160200191612605565b820191905f5260205f20905b8154815290600101906020018083116125e857829003601f168201915b505050505090506109ef565b80511561262057805160208201fd5b60405163d6bda27560e01b815260040160405180910390fd5b5f8181526009602052604081206002810154600182015461265a919061387a565b61266661092f85610cfb565b11159392505050565b5f5f61267d868686866111d9565b90506126cb8161268d60076113b6565b61269760066113b6565b6126a160026113b6565b60016126ae600782613a4d565b6126b9906002613b41565b6126c39190613a3a565b1818186113d8565b505f818152600460205260409081902080546001600160f81b0316600160f81b179055517f789cf55be980739dad1d0699b93b58e806b51c9d96619bfa8fe0a28abaa7b30c90610cea9083815260200190565b5f306001600160a01b037f00000000000000000000000000000000000000000000000000000000000000001614801561277657507f000000000000000000000000000000000000000000000000000000000000000046145b156127a057507f000000000000000000000000000000000000000000000000000000000000000090565b610984604080517f8b73c3c69bb8fe3d512ecc4cf759cc79239f7b179b0ffacaa9a75d522b39400f60208201527f0000000000000000000000000000000000000000000000000000000000000000918101919091527f000000000000000000000000000000000000000000000000000000000000000060608201524660808201523060a08201525f9060c00160405160208183030381529060405280519060200120905090565b5f5f5f835160410361287e576020840151604085015160608601515f1a61287088828585612a64565b955095509550505050612889565b505081515f91506002905b9250925092565b5f5f5f856001600160a01b031685856040516024016128b0929190613b4f565b60408051601f198184030181529181526020820180516001600160e01b0316630b135d3f60e11b179052516128e59190613b67565b5f60405180830381855afa9150503d805f811461291d576040519150601f19603f3d011682016040523d82523d5f602084013e612922565b606091505b509150915081801561293657506020815110155b8015610fd157508051630b135d3f60e11b9061295b9083016020908101908401613968565b149695505050505050565b5f80848161297586600161387a565b8511801561299d575061060f60f31b6129918388016020015190565b6001600160f01b031916145b90505f6129ad8215156002613a23565b90505f806129bb838a61387a565b90505b87811015612a16575f6129dc6129d78784016020015190565b612b2c565b9050600f8160ff1611156129fb575f5f975097505050505050506124fa565b612a06601084613a23565b60ff9091160191506001016129be565b506001999098509650505050505050565b60605f612a3383612ba4565b6040805160208082528183019092529192505f91906020820181803683375050509182525060208101929092525090565b5f80807f7fffffffffffffffffffffffffffffff5d576e7357a4501ddfe92f46681b20a0841115612a9d57505f91506003905082612b22565b604080515f808252602082018084528a905260ff891692820192909252606081018790526080810186905260019060a0016020604051602081039080840390855afa158015612aee573d5f5f3e3d5ffd5b5050604051601f1901519150506001600160a01b038116612b1957505f925060019150829050612b22565b92505f91508190505b9450945094915050565b5f60f882901c602f81118015612b455750603a8160ff16105b15612b5357602f19016109ef565b60608160ff16118015612b69575060678160ff16105b15612b7757605619016109ef565b60408160ff16118015612b8d575060478160ff16105b15612b9b57603619016109ef565b5060ff92915050565b5f60ff8216601f8111156109ef57604051632cd44ac360e21b815260040160405180910390fd5b5f60208284031215612bdb575f5ffd5b81356001600160e01b0319811681146111c1575f5ffd5b5f81518084528060208401602086015e5f602082860101526020601f19601f83011685010191505092915050565b602081525f6111c16020830184612bf2565b5f60208284031215612c42575f5ffd5b5035919050565b6001600160a01b0381168114610f88575f5ffd5b634e487b7160e01b5f52604160045260245ffd5b604051601f8201601f191681016001600160401b0381118282101715612c9957612c99612c5d565b604052919050565b5f6001600160401b03821115612cb957612cb9612c5d565b50601f01601f191660200190565b5f612cd9612cd484612ca1565b612c71565b9050828152838383011115612cec575f5ffd5b828260208301375f602084830101529392505050565b5f82601f830112612d11575f5ffd5b6111c183833560208501612cc7565b5f5f5f5f60808587031215612d33575f5ffd5b8435612d3e81612c49565b93506020850135612d4e81612c49565b92506040850135915060608501356001600160401b03811115612d6f575f5ffd5b612d7b87828801612d02565b91505092959194509250565b5f6001600160401b03821115612d9f57612d9f612c5d565b5060051b60200190565b5f82601f830112612db8575f5ffd5b8135612dc6612cd482612d87565b8082825260208201915060208360051b860101925085831115612de7575f5ffd5b602085015b83811015610b89578035612dff81612c49565b835260209283019201612dec565b5f82601f830112612e1c575f5ffd5b8135612e2a612cd482612d87565b8082825260208201915060208360051b860101925085831115612e4b575f5ffd5b602085015b83811015610b89578035835260209283019201612e50565b5f82601f830112612e77575f5ffd5b8135612e85612cd482612d87565b8082825260208201915060208360051b860101925085831115612ea6575f5ffd5b602085015b83811015610b895780356001600160401b03811115612ec8575f5ffd5b612ed7886020838a0101612d02565b84525060209283019201612eab565b5f5f5f5f60808587031215612ef9575f5ffd5b84356001600160401b03811115612f0e575f5ffd5b612f1a87828801612da9565b94505060208501356001600160401b03811115612f35575f5ffd5b612f4187828801612e0d565b93505060408501356001600160401b03811115612f5c575f5ffd5b612f6887828801612e68565b949793965093946060013593505050565b634e487b7160e01b5f52602160045260245ffd5b60088110612fa957634e487b7160e01b5f52602160045260245ffd5b9052565b602081016109ef8284612f8d565b5f5f60408385031215612fcc575f5ffd5b823591506020830135612fde81612c49565b809150509250929050565b803560ff81168114610e46575f5ffd5b5f5f6040838503121561300a575f5ffd5b8235915061301a60208401612fe9565b90509250929050565b5f5f83601f840112613033575f5ffd5b5081356001600160401b03811115613049575f5ffd5b602083019150836020828501011115613060575f5ffd5b9250929050565b5f5f5f5f5f5f5f60c0888a03121561307d575f5ffd5b8735965061308d60208901612fe9565b9550604088013561309d81612c49565b945060608801356001600160401b038111156130b7575f5ffd5b6130c38a828b01613023565b90955093505060808801356001600160401b038111156130e1575f5ffd5b6130ed8a828b01612d02565b92505060a08801356001600160401b03811115613108575f5ffd5b6131148a828b01612d02565b91505092959891949750929550565b5f5f5f5f5f60808688031215613137575f5ffd5b8535945061314760208701612fe9565b935060408601356001600160401b03811115613161575f5ffd5b61316d88828901613023565b90945092505060608601356001600160401b0381111561318b575f5ffd5b61319788828901612d02565b9150509295509295909350565b65ffffffffffff81168114610f88575f5ffd5b5f602082840312156131c7575f5ffd5b81356111c1816131a4565b5f5f5f5f606085870312156131e5575f5ffd5b843593506131f560208601612fe9565b925060408501356001600160401b0381111561320f575f5ffd5b61321b87828801613023565b95989497509550505050565b5f5f5f5f6080858703121561323a575f5ffd5b84356001600160401b0381111561324f575f5ffd5b61325b87828801612da9565b94505060208501356001600160401b03811115613276575f5ffd5b61328287828801612e0d565b93505060408501356001600160401b0381111561329d575f5ffd5b6132a987828801612e68565b92505060608501356001600160401b038111156132c4575f5ffd5b8501601f810187136132d4575f5ffd5b612d7b87823560208401612cc7565b5f602082840312156132f3575f5ffd5b81356111c181612c49565b5f8151808452602084019350602083015f5b8281101561332e578151865260209586019590910190600101613310565b5093949350505050565b60ff60f81b8816815260e060208201525f61335660e0830189612bf2565b82810360408401526133688189612bf2565b606084018890526001600160a01b038716608085015260a0840186905283810360c0850152905061339981856132fe565b9a9950505050505050505050565b5f5f5f5f608085870312156133ba575f5ffd5b843593506133ca60208601612fe9565b925060408501356133da81612c49565b915060608501356001600160401b03811115612d6f575f5ffd5b5f5f5f60608486031215613406575f5ffd5b833561341181612c49565b92506020840135915060408401356001600160401b03811115613432575f5ffd5b61343e86828701612d02565b9150509250925092565b5f5f5f5f5f60a0868803121561345c575f5ffd5b853561346781612c49565b9450602086013561347781612c49565b935060408601356001600160401b03811115613491575f5ffd5b61349d88828901612e0d565b93505060608601356001600160401b038111156134b8575f5ffd5b6134c488828901612e0d565b92505060808601356001600160401b0381111561318b575f5ffd5b5f5f5f5f606085870312156134f2575f5ffd5b84356134fd81612c49565b93506020850135925060408501356001600160401b0381111561320f575f5ffd5b5f6020828403121561352e575f5ffd5b813563ffffffff811681146111c1575f5ffd5b5f5f60408385031215613552575f5ffd5b823561355d81612c49565b946020939093013593505050565b5f5f5f5f5f60a0868803121561357f575f5ffd5b853561358a81612c49565b9450602086013561359a81612c49565b9350604086013592506060860135915060808601356001600160401b0381111561318b575f5ffd5b600181811c908216806135d657607f821691505b6020821081036135f457634e487b7160e01b5f52602260045260245ffd5b50919050565b634e487b7160e01b5f52603260045260245ffd5b5f6020828403121561361e575f5ffd5b81516001600160401b03811115613633575f5ffd5b8201601f81018413613643575f5ffd5b8051613651612cd482612ca1565b818152856020838501011115613665575f5ffd5b8160208401602083015e5f91810160200191909152949350505050565b634e487b7160e01b5f52601160045260245ffd5b65ffffffffffff82811682821603908111156109ef576109ef613682565b5f602082840312156136c4575f5ffd5b81516111c1816131a4565b65ffffffffffff81811683821601908111156109ef576109ef613682565b818382375f9101908152919050565b5f8151808452602084019350602083015f5b8281101561332e5781516001600160a01b031686526020958601959091019060010161370e565b5f82825180855260208501945060208160051b830101602085015f5b8381101561378357601f1985840301885261376d838351612bf2565b6020988901989093509190910190600101613751565b50909695505050505050565b608081525f6137a160808301876136fc565b82810360208401526137b381876132fe565b905082810360408401526137c78186613735565b91505082606083015295945050505050565b838152606081016137ed6020830185612f8d565b826040830152949350505050565b5f6020828403121561380b575f5ffd5b815180151581146111c1575f5ffd5b84815260ff84166020820152826040820152608060608201525f610fd16080830184612bf2565b85815260ff8516602082015283604082015260a060608201525f61386860a0830185612bf2565b8281036080840152610f238185612bf2565b808201808211156109ef576109ef613682565b8981526001600160a01b0389166020820152610120604082018190525f906138b79083018a6136fc565b82810360608401526138c9818a6132fe565b9050828103608084015280885180835260208301915060208160051b84010160208b015f5b8381101561392057601f1986840301855261390a838351612bf2565b60209586019590935091909101906001016138ee565b505085810360a0870152613934818b613735565b93505050508560c08401528460e08401528281036101008401526139588185612bf2565b9c9b505050505050505050505050565b5f60208284031215613978575f5ffd5b5051919050565b60a081525f61399160a08301886136fc565b82810360208401526139a381886132fe565b905082810360408401526139b78187613735565b60608401959095525050608001529392505050565b60c081525f6139de60c08301896136fc565b82810360208401526139f081896132fe565b90508281036040840152613a048188613735565b60608401969096525050608081019290925260a0909101529392505050565b80820281158282048414176109ef576109ef613682565b818103818111156109ef576109ef613682565b60ff81811683821601908111156109ef576109ef613682565b6001815b60018411156124fa57808504811115613a8557613a85613682565b6001841615613a9357908102905b60019390931c928002613a6a565b5f82613aaf575060016109ef565b81613abb57505f6109ef565b8160018114613ad15760028114613adb57613af7565b60019150506109ef565b60ff841115613aec57613aec613682565b50506001821b6109ef565b5060208310610133831016604e8410600b8410161715613b1a575081810a6109ef565b613b265f198484613a66565b805f1904821115613b3957613b39613682565b029392505050565b5f6111c160ff841683613aa1565b828152604060208201525f6111be6040830184612bf2565b5f82518060208501845e5f92019182525091905056fea26469706673582212203f7eb2153cbe27bd6bd98b3d1eda6892949736e1f5cd34031fd4b3efd41097f264736f6c634300081b0033",
  "linkReferences": {},
  "deployedLinkReferences": {}
}