{
  "_format": "hh-sol-artifact-1",
  "contractName": "StakingManager",
  "sourceName": "contracts/features/StakingManager.sol",
  "abi": [
    {
      "inputs": [
        {
          "internalType": "address",
          "name": "_dmtToken",
          "type": "address"
        }
      ],
      "stateMutability": "nonpayable",
      "type": "constructor"
    },
    {
      "inputs": [],
      "name": "AccessControlBadConfirmation",
      "type": "error"
    },
    {
      "inputs": [
        {
          "internalType": "address",
          "name": "account",
          "type": "address"
        },
        {
          "internalType": "bytes32",
          "name": "neededRole",
          "type": "bytes32"
        }
      ],
      "name": "AccessControlUnauthorizedAccount",
      "type": "error"
    },
    {
      "inputs": [],
      "name": "EnforcedPause",
      "type": "error"
    },
    {
      "inputs": [],
      "name": "ExpectedPause",
      "type": "error"
    },
    {
      "inputs": [],
      "name": "FundsLocked",
      "type": "error"
    },
    {
      "inputs": [],
      "name": "InsufficientStake",
      "type": "error"
    },
    {
      "inputs": [],
      "name": "InvalidAddress",
      "type": "error"
    },
    {
      "inputs": [],
      "name": "InvalidAmount",
      "type": "error"
    },
    {
      "inputs": [],
      "name": "ReentrancyGuardReentrantCall",
      "type": "error"
    },
    {
      "inputs": [
        {
          "internalType": "address",
          "name": "token",
          "type": "address"
        }
      ],
      "name": "SafeERC20FailedOperation",
      "type": "error"
    },
    {
      "anonymous": false,
      "inputs": [
        {
          "indexed": false,
          "internalType": "address",
          "name": "account",
          "type": "address"
        }
      ],
      "name": "Paused",
      "type": "event"
    },
    {
      "anonymous": false,
      "inputs": [
        {
          "indexed": true,
          "internalType": "bytes32",
          "name": "role",
          "type": "bytes32"
        },
        {
          "indexed": true,
          "internalType": "bytes32",
          "name": "previousAdminRole",
          "type": "bytes32"
        },
        {
          "indexed": true,
          "internalType": "bytes32",
          "name": "newAdminRole",
          "type": "bytes32"
        }
      ],
      "name": "RoleAdminChanged",
      "type": "event"
    },
    {
      "anonymous": false,
      "inputs": [
        {
          "indexed": true,
          "internalType": "bytes32",
          "name": "role",
          "type": "bytes32"
        },
        {
          "indexed": true,
          "internalType": "address",
          "name": "account",
          "type": "address"
        },
        {
          "indexed": true,
          "internalType": "address",
          "name": "sender",
          "type": "address"
        }
      ],
      "name": "RoleGranted",
      "type": "event"
    },
    {
      "anonymous": false,
      "inputs": [
        {
          "indexed": true,
          "internalType": "bytes32",
          "name": "role",
          "type": "bytes32"
        },
        {
          "indexed": true,
          "internalType": "address",
          "name": "account",
          "type": "address"
        },
        {
          "indexed": true,
          "internalType": "address",
          "name": "sender",
          "type": "address"
        }
      ],
      "name": "RoleRevoked",
      "type": "event"
    },
    {
      "anonymous": false,
      "inputs": [
        {
          "indexed": true,
          "internalType": "address",
          "name": "user",
          "type": "address"
        },
        {
          "indexed": false,
          "internalType": "uint256",
          "name": "amount",
          "type": "uint256"
        }
      ],
      "name": "Slashed",
      "type": "event"
    },
    {
      "anonymous": false,
      "inputs": [
        {
          "indexed": true,
          "internalType": "address",
          "name": "user",
          "type": "address"
        },
        {
          "indexed": false,
          "internalType": "uint256",
          "name": "amount",
          "type": "uint256"
        },
        {
          "indexed": false,
          "internalType": "uint256",
          "name": "newTotalStake",
          "type": "uint256"
        }
      ],
      "name": "Staked",
      "type": "event"
    },
    {
      "anonymous": false,
      "inputs": [
        {
          "indexed": false,
          "internalType": "address",
          "name": "account",
          "type": "address"
        }
      ],
      "name": "Unpaused",
      "type": "event"
    },
    {
      "anonymous": false,
      "inputs": [
        {
          "indexed": true,
          "internalType": "address",
          "name": "user",
          "type": "address"
        },
        {
          "indexed": false,
          "internalType": "uint256",
          "name": "amount",
          "type": "uint256"
        },
        {
          "indexed": false,
          "internalType": "uint256",
          "name": "newTotalStake",
          "type": "uint256"
        }
      ],
      "name": "Unstaked",
      "type": "event"
    },
    {
      "inputs": [],
      "name": "ADMIN_ROLE",
      "outputs": [
        {
          "internalType": "bytes32",
          "name": "",
          "type": "bytes32"
        }
      ],
      "stateMutability": "view",
      "type": "function"
    },
    {
      "inputs": [],
      "name": "DEFAULT_ADMIN_ROLE",
      "outputs": [
        {
          "internalType": "bytes32",
          "name": "",
          "type": "bytes32"
        }
      ],
      "stateMutability": "view",
      "type": "function"
    },
    {
      "inputs": [],
      "name": "PROTOCOL_ROLE",
      "outputs": [
        {
          "internalType": "bytes32",
          "name": "",
          "type": "bytes32"
        }
      ],
      "stateMutability": "view",
      "type": "function"
    },
    {
      "inputs": [],
      "name": "arbitratorThreshold",
      "outputs": [
        {
          "internalType": "uint256",
          "name": "",
          "type": "uint256"
        }
      ],
      "stateMutability": "view",
      "type": "function"
    },
    {
      "inputs": [],
      "name": "dmtToken",
      "outputs": [
        {
          "internalType": "contract IDeMarketToken",
          "name": "",
          "type": "address"
        }
      ],
      "stateMutability": "view",
      "type": "function"
    },
    {
      "inputs": [
        {
          "internalType": "address",
          "name": "_user",
          "type": "address"
        }
      ],
      "name": "getAvailableStake",
      "outputs": [
        {
          "internalType": "uint256",
          "name": "",
          "type": "uint256"
        }
      ],
      "stateMutability": "view",
      "type": "function"
    },
    {
      "inputs": [
        {
          "internalType": "bytes32",
          "name": "role",
          "type": "bytes32"
        }
      ],
      "name": "getRoleAdmin",
      "outputs": [
        {
          "internalType": "bytes32",
          "name": "",
          "type": "bytes32"
        }
      ],
      "stateMutability": "view",
      "type": "function"
    },
    {
      "inputs": [
        {
          "internalType": "address",
          "name": "_user",
          "type": "address"
        }
      ],
      "name": "getVotingPower",
      "outputs": [
        {
          "internalType": "uint256",
          "name": "",
          "type": "uint256"
        }
      ],
      "stateMutability": "view",
      "type": "function"
    },
    {
      "inputs": [
        {
          "internalType": "bytes32",
          "name": "role",
          "type": "bytes32"
        },
        {
          "internalType": "address",
          "name": "account",
          "type": "address"
        }
      ],
      "name": "grantRole",
      "outputs": [],
      "stateMutability": "nonpayable",
      "type": "function"
    },
    {
      "inputs": [
        {
          "internalType": "bytes32",
          "name": "role",
          "type": "bytes32"
        },
        {
          "internalType": "address",
          "name": "account",
          "type": "address"
        }
      ],
      "name": "hasRole",
      "outputs": [
        {
          "internalType": "bool",
          "name": "",
          "type": "bool"
        }
      ],
      "stateMutability": "view",
      "type": "function"
    },
    {
      "inputs": [
        {
          "internalType": "address",
          "name": "_user",
          "type": "address"
        }
      ],
      "name": "isArbitrator",
      "outputs": [
        {
          "internalType": "bool",
          "name": "",
          "type": "bool"
        }
      ],
      "stateMutability": "view",
      "type": "function"
    },
    {
      "inputs": [
        {
          "internalType": "address",
          "name": "_user",
          "type": "address"
        },
        {
          "internalType": "uint256",
          "name": "_amount",
          "type": "uint256"
        }
      ],
      "name": "lockStake",
      "outputs": [],
      "stateMutability": "nonpayable",
      "type": "function"
    },
    {
      "inputs": [],
      "name": "pause",
      "outputs": [],
      "stateMutability": "nonpayable",
      "type": "function"
    },
    {
      "inputs": [],
      "name": "paused",
      "outputs": [
        {
          "internalType": "bool",
          "name": "",
          "type": "bool"
        }
      ],
      "stateMutability": "view",
      "type": "function"
    },
    {
      "inputs": [
        {
          "internalType": "bytes32",
          "name": "role",
          "type": "bytes32"
        },
        {
          "internalType": "address",
          "name": "callerConfirmation",
          "type": "address"
        }
      ],
      "name": "renounceRole",
      "outputs": [],
      "stateMutability": "nonpayable",
      "type": "function"
    },
    {
      "inputs": [
        {
          "internalType": "bytes32",
          "name": "role",
          "type": "bytes32"
        },
        {
          "internalType": "address",
          "name": "account",
          "type": "address"
        }
      ],
      "name": "revokeRole",
      "outputs": [],
      "stateMutability": "nonpayable",
      "type": "function"
    },
    {
      "inputs": [
        {
          "internalType": "uint256",
          "name": "_newThreshold",
          "type": "uint256"
        }
      ],
      "name": "setArbitratorThreshold",
      "outputs": [],
      "stateMutability": "nonpayable",
      "type": "function"
    },
    {
      "inputs": [
        {
          "internalType": "address",
          "name": "_contract",
          "type": "address"
        },
        {
          "internalType": "bool",
          "name": "_hasRole",
          "type": "bool"
        }
      ],
      "name": "setProtocolRole",
      "outputs": [],
      "stateMutability": "nonpayable",
      "type": "function"
    },
    {
      "inputs": [
        {
          "internalType": "address",
          "name": "_user",
          "type": "address"
        },
        {
          "internalType": "uint256",
          "name": "_amount",
          "type": "uint256"
        }
      ],
      "name": "slash",
      "outputs": [],
      "stateMutability": "nonpayable",
      "type": "function"
    },
    {
      "inputs": [
        {
          "internalType": "uint256",
          "name": "_amount",
          "type": "uint256"
        }
      ],
      "name": "stake",
      "outputs": [],
      "stateMutability": "nonpayable",
      "type": "function"
    },
    {
      "inputs": [
        {
          "internalType": "address",
          "name": "",
          "type": "address"
        }
      ],
      "name": "stakes",
      "outputs": [
        {
          "internalType": "uint256",
          "name": "amount",
          "type": "uint256"
        },
        {
          "internalType": "uint256",
          "name": "lockedAmount",
          "type": "uint256"
        },
        {
          "internalType": "uint256",
          "name": "since",
          "type": "uint256"
        }
      ],
      "stateMutability": "view",
      "type": "function"
    },
    {
      "inputs": [
        {
          "internalType": "bytes4",
          "name": "interfaceId",
          "type": "bytes4"
        }
      ],
      "name": "supportsInterface",
      "outputs": [
        {
          "internalType": "bool",
          "name": "",
          "type": "bool"
        }
      ],
      "stateMutability": "view",
      "type": "function"
    },
    {
      "inputs": [],
      "name": "totalStaked",
      "outputs": [
        {
          "internalType": "uint256",
          "name": "",
          "type": "uint256"
        }
      ],
      "stateMutability": "view",
      "type": "function"
    },
    {
      "inputs": [
        {
          "internalType": "address",
          "name": "_user",
          "type": "address"
        },
        {
          "internalType": "uint256",
          "name": "_amount",
          "type": "uint256"
        }
      ],
      "name": "unlockStake",
      "outputs": [],
      "stateMutability": "nonpayable",
      "type": "function"
    },
    {
      "inputs": [],
      "name": "unpause",
      "outputs": [],
      "stateMutability": "nonpayable",
      "type": "function"
    },
    {
      "inputs": [
        {
          "internalType": "uint256",
          "name": "_amount",
          "type": "uint256"
        }
      ],
      "name": "unstake",
      "outputs": [],
      "stateMutability": "nonpayable",
      "type": "function"
    }
  ],
  "bytecode": "0x60a060405234801561000f575f5ffd5b506040516110d63803806110d683398101604081905261002e91610159565b600180556001600160a01b0381166100595760405163e6c4247b60e01b815260040160405180910390fd5b6001600160a01b03811660805269010f0cf064dd5920000060045561007e5f336100b0565b506100a97fa49807205ce4d355092ef5a8a18f56e8913cf4a201fbe287825b095693c21775336100b0565b5050610186565b5f828152602081815260408083206001600160a01b038516845290915281205460ff16610150575f838152602081815260408083206001600160a01b03861684529091529020805460ff191660011790556101083390565b6001600160a01b0316826001600160a01b0316847f2f8788117e7eff1d82e926ec794901d17c78024a50270940304540a733656f0d60405160405180910390a4506001610153565b505f5b92915050565b5f60208284031215610169575f5ffd5b81516001600160a01b038116811461017f575f5ffd5b9392505050565b608051610f236101b35f395f81816102cc015281816104f30152818161070d01526109030152610f235ff3fe608060405234801561000f575f5ffd5b5060043610610187575f3560e01c80635c975abb116100d9578063965af6c711610093578063a694fc3a1161006e578063a694fc3a146103a3578063b00f4101146103b6578063bb4d4436146103c9578063d547741f146103f1575f5ffd5b8063965af6c71461035a5780639f6bd2a91461036d578063a217fddf1461039c575f5ffd5b80635c975abb1461030e57806375b238fc146103195780637e36f6621461032d578063817b1cd2146103365780638456cb591461033f57806391d1485414610347575f5ffd5b806321e1625e116101445780632f2ff15d1161011f5780632f2ff15d146102a157806336568abe146102b45780633bf27cf1146102c75780633f4ba83a14610306575f5ffd5b806321e1625e14610259578063248a9ca31461026c5780632e17de781461028e575f5ffd5b806301ffc9a71461018b57806302768de4146101b357806302fb4d85146101d557806314f6b190146101ea57806316934fc4146101fd578063205ccd1c14610246575b5f5ffd5b61019e610199366004610d6f565b610404565b60405190151581526020015b60405180910390f35b6101c75f516020610eae5f395f51905f5281565b6040519081526020016101aa565b6101e86101e3366004610db8565b61043a565b005b6101c76101f8366004610de0565b61059b565b61022b61020b366004610de0565b60036020525f908152604090208054600182015460029092015490919083565b604080519384526020840192909252908201526060016101aa565b6101e8610254366004610df9565b6105c3565b6101e8610267366004610db8565b6105e0565b6101c761027a366004610df9565b5f9081526020819052604090206001015490565b6101e861029c366004610df9565b610664565b6101e86102af366004610e10565b610785565b6101e86102c2366004610e10565b6107af565b6102ee7f000000000000000000000000000000000000000000000000000000000000000081565b6040516001600160a01b0390911681526020016101aa565b6101e86107e7565b60025460ff1661019e565b6101c75f516020610ece5f395f51905f5281565b6101c760045481565b6101c760055481565b6101e8610806565b61019e610355366004610e10565b610825565b6101e8610368366004610db8565b61084d565b61019e61037b366004610de0565b6004546001600160a01b039091165f90815260036020526040902054101590565b6101c75f81565b6101e86103b1366004610df9565b6108be565b6101e86103c4366004610e3a565b6109b6565b6101c76103d7366004610de0565b6001600160a01b03165f9081526003602052604090205490565b6101e86103ff366004610e10565b610a01565b5f6001600160e01b03198216637965db0b60e01b148061043457506301ffc9a760e01b6001600160e01b03198316145b92915050565b5f516020610eae5f395f51905f5261045181610a25565b6001600160a01b0383165f908152600360205260409020805483111561047657805492505b82815f015f8282546104889190610e87565b90915550506001810154156104c757828160010154106104c05782816001015f8282546104b59190610e87565b909155506104c79050565b5f60018201555b8260055f8282546104d89190610e87565b9091555050604051630852cd8d60e31b8152600481018490527f00000000000000000000000000000000000000000000000000000000000000006001600160a01b0316906342966c68906024015f604051808303815f87803b15801561053c575f5ffd5b505af115801561054e573d5f5f3e3d5ffd5b50505050836001600160a01b03167f4ed05e9673c26d2ed44f7ef6a7f2942df0ee3b5e1e17db4b99f9dcd261a339cd8460405161058d91815260200190565b60405180910390a250505050565b6001600160a01b0381165f908152600360205260408120600181015490546104349190610e87565b5f516020610ece5f395f51905f526105da81610a25565b50600455565b5f516020610eae5f395f51905f526105f781610a25565b6001600160a01b0383165f908152600360205260408120600181015481549192916106229190610e87565b905080841115610645576040516378de4a6960e11b815260040160405180910390fd5b83826001015f8282546106589190610e9a565b90915550505050505050565b61066c610a2f565b335f9081526003602052604081209082900361069b5760405163162908e360e11b815260040160405180910390fd5b600181015481545f916106ad91610e87565b9050808311156106d0576040516321bd81c960e11b815260040160405180910390fd5b82825f015f8282546106e29190610e87565b925050819055508260055f8282546106fa9190610e87565b9091555061073490506001600160a01b037f0000000000000000000000000000000000000000000000000000000000000000163385610a59565b815460405133917f7fc4727e062e336010f2c282598ef5f14facb3de68cf8195c2f23e1454b2b74e9161076f91878252602082015260400190565b60405180910390a2505061078260018055565b50565b5f8281526020819052604090206001015461079f81610a25565b6107a98383610ab8565b50505050565b6001600160a01b03811633146107d85760405163334bd91960e11b815260040160405180910390fd5b6107e28282610b47565b505050565b5f516020610ece5f395f51905f526107fe81610a25565b610782610bb0565b5f516020610ece5f395f51905f5261081d81610a25565b610782610c02565b5f918252602082815260408084206001600160a01b0393909316845291905290205460ff1690565b5f516020610eae5f395f51905f5261086481610a25565b6001600160a01b0383165f90815260036020526040902060018101548311156108a05760405163162908e360e11b815260040160405180910390fd5b82816001015f8282546108b39190610e87565b909155505050505050565b6108c6610a2f565b6108ce610c3f565b805f036108ee5760405163162908e360e11b815260040160405180910390fd5b335f81815260036020526040902090610933907f00000000000000000000000000000000000000000000000000000000000000006001600160a01b0316903085610c65565b81815f015f8282546109459190610e9a565b9091555050426002820155600580548391905f90610964908490610e9a565b9091555050805460405133917f1449c6dd7851abc30abf37f57715f492010519147cc2652fbc38202c18a6ee90916109a491868252602082015260400190565b60405180910390a25061078260018055565b5f516020610ece5f395f51905f526109cd81610a25565b81156109ea576107a95f516020610eae5f395f51905f5284610ab8565b6107a95f516020610eae5f395f51905f5284610b47565b5f82815260208190526040902060010154610a1b81610a25565b6107a98383610b47565b6107828133610c9e565b600260015403610a5257604051633ee5aeb560e01b815260040160405180910390fd5b6002600155565b6040516001600160a01b038381166024830152604482018390526107e291859182169063a9059cbb906064015b604051602081830303815290604052915060e01b6020820180516001600160e01b038381831617835250505050610ce0565b5f610ac38383610825565b610b40575f838152602081815260408083206001600160a01b03861684529091529020805460ff19166001179055610af83390565b6001600160a01b0316826001600160a01b0316847f2f8788117e7eff1d82e926ec794901d17c78024a50270940304540a733656f0d60405160405180910390a4506001610434565b505f610434565b5f610b528383610825565b15610b40575f838152602081815260408083206001600160a01b0386168085529252808320805460ff1916905551339286917ff6391f5c32d9c69d2a47ea670b442974b53935d1edc7fd64eb21e047a839171b9190a4506001610434565b610bb8610d4c565b6002805460ff191690557f5db9ee0a495bf2e6ff9c91a7834c1ba4fdd244a5e8aa4e537bd38aeae4b073aa335b6040516001600160a01b03909116815260200160405180910390a1565b610c0a610c3f565b6002805460ff191660011790557f62e78cea01bee320cd4e420270b5ea74000d11b0c9f74754ebdbfc544b05a258610be53390565b60025460ff1615610c635760405163d93c066560e01b815260040160405180910390fd5b565b6040516001600160a01b0384811660248301528381166044830152606482018390526107a99186918216906323b872dd90608401610a86565b610ca88282610825565b610cdc5760405163e2517d3f60e01b81526001600160a01b0382166004820152602481018390526044015b60405180910390fd5b5050565b5f5f60205f8451602086015f885af180610cff576040513d5f823e3d81fd5b50505f513d91508115610d16578060011415610d23565b6001600160a01b0384163b155b156107a957604051635274afe760e01b81526001600160a01b0385166004820152602401610cd3565b60025460ff16610c6357604051638dfc202b60e01b815260040160405180910390fd5b5f60208284031215610d7f575f5ffd5b81356001600160e01b031981168114610d96575f5ffd5b9392505050565b80356001600160a01b0381168114610db3575f5ffd5b919050565b5f5f60408385031215610dc9575f5ffd5b610dd283610d9d565b946020939093013593505050565b5f60208284031215610df0575f5ffd5b610d9682610d9d565b5f60208284031215610e09575f5ffd5b5035919050565b5f5f60408385031215610e21575f5ffd5b82359150610e3160208401610d9d565b90509250929050565b5f5f60408385031215610e4b575f5ffd5b610e5483610d9d565b915060208301358015158114610e68575f5ffd5b809150509250929050565b634e487b7160e01b5f52601160045260245ffd5b8181038181111561043457610434610e73565b8082018082111561043457610434610e7356feba279271fb7bbf76a6f3df3cc57bf80647fcafdea60ec3383d90f459de74e7c0a49807205ce4d355092ef5a8a18f56e8913cf4a201fbe287825b095693c21775a264697066735822122092bc162e995d81b4c42c4ee4160cf70bc3031d7a0a56a6b39963d8bf6bee1f3d64736f6c634300081b0033",
  "linkReferences": {},
  "deployedLinkReferences": {}
}