{
  "_format": "hh-sol-artifact-1",
  "contractName": "DeMarketMarketplace",
  "sourceName": "contracts/core/DeMarketMarketplace.sol",
  "abi": [
    {
      "inputs": [
        {
          "internalType": "address",
          "name": "_treasury",
          "type": "address"
        },
        {
          "internalType": "address",
          "name": "_dmtToken",
          "type": "address"
        },
        {
          "internalType": "address",
          "name": "_arbitrationRegistry",
          "type": "address"
        },
        {
          "internalType": "address",
          "name": "_reputationReview",
          "type": "address"
        }
      ],
      "stateMutability": "nonpayable",
      "type": "constructor"
    },
    {
      "inputs": [],
      "name": "AccessControlBadConfirmation",
      "type": "error"
    },
    {
      "inputs": [
        {
          "internalType": "address",
          "name": "account",
          "type": "address"
        },
        {
          "internalType": "bytes32",
          "name": "neededRole",
          "type": "bytes32"
        }
      ],
      "name": "AccessControlUnauthorizedAccount",
      "type": "error"
    },
    {
      "inputs": [],
      "name": "CannotBuyOwnListing",
      "type": "error"
    },
    {
      "inputs": [],
      "name": "EnforcedPause",
      "type": "error"
    },
    {
      "inputs": [],
      "name": "ExpectedPause",
      "type": "error"
    },
    {
      "inputs": [],
      "name": "FeeTooHigh",
      "type": "error"
    },
    {
      "inputs": [],
      "name": "InsufficientStock",
      "type": "error"
    },
    {
      "inputs": [],
      "name": "InvalidAddress",
      "type": "error"
    },
    {
      "inputs": [],
      "name": "InvalidAmount",
      "type": "error"
    },
    {
      "inputs": [],
      "name": "InvalidEscrowStatus",
      "type": "error"
    },
    {
      "inputs": [],
      "name": "InvalidPrice",
      "type": "error"
    },
    {
      "inputs": [],
      "name": "InvalidQuantity",
      "type": "error"
    },
    {
      "inputs": [],
      "name": "ListingNotActive",
      "type": "error"
    },
    {
      "inputs": [],
      "name": "NotArbitrator",
      "type": "error"
    },
    {
      "inputs": [],
      "name": "NotAuthorized",
      "type": "error"
    },
    {
      "inputs": [],
      "name": "NotBuyer",
      "type": "error"
    },
    {
      "inputs": [],
      "name": "NotSeller",
      "type": "error"
    },
    {
      "inputs": [],
      "name": "ReentrancyGuardReentrantCall",
      "type": "error"
    },
    {
      "inputs": [
        {
          "internalType": "address",
          "name": "token",
          "type": "address"
        }
      ],
      "name": "SafeERC20FailedOperation",
      "type": "error"
    },
    {
      "inputs": [],
      "name": "TokenNotAllowed",
      "type": "error"
    },
    {
      "anonymous": false,
      "inputs": [
        {
          "indexed": true,
          "internalType": "uint256",
          "name": "listingId",
          "type": "uint256"
        },
        {
          "indexed": false,
          "internalType": "uint256",
          "name": "amountBurned",
          "type": "uint256"
        },
        {
          "indexed": false,
          "internalType": "uint256",
          "name": "durationSeconds",
          "type": "uint256"
        }
      ],
      "name": "BoostActivated",
      "type": "event"
    },
    {
      "anonymous": false,
      "inputs": [
        {
          "indexed": true,
          "internalType": "uint256",
          "name": "escrowId",
          "type": "uint256"
        },
        {
          "indexed": true,
          "internalType": "address",
          "name": "initiator",
          "type": "address"
        },
        {
          "indexed": false,
          "internalType": "uint256",
          "name": "disputeId",
          "type": "uint256"
        }
      ],
      "name": "DisputeOpened",
      "type": "event"
    },
    {
      "anonymous": false,
      "inputs": [
        {
          "indexed": true,
          "internalType": "uint256",
          "name": "escrowId",
          "type": "uint256"
        },
        {
          "indexed": true,
          "internalType": "address",
          "name": "winner",
          "type": "address"
        }
      ],
      "name": "DisputeResolved",
      "type": "event"
    },
    {
      "anonymous": false,
      "inputs": [
        {
          "indexed": true,
          "internalType": "uint256",
          "name": "listingId",
          "type": "uint256"
        }
      ],
      "name": "ListingCancelled",
      "type": "event"
    },
    {
      "anonymous": false,
      "inputs": [
        {
          "indexed": true,
          "internalType": "uint256",
          "name": "listingId",
          "type": "uint256"
        },
        {
          "indexed": true,
          "internalType": "address",
          "name": "seller",
          "type": "address"
        },
        {
          "indexed": false,
          "internalType": "uint256",
          "name": "price",
          "type": "uint256"
        },
        {
          "indexed": false,
          "internalType": "address",
          "name": "token",
          "type": "address"
        },
        {
          "indexed": false,
          "internalType": "string",
          "name": "ipfsCid",
          "type": "string"
        }
      ],
      "name": "ListingCreated",
      "type": "event"
    },
    {
      "anonymous": false,
      "inputs": [
        {
          "indexed": true,
          "internalType": "uint256",
          "name": "listingId",
          "type": "uint256"
        },
        {
          "indexed": false,
          "internalType": "uint256",
          "name": "newPrice",
          "type": "uint256"
        },
        {
          "indexed": false,
          "internalType": "uint256",
          "name": "newQuantity",
          "type": "uint256"
        }
      ],
      "name": "ListingUpdated",
      "type": "event"
    },
    {
      "anonymous": false,
      "inputs": [
        {
          "indexed": false,
          "internalType": "address",
          "name": "account",
          "type": "address"
        }
      ],
      "name": "Paused",
      "type": "event"
    },
    {
      "anonymous": false,
      "inputs": [
        {
          "indexed": false,
          "internalType": "uint256",
          "name": "newFeeBps",
          "type": "uint256"
        }
      ],
      "name": "PlatformFeeChanged",
      "type": "event"
    },
    {
      "anonymous": false,
      "inputs": [
        {
          "indexed": true,
          "internalType": "uint256",
          "name": "escrowId",
          "type": "uint256"
        },
        {
          "indexed": true,
          "internalType": "address",
          "name": "buyer",
          "type": "address"
        },
        {
          "indexed": true,
          "internalType": "address",
          "name": "seller",
          "type": "address"
        },
        {
          "indexed": false,
          "internalType": "uint256",
          "name": "amount",
          "type": "uint256"
        }
      ],
      "name": "PurchaseCompleted",
      "type": "event"
    },
    {
      "anonymous": false,
      "inputs": [
        {
          "indexed": true,
          "internalType": "uint256",
          "name": "escrowId",
          "type": "uint256"
        },
        {
          "indexed": true,
          "internalType": "uint256",
          "name": "listingId",
          "type": "uint256"
        },
        {
          "indexed": true,
          "internalType": "address",
          "name": "buyer",
          "type": "address"
        },
        {
          "indexed": false,
          "internalType": "address",
          "name": "seller",
          "type": "address"
        },
        {
          "indexed": false,
          "internalType": "uint256",
          "name": "amount",
          "type": "uint256"
        }
      ],
      "name": "PurchaseInitiated",
      "type": "event"
    },
    {
      "anonymous": false,
      "inputs": [
        {
          "indexed": true,
          "internalType": "bytes32",
          "name": "role",
          "type": "bytes32"
        },
        {
          "indexed": true,
          "internalType": "bytes32",
          "name": "previousAdminRole",
          "type": "bytes32"
        },
        {
          "indexed": true,
          "internalType": "bytes32",
          "name": "newAdminRole",
          "type": "bytes32"
        }
      ],
      "name": "RoleAdminChanged",
      "type": "event"
    },
    {
      "anonymous": false,
      "inputs": [
        {
          "indexed": true,
          "internalType": "bytes32",
          "name": "role",
          "type": "bytes32"
        },
        {
          "indexed": true,
          "internalType": "address",
          "name": "account",
          "type": "address"
        },
        {
          "indexed": true,
          "internalType": "address",
          "name": "sender",
          "type": "address"
        }
      ],
      "name": "RoleGranted",
      "type": "event"
    },
    {
      "anonymous": false,
      "inputs": [
        {
          "indexed": true,
          "internalType": "bytes32",
          "name": "role",
          "type": "bytes32"
        },
        {
          "indexed": true,
          "internalType": "address",
          "name": "account",
          "type": "address"
        },
        {
          "indexed": true,
          "internalType": "address",
          "name": "sender",
          "type": "address"
        }
      ],
      "name": "RoleRevoked",
      "type": "event"
    },
    {
      "anonymous": false,
      "inputs": [
        {
          "indexed": true,
          "internalType": "address",
          "name": "token",
          "type": "address"
        },
        {
          "indexed": false,
          "internalType": "bool",
          "name": "allowed",
          "type": "bool"
        }
      ],
      "name": "TokenStatusChanged",
      "type": "event"
    },
    {
      "anonymous": false,
      "inputs": [
        {
          "indexed": false,
          "internalType": "address",
          "name": "account",
          "type": "address"
        }
      ],
      "name": "Unpaused",
      "type": "event"
    },
    {
      "inputs": [],
      "name": "ADMIN_ROLE",
      "outputs": [
        {
          "internalType": "bytes32",
          "name": "",
          "type": "bytes32"
        }
      ],
      "stateMutability": "view",
      "type": "function"
    },
    {
      "inputs": [],
      "name": "DEFAULT_ADMIN_ROLE",
      "outputs": [
        {
          "internalType": "bytes32",
          "name": "",
          "type": "bytes32"
        }
      ],
      "stateMutability": "view",
      "type": "function"
    },
    {
      "inputs": [],
      "name": "GOVERNANCE_ROLE",
      "outputs": [
        {
          "internalType": "bytes32",
          "name": "",
          "type": "bytes32"
        }
      ],
      "stateMutability": "view",
      "type": "function"
    },
    {
      "inputs": [],
      "name": "MAX_FEE_BPS",
      "outputs": [
        {
          "internalType": "uint256",
          "name": "",
          "type": "uint256"
        }
      ],
      "stateMutability": "view",
      "type": "function"
    },
    {
      "inputs": [
        {
          "internalType": "address",
          "name": "",
          "type": "address"
        }
      ],
      "name": "allowedTokens",
      "outputs": [
        {
          "internalType": "bool",
          "name": "",
          "type": "bool"
        }
      ],
      "stateMutability": "view",
      "type": "function"
    },
    {
      "inputs": [],
      "name": "arbitrationRegistry",
      "outputs": [
        {
          "internalType": "contract IArbitrationRegistry",
          "name": "",
          "type": "address"
        }
      ],
      "stateMutability": "view",
      "type": "function"
    },
    {
      "inputs": [
        {
          "internalType": "uint256",
          "name": "_listingId",
          "type": "uint256"
        },
        {
          "internalType": "uint256",
          "name": "_amountDmt",
          "type": "uint256"
        },
        {
          "internalType": "uint256",
          "name": "_durationSeconds",
          "type": "uint256"
        }
      ],
      "name": "boostListing",
      "outputs": [],
      "stateMutability": "nonpayable",
      "type": "function"
    },
    {
      "inputs": [
        {
          "internalType": "uint256",
          "name": "_listingId",
          "type": "uint256"
        },
        {
          "internalType": "uint256",
          "name": "_quantity",
          "type": "uint256"
        }
      ],
      "name": "buy",
      "outputs": [],
      "stateMutability": "nonpayable",
      "type": "function"
    },
    {
      "inputs": [
        {
          "internalType": "uint256",
          "name": "_listingId",
          "type": "uint256"
        }
      ],
      "name": "cancelListing",
      "outputs": [],
      "stateMutability": "nonpayable",
      "type": "function"
    },
    {
      "inputs": [
        {
          "internalType": "uint256",
          "name": "_escrowId",
          "type": "uint256"
        }
      ],
      "name": "confirmReceipt",
      "outputs": [],
      "stateMutability": "nonpayable",
      "type": "function"
    },
    {
      "inputs": [
        {
          "internalType": "address",
          "name": "_token",
          "type": "address"
        },
        {
          "internalType": "uint256",
          "name": "_price",
          "type": "uint256"
        },
        {
          "internalType": "uint256",
          "name": "_quantity",
          "type": "uint256"
        },
        {
          "internalType": "string",
          "name": "_ipfsCid",
          "type": "string"
        }
      ],
      "name": "createListing",
      "outputs": [],
      "stateMutability": "nonpayable",
      "type": "function"
    },
    {
      "inputs": [],
      "name": "dmtToken",
      "outputs": [
        {
          "internalType": "contract IDeMarketToken",
          "name": "",
          "type": "address"
        }
      ],
      "stateMutability": "view",
      "type": "function"
    },
    {
      "inputs": [
        {
          "internalType": "uint256",
          "name": "",
          "type": "uint256"
        }
      ],
      "name": "escrows",
      "outputs": [
        {
          "internalType": "uint256",
          "name": "id",
          "type": "uint256"
        },
        {
          "internalType": "uint256",
          "name": "listingId",
          "type": "uint256"
        },
        {
          "internalType": "address",
          "name": "buyer",
          "type": "address"
        },
        {
          "internalType": "address",
          "name": "seller",
          "type": "address"
        },
        {
          "internalType": "uint256",
          "name": "amount",
          "type": "uint256"
        },
        {
          "internalType": "address",
          "name": "token",
          "type": "address"
        },
        {
          "internalType": "enum DataTypes.EscrowStatus",
          "name": "status",
          "type": "uint8"
        },
        {
          "internalType": "uint256",
          "name": "createdAt",
          "type": "uint256"
        },
        {
          "internalType": "uint256",
          "name": "disputeId",
          "type": "uint256"
        }
      ],
      "stateMutability": "view",
      "type": "function"
    },
    {
      "inputs": [
        {
          "internalType": "bytes32",
          "name": "role",
          "type": "bytes32"
        }
      ],
      "name": "getRoleAdmin",
      "outputs": [
        {
          "internalType": "bytes32",
          "name": "",
          "type": "bytes32"
        }
      ],
      "stateMutability": "view",
      "type": "function"
    },
    {
      "inputs": [
        {
          "internalType": "bytes32",
          "name": "role",
          "type": "bytes32"
        },
        {
          "internalType": "address",
          "name": "account",
          "type": "address"
        }
      ],
      "name": "grantRole",
      "outputs": [],
      "stateMutability": "nonpayable",
      "type": "function"
    },
    {
      "inputs": [
        {
          "internalType": "bytes32",
          "name": "role",
          "type": "bytes32"
        },
        {
          "internalType": "address",
          "name": "account",
          "type": "address"
        }
      ],
      "name": "hasRole",
      "outputs": [
        {
          "internalType": "bool",
          "name": "",
          "type": "bool"
        }
      ],
      "stateMutability": "view",
      "type": "function"
    },
    {
      "inputs": [
        {
          "internalType": "uint256",
          "name": "",
          "type": "uint256"
        }
      ],
      "name": "listings",
      "outputs": [
        {
          "internalType": "uint256",
          "name": "id",
          "type": "uint256"
        },
        {
          "internalType": "address",
          "name": "seller",
          "type": "address"
        },
        {
          "internalType": "address",
          "name": "token",
          "type": "address"
        },
        {
          "internalType": "uint256",
          "name": "price",
          "type": "uint256"
        },
        {
          "internalType": "uint256",
          "name": "quantity",
          "type": "uint256"
        },
        {
          "internalType": "string",
          "name": "ipfsCid",
          "type": "string"
        },
        {
          "internalType": "enum DataTypes.ListingStatus",
          "name": "status",
          "type": "uint8"
        },
        {
          "internalType": "uint256",
          "name": "createdAt",
          "type": "uint256"
        }
      ],
      "stateMutability": "view",
      "type": "function"
    },
    {
      "inputs": [],
      "name": "nextEscrowId",
      "outputs": [
        {
          "internalType": "uint256",
          "name": "",
          "type": "uint256"
        }
      ],
      "stateMutability": "view",
      "type": "function"
    },
    {
      "inputs": [],
      "name": "nextListingId",
      "outputs": [
        {
          "internalType": "uint256",
          "name": "",
          "type": "uint256"
        }
      ],
      "stateMutability": "view",
      "type": "function"
    },
    {
      "inputs": [
        {
          "internalType": "uint256",
          "name": "_escrowId",
          "type": "uint256"
        },
        {
          "internalType": "string",
          "name": "_reasonCid",
          "type": "string"
        }
      ],
      "name": "openDispute",
      "outputs": [],
      "stateMutability": "nonpayable",
      "type": "function"
    },
    {
      "inputs": [],
      "name": "pause",
      "outputs": [],
      "stateMutability": "nonpayable",
      "type": "function"
    },
    {
      "inputs": [],
      "name": "paused",
      "outputs": [
        {
          "internalType": "bool",
          "name": "",
          "type": "bool"
        }
      ],
      "stateMutability": "view",
      "type": "function"
    },
    {
      "inputs": [],
      "name": "platformFeeBps",
      "outputs": [
        {
          "internalType": "uint256",
          "name": "",
          "type": "uint256"
        }
      ],
      "stateMutability": "view",
      "type": "function"
    },
    {
      "inputs": [
        {
          "internalType": "bytes32",
          "name": "role",
          "type": "bytes32"
        },
        {
          "internalType": "address",
          "name": "callerConfirmation",
          "type": "address"
        }
      ],
      "name": "renounceRole",
      "outputs": [],
      "stateMutability": "nonpayable",
      "type": "function"
    },
    {
      "inputs": [],
      "name": "reputationReview",
      "outputs": [
        {
          "internalType": "contract IReputationReview",
          "name": "",
          "type": "address"
        }
      ],
      "stateMutability": "view",
      "type": "function"
    },
    {
      "inputs": [
        {
          "internalType": "uint256",
          "name": "_escrowId",
          "type": "uint256"
        },
        {
          "internalType": "address",
          "name": "_winner",
          "type": "address"
        }
      ],
      "name": "resolveDispute",
      "outputs": [],
      "stateMutability": "nonpayable",
      "type": "function"
    },
    {
      "inputs": [
        {
          "internalType": "bytes32",
          "name": "role",
          "type": "bytes32"
        },
        {
          "internalType": "address",
          "name": "account",
          "type": "address"
        }
      ],
      "name": "revokeRole",
      "outputs": [],
      "stateMutability": "nonpayable",
      "type": "function"
    },
    {
      "inputs": [
        {
          "internalType": "address",
          "name": "_token",
          "type": "address"
        },
        {
          "internalType": "bool",
          "name": "_allowed",
          "type": "bool"
        }
      ],
      "name": "setAllowedToken",
      "outputs": [],
      "stateMutability": "nonpayable",
      "type": "function"
    },
    {
      "inputs": [
        {
          "internalType": "address",
          "name": "_arbitrationRegistry",
          "type": "address"
        },
        {
          "internalType": "address",
          "name": "_reputationReview",
          "type": "address"
        }
      ],
      "name": "setDependencies",
      "outputs": [],
      "stateMutability": "nonpayable",
      "type": "function"
    },
    {
      "inputs": [
        {
          "internalType": "uint256",
          "name": "_bps",
          "type": "uint256"
        }
      ],
      "name": "setPlatformFee",
      "outputs": [],
      "stateMutability": "nonpayable",
      "type": "function"
    },
    {
      "inputs": [
        {
          "internalType": "address",
          "name": "_newTreasury",
          "type": "address"
        }
      ],
      "name": "setTreasury",
      "outputs": [],
      "stateMutability": "nonpayable",
      "type": "function"
    },
    {
      "inputs": [
        {
          "internalType": "bytes4",
          "name": "interfaceId",
          "type": "bytes4"
        }
      ],
      "name": "supportsInterface",
      "outputs": [
        {
          "internalType": "bool",
          "name": "",
          "type": "bool"
        }
      ],
      "stateMutability": "view",
      "type": "function"
    },
    {
      "inputs": [],
      "name": "treasury",
      "outputs": [
        {
          "internalType": "address",
          "name": "",
          "type": "address"
        }
      ],
      "stateMutability": "view",
      "type": "function"
    },
    {
      "inputs": [],
      "name": "unpause",
      "outputs": [],
      "stateMutability": "nonpayable",
      "type": "function"
    },
    {
      "inputs": [
        {
          "internalType": "uint256",
          "name": "_listingId",
          "type": "uint256"
        },
        {
          "internalType": "uint256",
          "name": "_newPrice",
          "type": "uint256"
        },
        {
          "internalType": "uint256",
          "name": "_newQuantity",
          "type": "uint256"
        }
      ],
      "name": "updateListing",
      "outputs": [],
      "stateMutability": "nonpayable",
      "type": "function"
    }
  ],
  "bytecode": "0x608060405234801561000f575f5ffd5b5060405161212a38038061212a83398101604081905261002e9161020b565b60015f556001600160a01b0384166100595760405163e6c4247b60e01b815260040160405180910390fd5b6001600160a01b0383166100805760405163e6c4247b60e01b815260040160405180910390fd5b600580546001600160a01b038087166001600160a01b031992831617909255600c8054868416908316179055600a8054858416908316179055600b8054928416929091169190911790556064600655600160038190556004556100e35f33610143565b5061010e7fa49807205ce4d355092ef5a8a18f56e8913cf4a201fbe287825b095693c2177533610143565b506101397f71840dc4906352362b0cdaf79870196c8e42acafade72d5d5a6d59291253ceb133610143565b505050505061025c565b5f8281526002602090815260408083206001600160a01b038516845290915281205460ff166101e7575f8381526002602090815260408083206001600160a01b03861684529091529020805460ff1916600117905561019f3390565b6001600160a01b0316826001600160a01b0316847f2f8788117e7eff1d82e926ec794901d17c78024a50270940304540a733656f0d60405160405180910390a45060016101ea565b505f5b92915050565b80516001600160a01b0381168114610206575f5ffd5b919050565b5f5f5f5f6080858703121561021e575f5ffd5b610227856101f0565b9350610235602086016101f0565b9250610243604086016101f0565b9150610251606086016101f0565b905092959194509250565b611ec1806102695f395ff3fe608060405234801561000f575f5ffd5b5060043610610208575f3560e01c80638456cb591161011f578063d55be8c6116100a9578063e87c28a711610079578063e87c28a7146104d5578063ee9c2827146104e8578063f0f44260146104fb578063f36c8f5c1461050e578063f6cf2a1614610535575f5ffd5b8063d55be8c614610470578063d6febde814610479578063de74e57b1461048c578063e744092e146104b3575f5ffd5b806391d14854116100ef57806391d14854146104275780639c0baa531461043a578063a217fddf1461044d578063aaccf1ec14610454578063d547741f1461045d575f5ffd5b80638456cb59146103f057806388f4450d146103f857806389cb29dd1461040b5780638aaa228414610414575f5ffd5b806336568abe116101a05780635c975abb116101705780635c975abb1461039857806361d027b3146103a357806370f7cb04146103b657806375b238fc146103c9578063843cba13146103dd575f5ffd5b806336568abe1461033f57806336f691c4146103525780633bf27cf1146103655780633f4ba83a14610390575f5ffd5b806322dcd13e116101db57806322dcd13e146102e0578063248a9ca3146102f75780632f2ff15d14610319578063305a67a81461032c575f5ffd5b8063012f52ee1461020c57806301ffc9a7146102955780630e33599d146102b857806312e8e2c3146102cd575b5f5ffd5b61027761021a36600461189d565b60096020525f908152604090208054600182015460028301546003840154600485015460058601546006870154600790970154959694956001600160a01b039485169593851694929392821692600160a01b90920460ff16919089565b60405161028c999897969594939291906118c8565b60405180910390f35b6102a86102a336600461192e565b610548565b604051901515815260200161028c565b6102cb6102c6366004611977565b61057e565b005b6102cb6102db36600461189d565b610718565b6102e960065481565b60405190815260200161028c565b6102e961030536600461189d565b5f9081526002602052604090206001015490565b6102cb610327366004611977565b6107a1565b6102cb61033a36600461189d565b6107cb565b6102cb61034d366004611977565b61089c565b6102cb6103603660046119e6565b6108d4565b600c54610378906001600160a01b031681565b6040516001600160a01b03909116815260200161028c565b6102cb610a5f565b60015460ff166102a8565b600554610378906001600160a01b031681565b600b54610378906001600160a01b031681565b6102e95f516020611e6c5f395f51905f5281565b6102cb6103eb36600461189d565b610a81565b6102cb610c66565b6102cb610406366004611a2e565b610c85565b6102e960045481565b6102cb610422366004611a91565b610ea4565b6102a8610435366004611977565b610f1a565b600a54610378906001600160a01b031681565b6102e95f81565b6102e960035481565b6102cb61046b366004611977565b610f44565b6102e96103e881565b6102cb610487366004611aca565b610f68565b61049f61049a36600461189d565b6111ef565b60405161028c989796959493929190611afe565b6102a86104c1366004611b80565b60076020525f908152604090205460ff1681565b6102cb6104e3366004611b99565b6112c9565b6102cb6104f6366004611bc1565b61130f565b6102cb610509366004611b80565b61141d565b6102e97f71840dc4906352362b0cdaf79870196c8e42acafade72d5d5a6d59291253ceb181565b6102cb610543366004611bc1565b61147e565b5f6001600160e01b03198216637965db0b60e01b148061057857506301ffc9a760e01b6001600160e01b03198316145b92915050565b610586611557565b600a546001600160a01b031633146105b15760405163667f86ef60e01b815260040160405180910390fd5b5f82815260096020526040902060026005820154600160a01b900460ff1660048111156105e0576105e06118b4565b146105fe5760405163268afcc560e21b815260040160405180910390fd5b60058101805460ff60a01b1916600360a01b17905560028101546001600160a01b039081169083160361065757600281015460048201546005830154610652926001600160a01b039182169291169061157f565b6106d5565b5f612710600654836004015461066d9190611bfe565b6106779190611c15565b90505f81836004015461068a9190611c34565b905081156106b15760058054908401546106b1916001600160a01b0391821691168461157f565b600383015460058401546106d2916001600160a01b0391821691168361157f565b50505b6040516001600160a01b0383169084907ff77ceb5e091d2da041bc760667f9d5fe7a756949eaf29250ad0e60ca6f4c27d9905f90a35061071460015f55565b5050565b7f71840dc4906352362b0cdaf79870196c8e42acafade72d5d5a6d59291253ceb1610742816115de565b6103e88211156107655760405163cd4e616760e01b815260040160405180910390fd5b60068290556040518281527f72b05fd7e6e407beabebd17ae121166880efdc19a2a9b08063eafc0c001e470a9060200160405180910390a15050565b5f828152600260205260409020600101546107bb816115de565b6107c583836115e8565b50505050565b5f81815260086020526040902060018101546001600160a01b0316331480159061080957506108075f516020611e6c5f395f51905f5233610f1a565b155b156108275760405163ea8e4eb560e01b815260040160405180910390fd5b5f600682015460ff166002811115610841576108416118b4565b1461085f576040516366cb03e960e01b815260040160405180910390fd5b60068101805460ff1916600217905560405182907f411aee90354c51b1b04cd563fcab2617142a9d50da19232d888547c8a1b7fd8a905f90a25050565b6001600160a01b03811633146108c55760405163334bd91960e11b815260040160405180910390fd5b6108cf8282611679565b505050565b6108dc611557565b5f83815260096020526040902060028101546001600160a01b03163314801590610913575060038101546001600160a01b03163314155b156109315760405163ea8e4eb560e01b815260040160405180910390fd5b5f6005820154600160a01b900460ff166004811115610952576109526118b4565b146109705760405163268afcc560e21b815260040160405180910390fd5b60058101805460ff60a01b1916600160a11b179055600a5460028201546003830154600480850154604051631b2f1b8f60e01b81525f956001600160a01b0390811695631b2f1b8f956109d3958d95339593851694909216928d918d9101611c6f565b6020604051808303815f875af11580156109ef573d5f5f3e3d5ffd5b505050506040513d601f19601f82011682018060405250810190610a139190611cbd565b60078301819055604051818152909150339086907f45c6ef09865025319c9f2a574b08ae087defce1c8b3640347d830c463909ce7b9060200160405180910390a350506108cf60015f55565b5f516020611e6c5f395f51905f52610a76816115de565b610a7e6116e4565b50565b610a89611557565b5f81815260096020526040902060028101546001600160a01b03163314610ac35760405163239700bf60e11b815260040160405180910390fd5b5f6005820154600160a01b900460ff166004811115610ae457610ae46118b4565b14610b025760405163268afcc560e21b815260040160405180910390fd5b60058101805460ff60a01b1916600160a01b17905560065460048201545f9161271091610b2f9190611bfe565b610b399190611c15565b90505f818360040154610b4c9190611c34565b90508115610b73576005805490840154610b73916001600160a01b0391821691168461157f565b60038301546005840154610b94916001600160a01b0391821691168361157f565b600b5460028401546003850154604051630443fcaf60e01b8152600481018890526001600160a01b0392831660248201529082166044820152911690630443fcaf906064015f604051808303815f87803b158015610bf0575f5ffd5b505af1158015610c02573d5f5f3e3d5ffd5b505050506003830154600284015460048501546040519081526001600160a01b03928316929091169086907f8ad96fbf4d07f78030cbe96bc0fcb4762a8fbd9c926f80af9a155036d3f8a3e99060200160405180910390a4505050610a7e60015f55565b5f516020611e6c5f395f51905f52610c7d816115de565b610a7e611736565b610c8d611771565b610c95611557565b6001600160a01b0385165f9081526007602052604090205460ff16610ccd5760405163514e24c360e11b815260040160405180910390fd5b835f03610cec5760405162bfc92160e01b815260040160405180910390fd5b825f03610d0c5760405163524f409b60e01b815260040160405180910390fd5b600380545f9182610d1c83611cd4565b919050559050604051806101000160405280828152602001336001600160a01b03168152602001876001600160a01b0316815260200186815260200185815260200184848080601f0160208091040260200160405190810160405280939291908181526020018383808284375f9201829052509385525050602090920191508152426020918201525f8381526008825260409081902083518155918301516001830180546001600160a01b03199081166001600160a01b0393841617909155918401516002840180549093169116179055606082015160038201556080820151600482015560a08201516005820190610e159082611d7c565b5060c082015160068201805460ff19166001836002811115610e3957610e396118b4565b021790555060e08201518160070155905050336001600160a01b0316817fa9dc767745af6c2cf470eec707e2bd522fbbde025ee3ce92dff45e0d0926f74f87898787604051610e8b9493929190611e37565b60405180910390a350610e9d60015f55565b5050505050565b5f516020611e6c5f395f51905f52610ebb816115de565b6001600160a01b0383165f81815260076020908152604091829020805460ff191686151590811790915591519182527f0de9c5667496fd561ff9dfa59efdc1c76f7dbf3844adae3d14a3a14d563321b1910160405180910390a2505050565b5f9182526002602090815260408084206001600160a01b0393909316845291905290205460ff1690565b5f82815260026020526040902060010154610f5e816115de565b6107c58383611679565b610f70611771565b610f78611557565b5f82815260086020526040812090600682015460ff166002811115610f9f57610f9f6118b4565b14610fbd576040516366cb03e960e01b815260040160405180910390fd5b8181600401541015610fe257604051630f00e02160e01b815260040160405180910390fd5b6001810154336001600160a01b0390911603611011576040516350eadcb160e01b815260040160405180910390fd5b5f8282600301546110229190611bfe565b905082826004015f8282546110379190611c34565b909155505060048201545f036110575760068201805460ff191660011790555b600480545f918261106783611cd4565b9091555060408051610120810182528281526020808201898152338385019081526001898101546001600160a01b0390811660608701908152608087018b81526002808e0154841660a08a019081525f60c08b018181524260e08d01526101008c018290528d82526009909a529a909a2089518155965194870194909455935192850180549383166001600160a01b031994851617905551600385018054918316918416919091179055915160048085019190915595516005840180549190931691811682178355935196975093959194919390926001600160a81b0319161790600160a01b90849081111561115f5761115f6118b4565b021790555060e08201516006820155610100909101516007909101556002830154611195906001600160a01b0316333085611797565b6001830154604080516001600160a01b039092168252602082018490523391879184917f68f9bcd53d144e67c6239e531e4f736142030abfc32a9458d1ce0a4a6daa206f910160405180910390a450505061071460015f55565b60086020525f908152604090208054600182015460028301546003840154600485015460058601805495966001600160a01b039586169695909416949293919261123890611d00565b80601f016020809104026020016040519081016040528092919081815260200182805461126490611d00565b80156112af5780601f10611286576101008083540402835291602001916112af565b820191905f5260205f20905b81548152906001019060200180831161129257829003601f168201915b505050506006830154600790930154919260ff1691905088565b5f516020611e6c5f395f51905f526112e0816115de565b50600a80546001600160a01b039384166001600160a01b031991821617909155600b8054929093169116179055565b611317611557565b5f8381526008602052604081206006015460ff16600281111561133c5761133c6118b4565b1461135a576040516366cb03e960e01b815260040160405180910390fd5b815f0361137a5760405163162908e360e11b815260040160405180910390fd5b600c5460405163079cc67960e41b8152336004820152602481018490526001600160a01b03909116906379cc6790906044015f604051808303815f87803b1580156113c3575f5ffd5b505af11580156113d5573d5f5f3e3d5ffd5b505060408051858152602081018590528693507ff6d3ef7d954df1bec95c02eb2dc339567123cfb8f00d2a365b7a3b158baafb2192500160405180910390a26108cf60015f55565b5f516020611e6c5f395f51905f52611434816115de565b6001600160a01b03821661145b5760405163e6c4247b60e01b815260040160405180910390fd5b50600580546001600160a01b0319166001600160a01b0392909216919091179055565b5f83815260086020526040902060018101546001600160a01b031633146114b857604051635ec8235160e01b815260040160405180910390fd5b5f600682015460ff1660028111156114d2576114d26118b4565b146114f0576040516366cb03e960e01b815260040160405180910390fd5b60038101839055600481018290555f8290036115165760068101805460ff191660021790555b604080518481526020810184905285917ff7adc9a0380a940c6058d78194df6a9b9fa5bb431bbad15194913bb611f3f4f7910160405180910390a250505050565b60025f540361157957604051633ee5aeb560e01b815260040160405180910390fd5b60025f55565b6040516001600160a01b038381166024830152604482018390526108cf91859182169063a9059cbb906064015b604051602081830303815290604052915060e01b6020820180516001600160e01b0383818316178352505050506117d0565b610a7e8133611841565b5f6115f38383610f1a565b611672575f8381526002602090815260408083206001600160a01b03861684529091529020805460ff1916600117905561162a3390565b6001600160a01b0316826001600160a01b0316847f2f8788117e7eff1d82e926ec794901d17c78024a50270940304540a733656f0d60405160405180910390a4506001610578565b505f610578565b5f6116848383610f1a565b15611672575f8381526002602090815260408083206001600160a01b0386168085529252808320805460ff1916905551339286917ff6391f5c32d9c69d2a47ea670b442974b53935d1edc7fd64eb21e047a839171b9190a4506001610578565b6116ec61187a565b6001805460ff191690557f5db9ee0a495bf2e6ff9c91a7834c1ba4fdd244a5e8aa4e537bd38aeae4b073aa335b6040516001600160a01b03909116815260200160405180910390a1565b61173e611771565b6001805460ff1916811790557f62e78cea01bee320cd4e420270b5ea74000d11b0c9f74754ebdbfc544b05a25833611719565b60015460ff16156117955760405163d93c066560e01b815260040160405180910390fd5b565b6040516001600160a01b0384811660248301528381166044830152606482018390526107c59186918216906323b872dd906084016115ac565b5f5f60205f8451602086015f885af1806117ef576040513d5f823e3d81fd5b50505f513d91508115611806578060011415611813565b6001600160a01b0384163b155b156107c557604051635274afe760e01b81526001600160a01b03851660048201526024015b60405180910390fd5b61184b8282610f1a565b6107145760405163e2517d3f60e01b81526001600160a01b038216600482015260248101839052604401611838565b60015460ff1661179557604051638dfc202b60e01b815260040160405180910390fd5b5f602082840312156118ad575f5ffd5b5035919050565b634e487b7160e01b5f52602160045260245ffd5b898152602081018990526001600160a01b038881166040830152878116606083015260808201879052851660a082015261012081016005851061190d5761190d6118b4565b8460c08301528360e0830152826101008301529a9950505050505050505050565b5f6020828403121561193e575f5ffd5b81356001600160e01b031981168114611955575f5ffd5b9392505050565b80356001600160a01b0381168114611972575f5ffd5b919050565b5f5f60408385031215611988575f5ffd5b823591506119986020840161195c565b90509250929050565b5f5f83601f8401126119b1575f5ffd5b50813567ffffffffffffffff8111156119c8575f5ffd5b6020830191508360208285010111156119df575f5ffd5b9250929050565b5f5f5f604084860312156119f8575f5ffd5b83359250602084013567ffffffffffffffff811115611a15575f5ffd5b611a21868287016119a1565b9497909650939450505050565b5f5f5f5f5f60808688031215611a42575f5ffd5b611a4b8661195c565b94506020860135935060408601359250606086013567ffffffffffffffff811115611a74575f5ffd5b611a80888289016119a1565b969995985093965092949392505050565b5f5f60408385031215611aa2575f5ffd5b611aab8361195c565b915060208301358015158114611abf575f5ffd5b809150509250929050565b5f5f60408385031215611adb575f5ffd5b50508035926020909101359150565b60038110611afa57611afa6118b4565b9052565b88815260018060a01b038816602082015260018060a01b038716604082015285606082015284608082015261010060a08201525f845180610100840152806020870161012085015e5f6101208285010152610120601f19601f830116840101915050611b6d60c0830185611aea565b8260e08301529998505050505050505050565b5f60208284031215611b90575f5ffd5b6119558261195c565b5f5f60408385031215611baa575f5ffd5b611bb38361195c565b91506119986020840161195c565b5f5f5f60608486031215611bd3575f5ffd5b505081359360208301359350604090920135919050565b634e487b7160e01b5f52601160045260245ffd5b808202811582820484141761057857610578611bea565b5f82611c2f57634e487b7160e01b5f52601260045260245ffd5b500490565b8181038181111561057857610578611bea565b81835281816020850137505f828201602090810191909152601f909101601f19169091010190565b8781526001600160a01b0387811660208301528681166040830152851660608201526080810184905260c060a082018190525f90611cb09083018486611c47565b9998505050505050505050565b5f60208284031215611ccd575f5ffd5b5051919050565b5f60018201611ce557611ce5611bea565b5060010190565b634e487b7160e01b5f52604160045260245ffd5b600181811c90821680611d1457607f821691505b602082108103611d3257634e487b7160e01b5f52602260045260245ffd5b50919050565b601f8211156108cf57805f5260205f20601f840160051c81016020851015611d5d5750805b601f840160051c820191505b81811015610e9d575f8155600101611d69565b815167ffffffffffffffff811115611d9657611d96611cec565b611daa81611da48454611d00565b84611d38565b6020601f821160018114611ddc575f8315611dc55750848201515b5f19600385901b1c1916600184901b178455610e9d565b5f84815260208120601f198516915b82811015611e0b5787850151825560209485019460019092019101611deb565b5084821015611e2857868401515f19600387901b60f8161c191681555b50505050600190811b01905550565b8481526001600160a01b03841660208201526060604082018190525f90611e619083018486611c47565b969550505050505056fea49807205ce4d355092ef5a8a18f56e8913cf4a201fbe287825b095693c21775a2646970667358221220c4f0f87515016d48f06da9f4ccaea16aff0e1e463ef82c7bd979d6b3aa2093d264736f6c634300081b0033",
  "linkReferences": {},
  "deployedLinkReferences": {}
}